{
  "_format": "hh-sol-artifact-1",
  "contractName": "Marketplace",
  "sourceName": "contracts/marketplace/Marketplace.sol",
  "abi": [
    {
      "inputs": [
        {
          "internalType": "uint256",
          "name": "_feeByDecimal",
          "type": "uint256"
        },
        {
          "internalType": "uint256",
          "name": "_feeRate",
          "type": "uint256"
        },
        {
          "internalType": "address",
          "name": "_feeRecipient",
          "type": "address"
        },
        {
          "internalType": "address",
          "name": "nftContract",
          "type": "address"
        }
      ],
      "stateMutability": "nonpayable",
      "type": "constructor"
    },
    {
      "inputs": [
        {
          "internalType": "address",
          "name": "owner",
          "type": "address"
        }
      ],
      "name": "OwnableInvalidOwner",
      "type": "error"
    },
    {
      "inputs": [
        {
          "internalType": "address",
          "name": "account",
          "type": "address"
        }
      ],
      "name": "OwnableUnauthorizedAccount",
      "type": "error"
    },
    {
      "anonymous": false,
      "inputs": [
        {
          "indexed": true,
          "internalType": "address",
          "name": "buyer",
          "type": "address"
        },
        {
          "indexed": false,
          "internalType": "uint256",
          "name": "price",
          "type": "uint256"
        },
        {
          "indexed": false,
          "internalType": "address",
          "name": "tokenTransfer",
          "type": "address"
        },
        {
          "indexed": true,
          "internalType": "uint256",
          "name": "tokenId",
          "type": "uint256"
        }
      ],
      "name": "AddOffer",
      "type": "event"
    },
    {
      "anonymous": false,
      "inputs": [
        {
          "indexed": false,
          "internalType": "address",
          "name": "buyer",
          "type": "address"
        },
        {
          "indexed": false,
          "internalType": "uint256",
          "name": "tokenId",
          "type": "uint256"
        },
        {
          "indexed": false,
          "internalType": "uint256",
          "name": "index",
          "type": "uint256"
        }
      ],
      "name": "CancelOffer",
      "type": "event"
    },
    {
      "anonymous": false,
      "inputs": [
        {
          "indexed": false,
          "internalType": "uint256",
          "name": "feeByDecimal",
          "type": "uint256"
        },
        {
          "indexed": false,
          "internalType": "uint256",
          "name": "feeRate",
          "type": "uint256"
        }
      ],
      "name": "FeeUpdated",
      "type": "event"
    },
    {
      "anonymous": false,
      "inputs": [
        {
          "indexed": true,
          "internalType": "address",
          "name": "buyer",
          "type": "address"
        },
        {
          "indexed": true,
          "internalType": "address",
          "name": "seller",
          "type": "address"
        },
        {
          "indexed": false,
          "internalType": "uint256",
          "name": "price",
          "type": "uint256"
        },
        {
          "indexed": true,
          "internalType": "uint256",
          "name": "tokenId",
          "type": "uint256"
        }
      ],
      "name": "MatchedOffer",
      "type": "event"
    },
    {
      "anonymous": false,
      "inputs": [
        {
          "indexed": true,
          "internalType": "uint256",
          "name": "orderId",
          "type": "uint256"
        },
        {
          "indexed": true,
          "internalType": "address",
          "name": "buyer",
          "type": "address"
        },
        {
          "indexed": false,
          "internalType": "uint256",
          "name": "price",
          "type": "uint256"
        },
        {
          "indexed": false,
          "internalType": "address",
          "name": "tokenTransfer",
          "type": "address"
        },
        {
          "indexed": true,
          "internalType": "uint256",
          "name": "tokenId",
          "type": "uint256"
        }
      ],
      "name": "OrderAdded",
      "type": "event"
    },
    {
      "anonymous": false,
      "inputs": [
        {
          "indexed": true,
          "internalType": "uint256",
          "name": "orderId",
          "type": "uint256"
        }
      ],
      "name": "OrderCancel",
      "type": "event"
    },
    {
      "anonymous": false,
      "inputs": [
        {
          "indexed": true,
          "internalType": "uint256",
          "name": "orderId",
          "type": "uint256"
        },
        {
          "indexed": true,
          "internalType": "address",
          "name": "buyer",
          "type": "address"
        },
        {
          "indexed": false,
          "internalType": "uint256",
          "name": "price",
          "type": "uint256"
        },
        {
          "indexed": false,
          "internalType": "address",
          "name": "tokenTransfer",
          "type": "address"
        },
        {
          "indexed": false,
          "internalType": "uint256",
          "name": "tokenId",
          "type": "uint256"
        },
        {
          "indexed": true,
          "internalType": "address",
          "name": "seller",
          "type": "address"
        }
      ],
      "name": "OrderMatched",
      "type": "event"
    },
    {
      "anonymous": false,
      "inputs": [
        {
          "indexed": true,
          "internalType": "address",
          "name": "previousOwner",
          "type": "address"
        },
        {
          "indexed": true,
          "internalType": "address",
          "name": "newOwner",
          "type": "address"
        }
      ],
      "name": "OwnershipTransferred",
      "type": "event"
    },
    {
      "inputs": [],
      "name": "NFTContract",
      "outputs": [
        {
          "internalType": "contract IERC721",
          "name": "",
          "type": "address"
        }
      ],
      "stateMutability": "view",
      "type": "function"
    },
    {
      "inputs": [
        {
          "internalType": "address",
          "name": "fee",
          "type": "address"
        }
      ],
      "name": "_updateFeeRecipient",
      "outputs": [],
      "stateMutability": "nonpayable",
      "type": "function"
    },
    {
      "inputs": [
        {
          "internalType": "uint256",
          "name": "tokenId",
          "type": "uint256"
        },
        {
          "internalType": "uint256",
          "name": "index",
          "type": "uint256"
        }
      ],
      "name": "acceptOffer",
      "outputs": [
        {
          "internalType": "bool",
          "name": "",
          "type": "bool"
        }
      ],
      "stateMutability": "nonpayable",
      "type": "function"
    },
    {
      "inputs": [
        {
          "internalType": "address",
          "name": "newToken",
          "type": "address"
        }
      ],
      "name": "addNewToken",
      "outputs": [],
      "stateMutability": "nonpayable",
      "type": "function"
    },
    {
      "inputs": [
        {
          "internalType": "uint256",
          "name": "tokenId",
          "type": "uint256"
        },
        {
          "internalType": "uint256",
          "name": "price",
          "type": "uint256"
        },
        {
          "internalType": "address",
          "name": "token",
          "type": "address"
        }
      ],
      "name": "addOrder",
      "outputs": [],
      "stateMutability": "nonpayable",
      "type": "function"
    },
    {
      "inputs": [
        {
          "internalType": "uint256",
          "name": "tokenId",
          "type": "uint256"
        },
        {
          "internalType": "uint256",
          "name": "index",
          "type": "uint256"
        }
      ],
      "name": "cancelOffer",
      "outputs": [
        {
          "internalType": "bool",
          "name": "",
          "type": "bool"
        }
      ],
      "stateMutability": "nonpayable",
      "type": "function"
    },
    {
      "inputs": [
        {
          "internalType": "uint256",
          "name": "orderId",
          "type": "uint256"
        }
      ],
      "name": "cancelOrder",
      "outputs": [],
      "stateMutability": "nonpayable",
      "type": "function"
    },
    {
      "inputs": [
        {
          "internalType": "uint256",
          "name": "_price",
          "type": "uint256"
        },
        {
          "internalType": "address",
          "name": "_token",
          "type": "address"
        },
        {
          "internalType": "uint256",
          "name": "tokenId",
          "type": "uint256"
        }
      ],
      "name": "createOffer",
      "outputs": [],
      "stateMutability": "nonpayable",
      "type": "function"
    },
    {
      "inputs": [
        {
          "internalType": "uint256",
          "name": "orderId",
          "type": "uint256"
        }
      ],
      "name": "executeOrder",
      "outputs": [],
      "stateMutability": "nonpayable",
      "type": "function"
    },
    {
      "inputs": [],
      "name": "feeByDecimal",
      "outputs": [
        {
          "internalType": "uint256",
          "name": "",
          "type": "uint256"
        }
      ],
      "stateMutability": "view",
      "type": "function"
    },
    {
      "inputs": [],
      "name": "feeRate",
      "outputs": [
        {
          "internalType": "uint256",
          "name": "",
          "type": "uint256"
        }
      ],
      "stateMutability": "view",
      "type": "function"
    },
    {
      "inputs": [],
      "name": "feeRecipient",
      "outputs": [
        {
          "internalType": "address",
          "name": "",
          "type": "address"
        }
      ],
      "stateMutability": "view",
      "type": "function"
    },
    {
      "inputs": [
        {
          "internalType": "uint256",
          "name": "tokenId",
          "type": "uint256"
        }
      ],
      "name": "getOffers",
      "outputs": [
        {
          "components": [
            {
              "internalType": "address",
              "name": "buyer",
              "type": "address"
            },
            {
              "internalType": "uint256",
              "name": "price",
              "type": "uint256"
            },
            {
              "internalType": "address",
              "name": "tokenTransfer",
              "type": "address"
            },
            {
              "internalType": "uint256",
              "name": "tokenId",
              "type": "uint256"
            },
            {
              "internalType": "bool",
              "name": "active",
              "type": "bool"
            }
          ],
          "internalType": "struct Marketplace.OfferOrder[]",
          "name": "",
          "type": "tuple[]"
        }
      ],
      "stateMutability": "view",
      "type": "function"
    },
    {
      "inputs": [],
      "name": "getSupportTokenList",
      "outputs": [
        {
          "internalType": "address[]",
          "name": "",
          "type": "address[]"
        }
      ],
      "stateMutability": "view",
      "type": "function"
    },
    {
      "inputs": [
        {
          "internalType": "uint256",
          "name": "orderId",
          "type": "uint256"
        },
        {
          "internalType": "address",
          "name": "seller",
          "type": "address"
        }
      ],
      "name": "isSeller",
      "outputs": [
        {
          "internalType": "bool",
          "name": "",
          "type": "bool"
        }
      ],
      "stateMutability": "view",
      "type": "function"
    },
    {
      "inputs": [
        {
          "internalType": "address",
          "name": "token",
          "type": "address"
        }
      ],
      "name": "isTokenSupported",
      "outputs": [
        {
          "internalType": "bool",
          "name": "",
          "type": "bool"
        }
      ],
      "stateMutability": "view",
      "type": "function"
    },
    {
      "inputs": [
        {
          "internalType": "uint256",
          "name": "",
          "type": "uint256"
        },
        {
          "internalType": "uint256",
          "name": "",
          "type": "uint256"
        }
      ],
      "name": "offerOrder",
      "outputs": [
        {
          "internalType": "address",
          "name": "buyer",
          "type": "address"
        },
        {
          "internalType": "uint256",
          "name": "price",
          "type": "uint256"
        },
        {
          "internalType": "address",
          "name": "tokenTransfer",
          "type": "address"
        },
        {
          "internalType": "uint256",
          "name": "tokenId",
          "type": "uint256"
        },
        {
          "internalType": "bool",
          "name": "active",
          "type": "bool"
        }
      ],
      "stateMutability": "view",
      "type": "function"
    },
    {
      "inputs": [
        {
          "internalType": "uint256",
          "name": "",
          "type": "uint256"
        }
      ],
      "name": "orders",
      "outputs": [
        {
          "internalType": "address",
          "name": "sender",
          "type": "address"
        },
        {
          "internalType": "address",
          "name": "buyer",
          "type": "address"
        },
        {
          "internalType": "uint256",
          "name": "price",
          "type": "uint256"
        },
        {
          "internalType": "address",
          "name": "tokenTransfer",
          "type": "address"
        },
        {
          "internalType": "uint256",
          "name": "tokenId",
          "type": "uint256"
        }
      ],
      "stateMutability": "view",
      "type": "function"
    },
    {
      "inputs": [],
      "name": "owner",
      "outputs": [
        {
          "internalType": "address",
          "name": "",
          "type": "address"
        }
      ],
      "stateMutability": "view",
      "type": "function"
    },
    {
      "inputs": [],
      "name": "renounceOwnership",
      "outputs": [],
      "stateMutability": "nonpayable",
      "type": "function"
    },
    {
      "inputs": [
        {
          "internalType": "address",
          "name": "newOwner",
          "type": "address"
        }
      ],
      "name": "transferOwnership",
      "outputs": [],
      "stateMutability": "nonpayable",
      "type": "function"
    },
    {
      "inputs": [
        {
          "internalType": "uint256",
          "name": "_feeByDecimal",
          "type": "uint256"
        },
        {
          "internalType": "uint256",
          "name": "_feeRate",
          "type": "uint256"
        }
      ],
      "name": "updateFeeRate",
      "outputs": [],
      "stateMutability": "nonpayable",
      "type": "function"
    }
  ],
  "bytecode": "0x60a0604052600060035534801561001557600080fd5b50604051614276380380614276833981810160405281019061003791906104a9565b33600073ffffffffffffffffffffffffffffffffffffffff168173ffffffffffffffffffffffffffffffffffffffff16036100aa5760006040517f1e4fbdf70000000000000000000000000000000000000000000000000000000081526004016100a1919061051f565b60405180910390fd5b6100b9816101f460201b60201c565b50600073ffffffffffffffffffffffffffffffffffffffff168173ffffffffffffffffffffffffffffffffffffffff1603610129576040517f08c379a0000000000000000000000000000000000000000000000000000000008152600401610120906105bd565b60405180910390fd5b600073ffffffffffffffffffffffffffffffffffffffff168273ffffffffffffffffffffffffffffffffffffffff1603610198576040517f08c379a000000000000000000000000000000000000000000000000000000000815260040161018f90610629565b60405180910390fd5b8073ffffffffffffffffffffffffffffffffffffffff1660808173ffffffffffffffffffffffffffffffffffffffff16815250506101dc84846102b860201b60201c565b6101eb8261035d60201b60201c565b505050506108ce565b60008060009054906101000a900473ffffffffffffffffffffffffffffffffffffffff169050816000806101000a81548173ffffffffffffffffffffffffffffffffffffffff021916908373ffffffffffffffffffffffffffffffffffffffff1602179055508173ffffffffffffffffffffffffffffffffffffffff168173ffffffffffffffffffffffffffffffffffffffff167f8be0079c531659141344cd1fd0a4f28419497f9722a3daafe3b4186f6b6457e060405160405180910390a35050565b6002826102c59190610678565b600a6102d191906107df565b8110610312576040517f08c379a000000000000000000000000000000000000000000000000000000000815260040161030990610876565b60405180910390fd5b81600481905550806005819055507f528d9479e9f9889a87a3c30c7f7ba537e5e59c4c85a37733b16e57c62df6130282826040516103519291906108a5565b60405180910390a15050565b600073ffffffffffffffffffffffffffffffffffffffff168173ffffffffffffffffffffffffffffffffffffffff16036103cc576040517f08c379a00000000000000000000000000000000000000000000000000000000081526004016103c390610629565b60405180910390fd5b80600660006101000a81548173ffffffffffffffffffffffffffffffffffffffff021916908373ffffffffffffffffffffffffffffffffffffffff16021790555050565b600080fd5b6000819050919050565b61042881610415565b811461043357600080fd5b50565b6000815190506104458161041f565b92915050565b600073ffffffffffffffffffffffffffffffffffffffff82169050919050565b60006104768261044b565b9050919050565b6104868161046b565b811461049157600080fd5b50565b6000815190506104a38161047d565b92915050565b600080600080608085870312156104c3576104c2610410565b5b60006104d187828801610436565b94505060206104e287828801610436565b93505060406104f387828801610494565b925050606061050487828801610494565b91505092959194509250565b6105198161046b565b82525050565b60006020820190506105346000830184610510565b92915050565b600082825260208201905092915050565b7f43616e2774206465706c6f7920636f6e7472616374206164647265737320302060008201527f2121212121000000000000000000000000000000000000000000000000000000602082015250565b60006105a760258361053a565b91506105b28261054b565b604082019050919050565b600060208201905081810360008301526105d68161059a565b9050919050565b7f666565526563697069656e742069732061646472657373203020210000000000600082015250565b6000610613601b8361053a565b915061061e826105dd565b602082019050919050565b6000602082019050818103600083015261064281610606565b9050919050565b7f4e487b7100000000000000000000000000000000000000000000000000000000600052601160045260246000fd5b600061068382610415565b915061068e83610415565b92508282019050808211156106a6576106a5610649565b5b92915050565b60008160011c9050919050565b6000808291508390505b6001851115610703578086048111156106df576106de610649565b5b60018516156106ee5780820291505b80810290506106fc856106ac565b94506106c3565b94509492505050565b60008261071c57600190506107d8565b8161072a57600090506107d8565b8160018114610740576002811461074a57610779565b60019150506107d8565b60ff84111561075c5761075b610649565b5b8360020a91508482111561077357610772610649565b5b506107d8565b5060208310610133831016604e8410600b84101617156107ae5782820a9050838111156107a9576107a8610649565b5b6107d8565b6107bb84848460016106b9565b925090508184048111156107d2576107d1610649565b5b81810290505b9392505050565b60006107ea82610415565b91506107f583610415565b92506108227fffffffffffffffffffffffffffffffffffffffffffffffffffffffffffffffff848461070c565b905092915050565b7f4261642066656500000000000000000000000000000000000000000000000000600082015250565b600061086060078361053a565b915061086b8261082a565b602082019050919050565b6000602082019050818103600083015261088f81610853565b9050919050565b61089f81610415565b82525050565b60006040820190506108ba6000830185610896565b6108c76020830184610896565b9392505050565b6080516139556109216000396000818161051e015281816106be0152818161093401528181610c27015281816111560152818161195f01528181611a6601528181611b210152611dc601526139556000f3fe608060405234801561001057600080fd5b50600436106101425760003560e01c80638da5cb5b116100b8578063be91dc0f1161007c578063be91dc0f14610341578063d45557cc14610371578063d5d44330146103a1578063d927af11146103bd578063dfa49e6f146103f1578063f2fde38b1461042157610142565b80638da5cb5b1461029957806394f61134146102b7578063978bbdb9146102d35780639b59d95b146102f1578063a85c38ef1461030d57610142565b8063514fcac71161010a578063514fcac7146101db57806364db444a146101f75780636757ef9c14610213578063715018a61461022f57806375151b631461023957806381257bd51461026957610142565b80631a95c1fb1461014757806331c2273b146101655780634165489214610183578063469048401461019f5780634f75b075146101bd575b600080fd5b61014f61043d565b60405161015c9190612745565b60405180910390f35b61016d61051c565b60405161017a91906127c6565b60405180910390f35b61019d60048036038101906101989190612812565b610540565b005b6101a7610554565b6040516101b4919061284e565b60405180910390f35b6101c561057a565b6040516101d29190612882565b60405180910390f35b6101f560048036038101906101f091906128c9565b610580565b005b610211600480360381019061020c9190612812565b61081b565b005b61022d600480360381019061022891906128f6565b6108e8565b005b6102376108fe565b005b610253600480360381019061024e9190612812565b610912565b6040516102609190612951565b60405180910390f35b610283600480360381019061027e91906128f6565b61092f565b6040516102909190612951565b60405180910390f35b6102a1610d94565b6040516102ae919061284e565b60405180910390f35b6102d160048036038101906102cc91906128c9565b610dbd565b005b6102db6112ff565b6040516102e89190612882565b60405180910390f35b61030b6004803603810190610306919061296c565b611305565b005b610327600480360381019061032291906128c9565b6115bd565b6040516103389594939291906129bf565b60405180910390f35b61035b60048036038101906103569190612a12565b611653565b6040516103689190612951565b60405180910390f35b61038b600480360381019061038691906128f6565b6116d2565b6040516103989190612951565b60405180910390f35b6103bb60048036038101906103b69190612a52565b6118fd565b005b6103d760048036038101906103d291906128f6565b611f6d565b6040516103e8959493929190612aa5565b60405180910390f35b61040b600480360381019061040691906128c9565b61200d565b6040516104189190612c2d565b60405180910390f35b61043b60048036038101906104369190612812565b61215a565b005b6060600061044b60016121e0565b905060008167ffffffffffffffff81111561046957610468612c4f565b5b6040519080825280602002602001820160405280156104975781602001602082028036833780820191505090505b50905060005b82811015610513576104b98160016121f590919063ffffffff16565b8282815181106104cc576104cb612c7e565b5b602002602001019073ffffffffffffffffffffffffffffffffffffffff16908173ffffffffffffffffffffffffffffffffffffffff1681525050808060010191505061049d565b50809250505090565b7f000000000000000000000000000000000000000000000000000000000000000081565b61054861220f565b61055181612296565b50565b600660009054906101000a900473ffffffffffffffffffffffffffffffffffffffff1681565b60045481565b6000600760008381526020019081526020016000209050600073ffffffffffffffffffffffffffffffffffffffff168160010160009054906101000a900473ffffffffffffffffffffffffffffffffffffffff1673ffffffffffffffffffffffffffffffffffffffff161461062a576040517f08c379a000000000000000000000000000000000000000000000000000000000815260040161062190612d0a565b60405180910390fd5b3373ffffffffffffffffffffffffffffffffffffffff168160000160009054906101000a900473ffffffffffffffffffffffffffffffffffffffff1673ffffffffffffffffffffffffffffffffffffffff16146106bc576040517f08c379a00000000000000000000000000000000000000000000000000000000081526004016106b390612d9c565b60405180910390fd5b7f000000000000000000000000000000000000000000000000000000000000000073ffffffffffffffffffffffffffffffffffffffff166323b872dd303384600401546040518463ffffffff1660e01b815260040161071d93929190612dbc565b600060405180830381600087803b15801561073757600080fd5b505af115801561074b573d6000803e3d6000fd5b5050505060076000838152602001908152602001600020600080820160006101000a81549073ffffffffffffffffffffffffffffffffffffffff02191690556001820160006101000a81549073ffffffffffffffffffffffffffffffffffffffff021916905560028201600090556003820160006101000a81549073ffffffffffffffffffffffffffffffffffffffff021916905560048201600090555050817fab15e9f4d651ec7d8276a842911d7028683655a4e1d043a54a623c2d36f3b18f60405160405180910390a25050565b61082361220f565b600073ffffffffffffffffffffffffffffffffffffffff168173ffffffffffffffffffffffffffffffffffffffff1603610892576040517f08c379a000000000000000000000000000000000000000000000000000000000815260040161088990612e3f565b60405180910390fd5b6108a681600161234990919063ffffffff16565b6108e5576040517f08c379a00000000000000000000000000000000000000000000000000000000081526004016108dc90612ed1565b60405180910390fd5b50565b6108f061220f565b6108fa8282612379565b5050565b61090661220f565b610910600061241e565b565b60006109288260016124e290919063ffffffff16565b9050919050565b6000807f000000000000000000000000000000000000000000000000000000000000000073ffffffffffffffffffffffffffffffffffffffff16636352211e856040518263ffffffff1660e01b815260040161098b9190612882565b602060405180830381865afa1580156109a8573d6000803e3d6000fd5b505050506040513d601f19601f820116820180604052508101906109cc9190612f06565b90508073ffffffffffffffffffffffffffffffffffffffff163373ffffffffffffffffffffffffffffffffffffffff1614610a3c576040517f08c379a0000000000000000000000000000000000000000000000000000000008152600401610a3390612f7f565b60405180910390fd5b6000600860008681526020019081526020016000208481548110610a6357610a62612c7e565b5b9060005260206000209060050201905060006002600454610a849190612fce565b600a610a909190613135565b6005548360010154610aa29190613180565b610aac91906131f1565b90508160020160009054906101000a900473ffffffffffffffffffffffffffffffffffffffff1673ffffffffffffffffffffffffffffffffffffffff1663a9059cbb600660009054906101000a900473ffffffffffffffffffffffffffffffffffffffff16836040518363ffffffff1660e01b8152600401610b2f929190613222565b6020604051808303816000875af1158015610b4e573d6000803e3d6000fd5b505050506040513d601f19601f82011682018060405250810190610b729190613277565b508160020160009054906101000a900473ffffffffffffffffffffffffffffffffffffffff1673ffffffffffffffffffffffffffffffffffffffff1663a9059cbb33838560010154610bc491906132a4565b6040518363ffffffff1660e01b8152600401610be1929190613222565b6020604051808303816000875af1158015610c00573d6000803e3d6000fd5b505050506040513d601f19601f82011682018060405250810190610c249190613277565b507f000000000000000000000000000000000000000000000000000000000000000073ffffffffffffffffffffffffffffffffffffffff166323b872dd338460000160009054906101000a900473ffffffffffffffffffffffffffffffffffffffff16896040518463ffffffff1660e01b8152600401610ca693929190612dbc565b600060405180830381600087803b158015610cc057600080fd5b505af1158015610cd4573d6000803e3d6000fd5b5050505060008260040160006101000a81548160ff02191690831515021790555081600301543373ffffffffffffffffffffffffffffffffffffffff168360000160009054906101000a900473ffffffffffffffffffffffffffffffffffffffff1673ffffffffffffffffffffffffffffffffffffffff167fdb6b2d338d2cc7a41e8e6ed5503d08b1c8663f8121ead31bf90217b35b476c7e8560010154604051610d7f9190612882565b60405180910390a46001935050505092915050565b60008060009054906101000a900473ffffffffffffffffffffffffffffffffffffffff16905090565b60011515610dcb8233611653565b151503610e0d576040517f08c379a0000000000000000000000000000000000000000000000000000000008152600401610e0490613324565b60405180910390fd5b6000600760008381526020019081526020016000206002015411610e66576040517f08c379a0000000000000000000000000000000000000000000000000000000008152600401610e5d90613390565b60405180910390fd5b600073ffffffffffffffffffffffffffffffffffffffff166007600083815260200190815260200160002060010160009054906101000a900473ffffffffffffffffffffffffffffffffffffffff1673ffffffffffffffffffffffffffffffffffffffff1614610f0b576040517f08c379a0000000000000000000000000000000000000000000000000000000008152600401610f0290612d0a565b60405180910390fd5b336007600083815260200190815260200160002060010160006101000a81548173ffffffffffffffffffffffffffffffffffffffff021916908373ffffffffffffffffffffffffffffffffffffffff1602179055506000610f6b82612512565b90506007600083815260200190815260200160002060030160009054906101000a900473ffffffffffffffffffffffffffffffffffffffff1673ffffffffffffffffffffffffffffffffffffffff166323b872dd33600660009054906101000a900473ffffffffffffffffffffffffffffffffffffffff16846040518463ffffffff1660e01b815260040161100293929190612dbc565b6020604051808303816000875af1158015611021573d6000803e3d6000fd5b505050506040513d601f19601f820116820180604052508101906110459190613277565b506007600083815260200190815260200160002060030160009054906101000a900473ffffffffffffffffffffffffffffffffffffffff1673ffffffffffffffffffffffffffffffffffffffff166323b872dd336007600086815260200190815260200160002060000160009054906101000a900473ffffffffffffffffffffffffffffffffffffffff168460076000888152602001908152602001600020600201546110f291906132a4565b6040518463ffffffff1660e01b815260040161111093929190612dbc565b6020604051808303816000875af115801561112f573d6000803e3d6000fd5b505050506040513d601f19601f820116820180604052508101906111539190613277565b507f000000000000000000000000000000000000000000000000000000000000000073ffffffffffffffffffffffffffffffffffffffff166323b872dd303360076000878152602001908152602001600020600401546040518463ffffffff1660e01b81526004016111c793929190612dbc565b600060405180830381600087803b1580156111e157600080fd5b505af11580156111f5573d6000803e3d6000fd5b505050506007600083815260200190815260200160002060000160009054906101000a900473ffffffffffffffffffffffffffffffffffffffff1673ffffffffffffffffffffffffffffffffffffffff163373ffffffffffffffffffffffffffffffffffffffff16837f216f7cf4872bb363d50b4291225c4fe64948a32031171535e10655f86284476760076000878152602001908152602001600020600201546007600088815260200190815260200160002060030160009054906101000a900473ffffffffffffffffffffffffffffffffffffffff1660076000898152602001908152602001600020600401546040516112f3939291906133b0565b60405180910390a45050565b60055481565b60008311611348576040517f08c379a000000000000000000000000000000000000000000000000000000000815260040161133f90613433565b60405180910390fd5b61135182610912565b611390576040517f08c379a0000000000000000000000000000000000000000000000000000000008152600401611387906134c5565b60405180910390fd5b8173ffffffffffffffffffffffffffffffffffffffff166323b872dd3330866040518463ffffffff1660e01b81526004016113cd93929190612dbc565b6020604051808303816000875af11580156113ec573d6000803e3d6000fd5b505050506040513d601f19601f820116820180604052508101906114109190613277565b50600860008281526020019081526020016000206040518060a001604052803373ffffffffffffffffffffffffffffffffffffffff1681526020018581526020018473ffffffffffffffffffffffffffffffffffffffff16815260200183815260200160011515815250908060018154018082558091505060019003906000526020600020906005020160009091909190915060008201518160000160006101000a81548173ffffffffffffffffffffffffffffffffffffffff021916908373ffffffffffffffffffffffffffffffffffffffff1602179055506020820151816001015560408201518160020160006101000a81548173ffffffffffffffffffffffffffffffffffffffff021916908373ffffffffffffffffffffffffffffffffffffffff1602179055506060820151816003015560808201518160040160006101000a81548160ff0219169083151502179055505050803373ffffffffffffffffffffffffffffffffffffffff167fafd6a2d5177a780973c0a72d3efe7da5070fdaa401887ef746841249ce931e6b85856040516115b09291906134e5565b60405180910390a3505050565b60076020528060005260406000206000915090508060000160009054906101000a900473ffffffffffffffffffffffffffffffffffffffff16908060010160009054906101000a900473ffffffffffffffffffffffffffffffffffffffff16908060020154908060030160009054906101000a900473ffffffffffffffffffffffffffffffffffffffff16908060040154905085565b60008173ffffffffffffffffffffffffffffffffffffffff166007600085815260200190815260200160002060000160009054906101000a900473ffffffffffffffffffffffffffffffffffffffff1673ffffffffffffffffffffffffffffffffffffffff16036116c757600190506116cc565b600090505b92915050565b60006008600084815260200190815260200160002082815481106116f9576116f8612c7e565b5b906000526020600020906005020160000160009054906101000a900473ffffffffffffffffffffffffffffffffffffffff1673ffffffffffffffffffffffffffffffffffffffff163373ffffffffffffffffffffffffffffffffffffffff1614611798576040517f08c379a000000000000000000000000000000000000000000000000000000000815260040161178f9061355a565b60405180910390fd5b60006008600085815260200190815260200160002083815481106117bf576117be612c7e565b5b9060005260206000209060050201905060008160040160006101000a81548160ff0219169083151502179055508060020160009054906101000a900473ffffffffffffffffffffffffffffffffffffffff1673ffffffffffffffffffffffffffffffffffffffff1663a9059cbb3383600101546040518363ffffffff1660e01b815260040161184f929190613222565b6020604051808303816000875af115801561186e573d6000803e3d6000fd5b505050506040513d601f19601f820116820180604052508101906118929190613277565b507fb7375e8ecabc1d6862aa4beb6a0f185c9a4298158181c62c175d99c3df0b1d468160000160009054906101000a900473ffffffffffffffffffffffffffffffffffffffff1685856040516118ea9392919061357a565b60405180910390a1600191505092915050565b8061190781610912565b611946576040517f08c379a000000000000000000000000000000000000000000000000000000000815260040161193d906135fd565b60405180910390fd5b3373ffffffffffffffffffffffffffffffffffffffff167f000000000000000000000000000000000000000000000000000000000000000073ffffffffffffffffffffffffffffffffffffffff16636352211e866040518263ffffffff1660e01b81526004016119b69190612882565b602060405180830381865afa1580156119d3573d6000803e3d6000fd5b505050506040513d601f19601f820116820180604052508101906119f79190612f06565b73ffffffffffffffffffffffffffffffffffffffff1614611a4d576040517f08c379a0000000000000000000000000000000000000000000000000000000008152600401611a449061368f565b60405180910390fd5b3073ffffffffffffffffffffffffffffffffffffffff167f000000000000000000000000000000000000000000000000000000000000000073ffffffffffffffffffffffffffffffffffffffff1663081812fc866040518263ffffffff1660e01b8152600401611abd9190612882565b602060405180830381865afa158015611ada573d6000803e3d6000fd5b505050506040513d601f19601f82011682018060405250810190611afe9190612f06565b73ffffffffffffffffffffffffffffffffffffffff161480611bbf5750600115157f000000000000000000000000000000000000000000000000000000000000000073ffffffffffffffffffffffffffffffffffffffff1663e985e9c533306040518363ffffffff1660e01b8152600401611b7a9291906136af565b602060405180830381865afa158015611b97573d6000803e3d6000fd5b505050506040513d601f19601f82011682018060405250810190611bbb9190613277565b1515145b611bfe576040517f08c379a0000000000000000000000000000000000000000000000000000000008152600401611bf59061374a565b60405180910390fd5b60008311611c41576040517f08c379a0000000000000000000000000000000000000000000000000000000008152600401611c38906137b6565b60405180910390fd5b60036000815480929190611c54906137d6565b91905055506040518060a001604052803373ffffffffffffffffffffffffffffffffffffffff168152602001600073ffffffffffffffffffffffffffffffffffffffff1681526020018481526020018373ffffffffffffffffffffffffffffffffffffffff1681526020018581525060076000600354815260200190815260200160002060008201518160000160006101000a81548173ffffffffffffffffffffffffffffffffffffffff021916908373ffffffffffffffffffffffffffffffffffffffff16021790555060208201518160010160006101000a81548173ffffffffffffffffffffffffffffffffffffffff021916908373ffffffffffffffffffffffffffffffffffffffff1602179055506040820151816002015560608201518160030160006101000a81548173ffffffffffffffffffffffffffffffffffffffff021916908373ffffffffffffffffffffffffffffffffffffffff160217905550608082015181600401559050507f000000000000000000000000000000000000000000000000000000000000000073ffffffffffffffffffffffffffffffffffffffff166323b872dd60076000600354815260200190815260200160002060000160009054906101000a900473ffffffffffffffffffffffffffffffffffffffff1630876040518463ffffffff1660e01b8152600401611e5993929190612dbc565b600060405180830381600087803b158015611e7357600080fd5b505af1158015611e87573d6000803e3d6000fd5b505050508360076000600354815260200190815260200160002060010160009054906101000a900473ffffffffffffffffffffffffffffffffffffffff1673ffffffffffffffffffffffffffffffffffffffff166003547f2a40b778ad2a0e665f93ad917831cd03068b829743c6f6a350518360e2dd97df6007600060035481526020019081526020016000206002015460076000600354815260200190815260200160002060030160009054906101000a900473ffffffffffffffffffffffffffffffffffffffff16604051611f5f9291906134e5565b60405180910390a450505050565b60086020528160005260406000208181548110611f8957600080fd5b9060005260206000209060050201600091509150508060000160009054906101000a900473ffffffffffffffffffffffffffffffffffffffff16908060010154908060020160009054906101000a900473ffffffffffffffffffffffffffffffffffffffff16908060030154908060040160009054906101000a900460ff16905085565b606060086000838152602001908152602001600020805480602002602001604051908101604052809291908181526020016000905b8282101561214f57838290600052602060002090600502016040518060a00160405290816000820160009054906101000a900473ffffffffffffffffffffffffffffffffffffffff1673ffffffffffffffffffffffffffffffffffffffff1673ffffffffffffffffffffffffffffffffffffffff168152602001600182015481526020016002820160009054906101000a900473ffffffffffffffffffffffffffffffffffffffff1673ffffffffffffffffffffffffffffffffffffffff1673ffffffffffffffffffffffffffffffffffffffff168152602001600382015481526020016004820160009054906101000a900460ff16151515158152505081526020019060010190612042565b505050509050919050565b61216261220f565b600073ffffffffffffffffffffffffffffffffffffffff168173ffffffffffffffffffffffffffffffffffffffff16036121d45760006040517f1e4fbdf70000000000000000000000000000000000000000000000000000000081526004016121cb919061284e565b60405180910390fd5b6121dd8161241e565b50565b60006121ee8260000161257e565b9050919050565b6000612204836000018361258f565b60001c905092915050565b6122176125ba565b73ffffffffffffffffffffffffffffffffffffffff16612235610d94565b73ffffffffffffffffffffffffffffffffffffffff1614612294576122586125ba565b6040517f118cdaa700000000000000000000000000000000000000000000000000000000815260040161228b919061284e565b60405180910390fd5b565b600073ffffffffffffffffffffffffffffffffffffffff168173ffffffffffffffffffffffffffffffffffffffff1603612305576040517f08c379a00000000000000000000000000000000000000000000000000000000081526004016122fc9061386a565b60405180910390fd5b80600660006101000a81548173ffffffffffffffffffffffffffffffffffffffff021916908373ffffffffffffffffffffffffffffffffffffffff16021790555050565b6000612371836000018373ffffffffffffffffffffffffffffffffffffffff1660001b6125c2565b905092915050565b6002826123869190612fce565b600a6123929190613135565b81106123d3576040517f08c379a00000000000000000000000000000000000000000000000000000000081526004016123ca906138d6565b60405180910390fd5b81600481905550806005819055507f528d9479e9f9889a87a3c30c7f7ba537e5e59c4c85a37733b16e57c62df6130282826040516124129291906138f6565b60405180910390a15050565b60008060009054906101000a900473ffffffffffffffffffffffffffffffffffffffff169050816000806101000a81548173ffffffffffffffffffffffffffffffffffffffff021916908373ffffffffffffffffffffffffffffffffffffffff1602179055508173ffffffffffffffffffffffffffffffffffffffff168173ffffffffffffffffffffffffffffffffffffffff167f8be0079c531659141344cd1fd0a4f28419497f9722a3daafe3b4186f6b6457e060405160405180910390a35050565b600061250a836000018373ffffffffffffffffffffffffffffffffffffffff1660001b612632565b905092915050565b60008060076000848152602001908152602001600020905060006005540361253e576000915050612579565b600260045461254d9190612fce565b600a6125599190613135565b816002015460055461256b9190613180565b61257591906131f1565b9150505b919050565b600081600001805490509050919050565b60008260000182815481106125a7576125a6612c7e565b5b9060005260206000200154905092915050565b600033905090565b60006125ce8383612632565b61262757826000018290806001815401808255809150506001900390600052602060002001600090919091909150558260000180549050836001016000848152602001908152602001600020819055506001905061262c565b600090505b92915050565b600080836001016000848152602001908152602001600020541415905092915050565b600081519050919050565b600082825260208201905092915050565b6000819050602082019050919050565b600073ffffffffffffffffffffffffffffffffffffffff82169050919050565b60006126ac82612681565b9050919050565b6126bc816126a1565b82525050565b60006126ce83836126b3565b60208301905092915050565b6000602082019050919050565b60006126f282612655565b6126fc8185612660565b935061270783612671565b8060005b8381101561273857815161271f88826126c2565b975061272a836126da565b92505060018101905061270b565b5085935050505092915050565b6000602082019050818103600083015261275f81846126e7565b905092915050565b6000819050919050565b600061278c61278761278284612681565b612767565b612681565b9050919050565b600061279e82612771565b9050919050565b60006127b082612793565b9050919050565b6127c0816127a5565b82525050565b60006020820190506127db60008301846127b7565b92915050565b600080fd5b6127ef816126a1565b81146127fa57600080fd5b50565b60008135905061280c816127e6565b92915050565b600060208284031215612828576128276127e1565b5b6000612836848285016127fd565b91505092915050565b612848816126a1565b82525050565b6000602082019050612863600083018461283f565b92915050565b6000819050919050565b61287c81612869565b82525050565b60006020820190506128976000830184612873565b92915050565b6128a681612869565b81146128b157600080fd5b50565b6000813590506128c38161289d565b92915050565b6000602082840312156128df576128de6127e1565b5b60006128ed848285016128b4565b91505092915050565b6000806040838503121561290d5761290c6127e1565b5b600061291b858286016128b4565b925050602061292c858286016128b4565b9150509250929050565b60008115159050919050565b61294b81612936565b82525050565b60006020820190506129666000830184612942565b92915050565b600080600060608486031215612985576129846127e1565b5b6000612993868287016128b4565b93505060206129a4868287016127fd565b92505060406129b5868287016128b4565b9150509250925092565b600060a0820190506129d4600083018861283f565b6129e1602083018761283f565b6129ee6040830186612873565b6129fb606083018561283f565b612a086080830184612873565b9695505050505050565b60008060408385031215612a2957612a286127e1565b5b6000612a37858286016128b4565b9250506020612a48858286016127fd565b9150509250929050565b600080600060608486031215612a6b57612a6a6127e1565b5b6000612a79868287016128b4565b9350506020612a8a868287016128b4565b9250506040612a9b868287016127fd565b9150509250925092565b600060a082019050612aba600083018861283f565b612ac76020830187612873565b612ad4604083018661283f565b612ae16060830185612873565b612aee6080830184612942565b9695505050505050565b600081519050919050565b600082825260208201905092915050565b6000819050602082019050919050565b612b2d81612869565b82525050565b612b3c81612936565b82525050565b60a082016000820151612b5860008501826126b3565b506020820151612b6b6020850182612b24565b506040820151612b7e60408501826126b3565b506060820151612b916060850182612b24565b506080820151612ba46080850182612b33565b50505050565b6000612bb68383612b42565b60a08301905092915050565b6000602082019050919050565b6000612bda82612af8565b612be48185612b03565b9350612bef83612b14565b8060005b83811015612c20578151612c078882612baa565b9750612c1283612bc2565b925050600181019050612bf3565b5085935050505092915050565b60006020820190508181036000830152612c478184612bcf565b905092915050565b7f4e487b7100000000000000000000000000000000000000000000000000000000600052604160045260246000fd5b7f4e487b7100000000000000000000000000000000000000000000000000000000600052603260045260246000fd5b600082825260208201905092915050565b7f54686973204e465420686173206265656e20736f6c6420210000000000000000600082015250565b6000612cf4601883612cad565b9150612cff82612cbe565b602082019050919050565b60006020820190508181036000830152612d2381612ce7565b9050919050565b7f596f7520646f6e2774206861766520616e79207065726d697373696f6e20746f60008201527f2063616e63656c00000000000000000000000000000000000000000000000000602082015250565b6000612d86602783612cad565b9150612d9182612d2a565b604082019050919050565b60006020820190508181036000830152612db581612d79565b9050919050565b6000606082019050612dd1600083018661283f565b612dde602083018561283f565b612deb6040830184612873565b949350505050565b7f5468697320746f6b656e20697320416464726573732030000000000000000000600082015250565b6000612e29601783612cad565b9150612e3482612df3565b602082019050919050565b60006020820190508181036000830152612e5881612e1c565b9050919050565b7f5468697320746f6b656e20686173206265656e20737570706f7274656420616c60008201527f7265616479000000000000000000000000000000000000000000000000000000602082015250565b6000612ebb602583612cad565b9150612ec682612e5f565b604082019050919050565b60006020820190508181036000830152612eea81612eae565b9050919050565b600081519050612f00816127e6565b92915050565b600060208284031215612f1c57612f1b6127e1565b5b6000612f2a84828501612ef1565b91505092915050565b7f596f75206172656e2774206f776e657220210000000000000000000000000000600082015250565b6000612f69601283612cad565b9150612f7482612f33565b602082019050919050565b60006020820190508181036000830152612f9881612f5c565b9050919050565b7f4e487b7100000000000000000000000000000000000000000000000000000000600052601160045260246000fd5b6000612fd982612869565b9150612fe483612869565b9250828201905080821115612ffc57612ffb612f9f565b5b92915050565b60008160011c9050919050565b6000808291508390505b60018511156130595780860481111561303557613034612f9f565b5b60018516156130445780820291505b808102905061305285613002565b9450613019565b94509492505050565b600082613072576001905061312e565b81613080576000905061312e565b816001811461309657600281146130a0576130cf565b600191505061312e565b60ff8411156130b2576130b1612f9f565b5b8360020a9150848211156130c9576130c8612f9f565b5b5061312e565b5060208310610133831016604e8410600b84101617156131045782820a9050838111156130ff576130fe612f9f565b5b61312e565b613111848484600161300f565b9250905081840481111561312857613127612f9f565b5b81810290505b9392505050565b600061314082612869565b915061314b83612869565b92506131787fffffffffffffffffffffffffffffffffffffffffffffffffffffffffffffffff8484613062565b905092915050565b600061318b82612869565b915061319683612869565b92508282026131a481612869565b915082820484148315176131bb576131ba612f9f565b5b5092915050565b7f4e487b7100000000000000000000000000000000000000000000000000000000600052601260045260246000fd5b60006131fc82612869565b915061320783612869565b925082613217576132166131c2565b5b828204905092915050565b6000604082019050613237600083018561283f565b6132446020830184612873565b9392505050565b61325481612936565b811461325f57600080fd5b50565b6000815190506132718161324b565b92915050565b60006020828403121561328d5761328c6127e1565b5b600061329b84828501613262565b91505092915050565b60006132af82612869565b91506132ba83612869565b92508282039050818111156132d2576132d1612f9f565b5b92915050565b7f596f752063616e27742062757920796f7572204e465400000000000000000000600082015250565b600061330e601683612cad565b9150613319826132d8565b602082019050919050565b6000602082019050818103600083015261333d81613301565b9050919050565b7f54686973204e46542069736e277420617661696c61626c65206e6f7700000000600082015250565b600061337a601c83612cad565b915061338582613344565b602082019050919050565b600060208201905081810360008301526133a98161336d565b9050919050565b60006060820190506133c56000830186612873565b6133d2602083018561283f565b6133df6040830184612873565b949350505050565b7f4261642050726963652021000000000000000000000000000000000000000000600082015250565b600061341d600b83612cad565b9150613428826133e7565b602082019050919050565b6000602082019050818103600083015261344c81613410565b9050919050565b7f5468697320746f6b656e2069736e277420616c6c6f776564206f6e206d61726b60008201527f6574202100000000000000000000000000000000000000000000000000000000602082015250565b60006134af602483612cad565b91506134ba82613453565b604082019050919050565b600060208201905081810360008301526134de816134a2565b9050919050565b60006040820190506134fa6000830185612873565b613507602083018461283f565b9392505050565b7f43616e63656c2052656a65637465642021000000000000000000000000000000600082015250565b6000613544601183612cad565b915061354f8261350e565b602082019050919050565b6000602082019050818103600083015261357381613537565b9050919050565b600060608201905061358f600083018661283f565b61359c6020830185612873565b6135a96040830184612873565b949350505050565b7f7468697320746f6b656e2069736e277420737570706f72746564202100000000600082015250565b60006135e7601c83612cad565b91506135f2826135b1565b602082019050919050565b60006020820190508181036000830152613616816135da565b9050919050565b7f596f7520646f6e2774206861766520616e79207065726d697373696f6e20746f60008201527f2073656c6c2074686973204e4654202100000000000000000000000000000000602082015250565b6000613679603083612cad565b91506136848261361d565b604082019050919050565b600060208201905081810360008301526136a88161366c565b9050919050565b60006040820190506136c4600083018561283f565b6136d1602083018461283f565b9392505050565b7f4d61726b657420646f65736e27742068617320616e79207065726d697373696f60008201527f6e2066726f6d20796f7520746f206d616e6167652074686973204e4654000000602082015250565b6000613734603d83612cad565b915061373f826136d8565b604082019050919050565b6000602082019050818103600083015261376381613727565b9050919050565b7f5072696365206d7573742062652067726561746572207468616e203000000000600082015250565b60006137a0601c83612cad565b91506137ab8261376a565b602082019050919050565b600060208201905081810360008301526137cf81613793565b9050919050565b60006137e182612869565b91507fffffffffffffffffffffffffffffffffffffffffffffffffffffffffffffffff820361381357613812612f9f565b5b600182019050919050565b7f666565526563697069656e742069732061646472657373203020210000000000600082015250565b6000613854601b83612cad565b915061385f8261381e565b602082019050919050565b6000602082019050818103600083015261388381613847565b9050919050565b7f4261642066656500000000000000000000000000000000000000000000000000600082015250565b60006138c0600783612cad565b91506138cb8261388a565b602082019050919050565b600060208201905081810360008301526138ef816138b3565b9050919050565b600060408201905061390b6000830185612873565b6139186020830184612873565b939250505056fea264697066735822122088d0a546ac88b3646147547e7848d60e850faa89f86ba201d6554aa8334a93ae64736f6c634300081c0033",
  "linkReferences": {},
  "deployedLinkReferences": {}
}