{
  "_format": "hh-sol-artifact-1",
  "contractName": "Marketplace",
  "sourceName": "contracts/marketplace/Marketplace.sol",
  "abi": [
    {
      "inputs": [
        {
          "internalType": "uint256",
          "name": "_feeByDecimal",
          "type": "uint256"
        },
        {
          "internalType": "uint256",
          "name": "_feeRate",
          "type": "uint256"
        },
        {
          "internalType": "address",
          "name": "_feeRecipient",
          "type": "address"
        },
        {
          "internalType": "address",
          "name": "nftContract",
          "type": "address"
        }
      ],
      "stateMutability": "nonpayable",
      "type": "constructor"
    },
    {
      "inputs": [
        {
          "internalType": "address",
          "name": "owner",
          "type": "address"
        }
      ],
      "name": "OwnableInvalidOwner",
      "type": "error"
    },
    {
      "inputs": [
        {
          "internalType": "address",
          "name": "account",
          "type": "address"
        }
      ],
      "name": "OwnableUnauthorizedAccount",
      "type": "error"
    },
    {
      "anonymous": false,
      "inputs": [
        {
          "indexed": true,
          "internalType": "address",
          "name": "buyer",
          "type": "address"
        },
        {
          "indexed": false,
          "internalType": "uint256",
          "name": "price",
          "type": "uint256"
        },
        {
          "indexed": false,
          "internalType": "address",
          "name": "tokenTransfer",
          "type": "address"
        },
        {
          "indexed": true,
          "internalType": "uint256",
          "name": "tokenId",
          "type": "uint256"
        }
      ],
      "name": "AddOffer",
      "type": "event"
    },
    {
      "anonymous": false,
      "inputs": [
        {
          "indexed": false,
          "internalType": "address",
          "name": "buyer",
          "type": "address"
        },
        {
          "indexed": false,
          "internalType": "uint256",
          "name": "tokenId",
          "type": "uint256"
        },
        {
          "indexed": false,
          "internalType": "uint256",
          "name": "index",
          "type": "uint256"
        }
      ],
      "name": "CancelOffer",
      "type": "event"
    },
    {
      "anonymous": false,
      "inputs": [
        {
          "indexed": false,
          "internalType": "uint256",
          "name": "feeByDecimal",
          "type": "uint256"
        },
        {
          "indexed": false,
          "internalType": "uint256",
          "name": "feeRate",
          "type": "uint256"
        }
      ],
      "name": "FeeUpdated",
      "type": "event"
    },
    {
      "anonymous": false,
      "inputs": [
        {
          "indexed": true,
          "internalType": "address",
          "name": "buyer",
          "type": "address"
        },
        {
          "indexed": true,
          "internalType": "address",
          "name": "seller",
          "type": "address"
        },
        {
          "indexed": false,
          "internalType": "uint256",
          "name": "price",
          "type": "uint256"
        },
        {
          "indexed": true,
          "internalType": "uint256",
          "name": "tokenId",
          "type": "uint256"
        }
      ],
      "name": "MatchedOffer",
      "type": "event"
    },
    {
      "anonymous": false,
      "inputs": [
        {
          "indexed": true,
          "internalType": "uint256",
          "name": "orderId",
          "type": "uint256"
        },
        {
          "indexed": true,
          "internalType": "address",
          "name": "buyer",
          "type": "address"
        },
        {
          "indexed": false,
          "internalType": "address",
          "name": "seller",
          "type": "address"
        },
        {
          "indexed": false,
          "internalType": "uint256",
          "name": "price",
          "type": "uint256"
        },
        {
          "indexed": false,
          "internalType": "address",
          "name": "tokenTransfer",
          "type": "address"
        },
        {
          "indexed": true,
          "internalType": "uint256",
          "name": "tokenId",
          "type": "uint256"
        }
      ],
      "name": "OrderAdded",
      "type": "event"
    },
    {
      "anonymous": false,
      "inputs": [
        {
          "indexed": true,
          "internalType": "uint256",
          "name": "orderId",
          "type": "uint256"
        }
      ],
      "name": "OrderCancel",
      "type": "event"
    },
    {
      "anonymous": false,
      "inputs": [
        {
          "indexed": true,
          "internalType": "uint256",
          "name": "orderId",
          "type": "uint256"
        },
        {
          "indexed": true,
          "internalType": "address",
          "name": "buyer",
          "type": "address"
        },
        {
          "indexed": false,
          "internalType": "uint256",
          "name": "price",
          "type": "uint256"
        },
        {
          "indexed": false,
          "internalType": "address",
          "name": "tokenTransfer",
          "type": "address"
        },
        {
          "indexed": false,
          "internalType": "uint256",
          "name": "tokenId",
          "type": "uint256"
        },
        {
          "indexed": true,
          "internalType": "address",
          "name": "seller",
          "type": "address"
        }
      ],
      "name": "OrderMatched",
      "type": "event"
    },
    {
      "anonymous": false,
      "inputs": [
        {
          "indexed": true,
          "internalType": "address",
          "name": "previousOwner",
          "type": "address"
        },
        {
          "indexed": true,
          "internalType": "address",
          "name": "newOwner",
          "type": "address"
        }
      ],
      "name": "OwnershipTransferred",
      "type": "event"
    },
    {
      "inputs": [],
      "name": "NFTContract",
      "outputs": [
        {
          "internalType": "contract IERC721",
          "name": "",
          "type": "address"
        }
      ],
      "stateMutability": "view",
      "type": "function"
    },
    {
      "inputs": [
        {
          "internalType": "address",
          "name": "fee",
          "type": "address"
        }
      ],
      "name": "_updateFeeRecipient",
      "outputs": [],
      "stateMutability": "nonpayable",
      "type": "function"
    },
    {
      "inputs": [
        {
          "internalType": "uint256",
          "name": "tokenId",
          "type": "uint256"
        },
        {
          "internalType": "uint256",
          "name": "index",
          "type": "uint256"
        }
      ],
      "name": "acceptOffer",
      "outputs": [
        {
          "internalType": "bool",
          "name": "",
          "type": "bool"
        }
      ],
      "stateMutability": "nonpayable",
      "type": "function"
    },
    {
      "inputs": [
        {
          "internalType": "address",
          "name": "newToken",
          "type": "address"
        }
      ],
      "name": "addNewToken",
      "outputs": [],
      "stateMutability": "nonpayable",
      "type": "function"
    },
    {
      "inputs": [
        {
          "internalType": "uint256",
          "name": "tokenId",
          "type": "uint256"
        },
        {
          "internalType": "uint256",
          "name": "price",
          "type": "uint256"
        },
        {
          "internalType": "address",
          "name": "token",
          "type": "address"
        }
      ],
      "name": "addOrder",
      "outputs": [],
      "stateMutability": "nonpayable",
      "type": "function"
    },
    {
      "inputs": [
        {
          "internalType": "uint256",
          "name": "tokenId",
          "type": "uint256"
        },
        {
          "internalType": "uint256",
          "name": "index",
          "type": "uint256"
        }
      ],
      "name": "cancelOffer",
      "outputs": [
        {
          "internalType": "bool",
          "name": "",
          "type": "bool"
        }
      ],
      "stateMutability": "nonpayable",
      "type": "function"
    },
    {
      "inputs": [
        {
          "internalType": "uint256",
          "name": "orderId",
          "type": "uint256"
        }
      ],
      "name": "cancelOrder",
      "outputs": [],
      "stateMutability": "nonpayable",
      "type": "function"
    },
    {
      "inputs": [
        {
          "internalType": "uint256",
          "name": "_price",
          "type": "uint256"
        },
        {
          "internalType": "address",
          "name": "_token",
          "type": "address"
        },
        {
          "internalType": "uint256",
          "name": "tokenId",
          "type": "uint256"
        }
      ],
      "name": "createOffer",
      "outputs": [],
      "stateMutability": "nonpayable",
      "type": "function"
    },
    {
      "inputs": [
        {
          "internalType": "uint256",
          "name": "orderId",
          "type": "uint256"
        }
      ],
      "name": "executeOrder",
      "outputs": [],
      "stateMutability": "nonpayable",
      "type": "function"
    },
    {
      "inputs": [],
      "name": "feeByDecimal",
      "outputs": [
        {
          "internalType": "uint256",
          "name": "",
          "type": "uint256"
        }
      ],
      "stateMutability": "view",
      "type": "function"
    },
    {
      "inputs": [],
      "name": "feeRate",
      "outputs": [
        {
          "internalType": "uint256",
          "name": "",
          "type": "uint256"
        }
      ],
      "stateMutability": "view",
      "type": "function"
    },
    {
      "inputs": [],
      "name": "feeRecipient",
      "outputs": [
        {
          "internalType": "address",
          "name": "",
          "type": "address"
        }
      ],
      "stateMutability": "view",
      "type": "function"
    },
    {
      "inputs": [
        {
          "internalType": "uint256",
          "name": "tokenId",
          "type": "uint256"
        }
      ],
      "name": "getOffers",
      "outputs": [
        {
          "components": [
            {
              "internalType": "address",
              "name": "buyer",
              "type": "address"
            },
            {
              "internalType": "uint256",
              "name": "price",
              "type": "uint256"
            },
            {
              "internalType": "address",
              "name": "tokenTransfer",
              "type": "address"
            },
            {
              "internalType": "uint256",
              "name": "tokenId",
              "type": "uint256"
            },
            {
              "internalType": "bool",
              "name": "active",
              "type": "bool"
            }
          ],
          "internalType": "struct Marketplace.OfferOrder[]",
          "name": "",
          "type": "tuple[]"
        }
      ],
      "stateMutability": "view",
      "type": "function"
    },
    {
      "inputs": [],
      "name": "getSupportTokenList",
      "outputs": [
        {
          "internalType": "address[]",
          "name": "",
          "type": "address[]"
        }
      ],
      "stateMutability": "view",
      "type": "function"
    },
    {
      "inputs": [
        {
          "internalType": "uint256",
          "name": "orderId",
          "type": "uint256"
        },
        {
          "internalType": "address",
          "name": "seller",
          "type": "address"
        }
      ],
      "name": "isSeller",
      "outputs": [
        {
          "internalType": "bool",
          "name": "",
          "type": "bool"
        }
      ],
      "stateMutability": "view",
      "type": "function"
    },
    {
      "inputs": [
        {
          "internalType": "address",
          "name": "token",
          "type": "address"
        }
      ],
      "name": "isTokenSupported",
      "outputs": [
        {
          "internalType": "bool",
          "name": "",
          "type": "bool"
        }
      ],
      "stateMutability": "view",
      "type": "function"
    },
    {
      "inputs": [
        {
          "internalType": "uint256",
          "name": "",
          "type": "uint256"
        },
        {
          "internalType": "uint256",
          "name": "",
          "type": "uint256"
        }
      ],
      "name": "offerOrder",
      "outputs": [
        {
          "internalType": "address",
          "name": "buyer",
          "type": "address"
        },
        {
          "internalType": "uint256",
          "name": "price",
          "type": "uint256"
        },
        {
          "internalType": "address",
          "name": "tokenTransfer",
          "type": "address"
        },
        {
          "internalType": "uint256",
          "name": "tokenId",
          "type": "uint256"
        },
        {
          "internalType": "bool",
          "name": "active",
          "type": "bool"
        }
      ],
      "stateMutability": "view",
      "type": "function"
    },
    {
      "inputs": [
        {
          "internalType": "uint256",
          "name": "",
          "type": "uint256"
        }
      ],
      "name": "orders",
      "outputs": [
        {
          "internalType": "address",
          "name": "sender",
          "type": "address"
        },
        {
          "internalType": "address",
          "name": "buyer",
          "type": "address"
        },
        {
          "internalType": "uint256",
          "name": "price",
          "type": "uint256"
        },
        {
          "internalType": "address",
          "name": "tokenTransfer",
          "type": "address"
        },
        {
          "internalType": "uint256",
          "name": "tokenId",
          "type": "uint256"
        },
        {
          "internalType": "bool",
          "name": "isMatched",
          "type": "bool"
        }
      ],
      "stateMutability": "view",
      "type": "function"
    },
    {
      "inputs": [],
      "name": "owner",
      "outputs": [
        {
          "internalType": "address",
          "name": "",
          "type": "address"
        }
      ],
      "stateMutability": "view",
      "type": "function"
    },
    {
      "inputs": [],
      "name": "renounceOwnership",
      "outputs": [],
      "stateMutability": "nonpayable",
      "type": "function"
    },
    {
      "inputs": [
        {
          "internalType": "address",
          "name": "newOwner",
          "type": "address"
        }
      ],
      "name": "transferOwnership",
      "outputs": [],
      "stateMutability": "nonpayable",
      "type": "function"
    },
    {
      "inputs": [
        {
          "internalType": "uint256",
          "name": "_feeByDecimal",
          "type": "uint256"
        },
        {
          "internalType": "uint256",
          "name": "_feeRate",
          "type": "uint256"
        }
      ],
      "name": "updateFeeRate",
      "outputs": [],
      "stateMutability": "nonpayable",
      "type": "function"
    }
  ],
  "bytecode": "0x60a0604052600060035534801561001557600080fd5b5060405161433d38038061433d833981810160405281019061003791906104a9565b33600073ffffffffffffffffffffffffffffffffffffffff168173ffffffffffffffffffffffffffffffffffffffff16036100aa5760006040517f1e4fbdf70000000000000000000000000000000000000000000000000000000081526004016100a1919061051f565b60405180910390fd5b6100b9816101f460201b60201c565b50600073ffffffffffffffffffffffffffffffffffffffff168173ffffffffffffffffffffffffffffffffffffffff1603610129576040517f08c379a0000000000000000000000000000000000000000000000000000000008152600401610120906105bd565b60405180910390fd5b600073ffffffffffffffffffffffffffffffffffffffff168273ffffffffffffffffffffffffffffffffffffffff1603610198576040517f08c379a000000000000000000000000000000000000000000000000000000000815260040161018f90610629565b60405180910390fd5b8073ffffffffffffffffffffffffffffffffffffffff1660808173ffffffffffffffffffffffffffffffffffffffff16815250506101dc84846102b860201b60201c565b6101eb8261035d60201b60201c565b505050506108ce565b60008060009054906101000a900473ffffffffffffffffffffffffffffffffffffffff169050816000806101000a81548173ffffffffffffffffffffffffffffffffffffffff021916908373ffffffffffffffffffffffffffffffffffffffff1602179055508173ffffffffffffffffffffffffffffffffffffffff168173ffffffffffffffffffffffffffffffffffffffff167f8be0079c531659141344cd1fd0a4f28419497f9722a3daafe3b4186f6b6457e060405160405180910390a35050565b6002826102c59190610678565b600a6102d191906107df565b8110610312576040517f08c379a000000000000000000000000000000000000000000000000000000000815260040161030990610876565b60405180910390fd5b81600481905550806005819055507f528d9479e9f9889a87a3c30c7f7ba537e5e59c4c85a37733b16e57c62df6130282826040516103519291906108a5565b60405180910390a15050565b600073ffffffffffffffffffffffffffffffffffffffff168173ffffffffffffffffffffffffffffffffffffffff16036103cc576040517f08c379a00000000000000000000000000000000000000000000000000000000081526004016103c390610629565b60405180910390fd5b80600660006101000a81548173ffffffffffffffffffffffffffffffffffffffff021916908373ffffffffffffffffffffffffffffffffffffffff16021790555050565b600080fd5b6000819050919050565b61042881610415565b811461043357600080fd5b50565b6000815190506104458161041f565b92915050565b600073ffffffffffffffffffffffffffffffffffffffff82169050919050565b60006104768261044b565b9050919050565b6104868161046b565b811461049157600080fd5b50565b6000815190506104a38161047d565b92915050565b600080600080608085870312156104c3576104c2610410565b5b60006104d187828801610436565b94505060206104e287828801610436565b93505060406104f387828801610494565b925050606061050487828801610494565b91505092959194509250565b6105198161046b565b82525050565b60006020820190506105346000830184610510565b92915050565b600082825260208201905092915050565b7f43616e2774206465706c6f7920636f6e7472616374206164647265737320302060008201527f2121212121000000000000000000000000000000000000000000000000000000602082015250565b60006105a760258361053a565b91506105b28261054b565b604082019050919050565b600060208201905081810360008301526105d68161059a565b9050919050565b7f666565526563697069656e742069732061646472657373203020210000000000600082015250565b6000610613601b8361053a565b915061061e826105dd565b602082019050919050565b6000602082019050818103600083015261064281610606565b9050919050565b7f4e487b7100000000000000000000000000000000000000000000000000000000600052601160045260246000fd5b600061068382610415565b915061068e83610415565b92508282019050808211156106a6576106a5610649565b5b92915050565b60008160011c9050919050565b6000808291508390505b6001851115610703578086048111156106df576106de610649565b5b60018516156106ee5780820291505b80810290506106fc856106ac565b94506106c3565b94509492505050565b60008261071c57600190506107d8565b8161072a57600090506107d8565b8160018114610740576002811461074a57610779565b60019150506107d8565b60ff84111561075c5761075b610649565b5b8360020a91508482111561077357610772610649565b5b506107d8565b5060208310610133831016604e8410600b84101617156107ae5782820a9050838111156107a9576107a8610649565b5b6107d8565b6107bb84848460016106b9565b925090508184048111156107d2576107d1610649565b5b81810290505b9392505050565b60006107ea82610415565b91506107f583610415565b92506108227fffffffffffffffffffffffffffffffffffffffffffffffffffffffffffffffff848461070c565b905092915050565b7f4261642066656500000000000000000000000000000000000000000000000000600082015250565b600061086060078361053a565b915061086b8261082a565b602082019050919050565b6000602082019050818103600083015261088f81610853565b9050919050565b61089f81610415565b82525050565b60006040820190506108ba6000830185610896565b6108c76020830184610896565b9392505050565b608051613a1c6109216000396000818161051f015281816106bf0152818161094901528181610c3c0152818161116b015281816119b601528181611abd01528181611b780152611e460152613a1c6000f3fe608060405234801561001057600080fd5b50600436106101425760003560e01c80638da5cb5b116100b8578063be91dc0f1161007c578063be91dc0f14610342578063d45557cc14610372578063d5d44330146103a2578063d927af11146103be578063dfa49e6f146103f2578063f2fde38b1461042257610142565b80638da5cb5b1461029957806394f61134146102b7578063978bbdb9146102d35780639b59d95b146102f1578063a85c38ef1461030d57610142565b8063514fcac71161010a578063514fcac7146101db57806364db444a146101f75780636757ef9c14610213578063715018a61461022f57806375151b631461023957806381257bd51461026957610142565b80631a95c1fb1461014757806331c2273b146101655780634165489214610183578063469048401461019f5780634f75b075146101bd575b600080fd5b61014f61043e565b60405161015c91906127c7565b60405180910390f35b61016d61051d565b60405161017a9190612848565b60405180910390f35b61019d60048036038101906101989190612894565b610541565b005b6101a7610555565b6040516101b491906128d0565b60405180910390f35b6101c561057b565b6040516101d29190612904565b60405180910390f35b6101f560048036038101906101f0919061294b565b610581565b005b610211600480360381019061020c9190612894565b610830565b005b61022d60048036038101906102289190612978565b6108fd565b005b610237610913565b005b610253600480360381019061024e9190612894565b610927565b60405161026091906129d3565b60405180910390f35b610283600480360381019061027e9190612978565b610944565b60405161029091906129d3565b60405180910390f35b6102a1610da9565b6040516102ae91906128d0565b60405180910390f35b6102d160048036038101906102cc919061294b565b610dd2565b005b6102db611343565b6040516102e89190612904565b60405180910390f35b61030b600480360381019061030691906129ee565b611349565b005b6103276004803603810190610322919061294b565b611601565b60405161033996959493929190612a41565b60405180910390f35b61035c60048036038101906103579190612aa2565b6116aa565b60405161036991906129d3565b60405180910390f35b61038c60048036038101906103879190612978565b611729565b60405161039991906129d3565b60405180910390f35b6103bc60048036038101906103b79190612ae2565b611954565b005b6103d860048036038101906103d39190612978565b611fef565b6040516103e9959493929190612b35565b60405180910390f35b61040c6004803603810190610407919061294b565b61208f565b6040516104199190612cbd565b60405180910390f35b61043c60048036038101906104379190612894565b6121dc565b005b6060600061044c6001612262565b905060008167ffffffffffffffff81111561046a57610469612cdf565b5b6040519080825280602002602001820160405280156104985781602001602082028036833780820191505090505b50905060005b82811015610514576104ba81600161227790919063ffffffff16565b8282815181106104cd576104cc612d0e565b5b602002602001019073ffffffffffffffffffffffffffffffffffffffff16908173ffffffffffffffffffffffffffffffffffffffff1681525050808060010191505061049e565b50809250505090565b7f000000000000000000000000000000000000000000000000000000000000000081565b610549612291565b61055281612318565b50565b600660009054906101000a900473ffffffffffffffffffffffffffffffffffffffff1681565b60045481565b6000600760008381526020019081526020016000209050600073ffffffffffffffffffffffffffffffffffffffff168160010160009054906101000a900473ffffffffffffffffffffffffffffffffffffffff1673ffffffffffffffffffffffffffffffffffffffff161461062b576040517f08c379a000000000000000000000000000000000000000000000000000000000815260040161062290612d9a565b60405180910390fd5b3373ffffffffffffffffffffffffffffffffffffffff168160000160009054906101000a900473ffffffffffffffffffffffffffffffffffffffff1673ffffffffffffffffffffffffffffffffffffffff16146106bd576040517f08c379a00000000000000000000000000000000000000000000000000000000081526004016106b490612e2c565b60405180910390fd5b7f000000000000000000000000000000000000000000000000000000000000000073ffffffffffffffffffffffffffffffffffffffff166323b872dd303384600401546040518463ffffffff1660e01b815260040161071e93929190612e4c565b600060405180830381600087803b15801561073857600080fd5b505af115801561074c573d6000803e3d6000fd5b5050505060076000838152602001908152602001600020600080820160006101000a81549073ffffffffffffffffffffffffffffffffffffffff02191690556001820160006101000a81549073ffffffffffffffffffffffffffffffffffffffff021916905560028201600090556003820160006101000a81549073ffffffffffffffffffffffffffffffffffffffff021916905560048201600090556005820160006101000a81549060ff02191690555050817fab15e9f4d651ec7d8276a842911d7028683655a4e1d043a54a623c2d36f3b18f60405160405180910390a25050565b610838612291565b600073ffffffffffffffffffffffffffffffffffffffff168173ffffffffffffffffffffffffffffffffffffffff16036108a7576040517f08c379a000000000000000000000000000000000000000000000000000000000815260040161089e90612ecf565b60405180910390fd5b6108bb8160016123cb90919063ffffffff16565b6108fa576040517f08c379a00000000000000000000000000000000000000000000000000000000081526004016108f190612f61565b60405180910390fd5b50565b610905612291565b61090f82826123fb565b5050565b61091b612291565b61092560006124a0565b565b600061093d82600161256490919063ffffffff16565b9050919050565b6000807f000000000000000000000000000000000000000000000000000000000000000073ffffffffffffffffffffffffffffffffffffffff16636352211e856040518263ffffffff1660e01b81526004016109a09190612904565b602060405180830381865afa1580156109bd573d6000803e3d6000fd5b505050506040513d601f19601f820116820180604052508101906109e19190612f96565b90508073ffffffffffffffffffffffffffffffffffffffff163373ffffffffffffffffffffffffffffffffffffffff1614610a51576040517f08c379a0000000000000000000000000000000000000000000000000000000008152600401610a489061300f565b60405180910390fd5b6000600860008681526020019081526020016000208481548110610a7857610a77612d0e565b5b9060005260206000209060050201905060006002600454610a99919061305e565b600a610aa591906131c5565b6005548360010154610ab79190613210565b610ac19190613281565b90508160020160009054906101000a900473ffffffffffffffffffffffffffffffffffffffff1673ffffffffffffffffffffffffffffffffffffffff1663a9059cbb600660009054906101000a900473ffffffffffffffffffffffffffffffffffffffff16836040518363ffffffff1660e01b8152600401610b449291906132b2565b6020604051808303816000875af1158015610b63573d6000803e3d6000fd5b505050506040513d601f19601f82011682018060405250810190610b879190613307565b508160020160009054906101000a900473ffffffffffffffffffffffffffffffffffffffff1673ffffffffffffffffffffffffffffffffffffffff1663a9059cbb33838560010154610bd99190613334565b6040518363ffffffff1660e01b8152600401610bf69291906132b2565b6020604051808303816000875af1158015610c15573d6000803e3d6000fd5b505050506040513d601f19601f82011682018060405250810190610c399190613307565b507f000000000000000000000000000000000000000000000000000000000000000073ffffffffffffffffffffffffffffffffffffffff166323b872dd338460000160009054906101000a900473ffffffffffffffffffffffffffffffffffffffff16896040518463ffffffff1660e01b8152600401610cbb93929190612e4c565b600060405180830381600087803b158015610cd557600080fd5b505af1158015610ce9573d6000803e3d6000fd5b5050505060008260040160006101000a81548160ff02191690831515021790555081600301543373ffffffffffffffffffffffffffffffffffffffff168360000160009054906101000a900473ffffffffffffffffffffffffffffffffffffffff1673ffffffffffffffffffffffffffffffffffffffff167fdb6b2d338d2cc7a41e8e6ed5503d08b1c8663f8121ead31bf90217b35b476c7e8560010154604051610d949190612904565b60405180910390a46001935050505092915050565b60008060009054906101000a900473ffffffffffffffffffffffffffffffffffffffff16905090565b60011515610de082336116aa565b151503610e22576040517f08c379a0000000000000000000000000000000000000000000000000000000008152600401610e19906133b4565b60405180910390fd5b6000600760008381526020019081526020016000206002015411610e7b576040517f08c379a0000000000000000000000000000000000000000000000000000000008152600401610e7290613420565b60405180910390fd5b600073ffffffffffffffffffffffffffffffffffffffff166007600083815260200190815260200160002060010160009054906101000a900473ffffffffffffffffffffffffffffffffffffffff1673ffffffffffffffffffffffffffffffffffffffff1614610f20576040517f08c379a0000000000000000000000000000000000000000000000000000000008152600401610f1790612d9a565b60405180910390fd5b336007600083815260200190815260200160002060010160006101000a81548173ffffffffffffffffffffffffffffffffffffffff021916908373ffffffffffffffffffffffffffffffffffffffff1602179055506000610f8082612594565b90506007600083815260200190815260200160002060030160009054906101000a900473ffffffffffffffffffffffffffffffffffffffff1673ffffffffffffffffffffffffffffffffffffffff166323b872dd33600660009054906101000a900473ffffffffffffffffffffffffffffffffffffffff16846040518463ffffffff1660e01b815260040161101793929190612e4c565b6020604051808303816000875af1158015611036573d6000803e3d6000fd5b505050506040513d601f19601f8201168201806040525081019061105a9190613307565b506007600083815260200190815260200160002060030160009054906101000a900473ffffffffffffffffffffffffffffffffffffffff1673ffffffffffffffffffffffffffffffffffffffff166323b872dd336007600086815260200190815260200160002060000160009054906101000a900473ffffffffffffffffffffffffffffffffffffffff168460076000888152602001908152602001600020600201546111079190613334565b6040518463ffffffff1660e01b815260040161112593929190612e4c565b6020604051808303816000875af1158015611144573d6000803e3d6000fd5b505050506040513d601f19601f820116820180604052508101906111689190613307565b507f000000000000000000000000000000000000000000000000000000000000000073ffffffffffffffffffffffffffffffffffffffff166323b872dd303360076000878152602001908152602001600020600401546040518463ffffffff1660e01b81526004016111dc93929190612e4c565b600060405180830381600087803b1580156111f657600080fd5b505af115801561120a573d6000803e3d6000fd5b5050505060016007600084815260200190815260200160002060050160006101000a81548160ff0219169083151502179055506007600083815260200190815260200160002060000160009054906101000a900473ffffffffffffffffffffffffffffffffffffffff1673ffffffffffffffffffffffffffffffffffffffff163373ffffffffffffffffffffffffffffffffffffffff16837f216f7cf4872bb363d50b4291225c4fe64948a32031171535e10655f86284476760076000878152602001908152602001600020600201546007600088815260200190815260200160002060030160009054906101000a900473ffffffffffffffffffffffffffffffffffffffff16600760008981526020019081526020016000206004015460405161133793929190613440565b60405180910390a45050565b60055481565b6000831161138c576040517f08c379a0000000000000000000000000000000000000000000000000000000008152600401611383906134c3565b60405180910390fd5b61139582610927565b6113d4576040517f08c379a00000000000000000000000000000000000000000000000000000000081526004016113cb90613555565b60405180910390fd5b8173ffffffffffffffffffffffffffffffffffffffff166323b872dd3330866040518463ffffffff1660e01b815260040161141193929190612e4c565b6020604051808303816000875af1158015611430573d6000803e3d6000fd5b505050506040513d601f19601f820116820180604052508101906114549190613307565b50600860008281526020019081526020016000206040518060a001604052803373ffffffffffffffffffffffffffffffffffffffff1681526020018581526020018473ffffffffffffffffffffffffffffffffffffffff16815260200183815260200160011515815250908060018154018082558091505060019003906000526020600020906005020160009091909190915060008201518160000160006101000a81548173ffffffffffffffffffffffffffffffffffffffff021916908373ffffffffffffffffffffffffffffffffffffffff1602179055506020820151816001015560408201518160020160006101000a81548173ffffffffffffffffffffffffffffffffffffffff021916908373ffffffffffffffffffffffffffffffffffffffff1602179055506060820151816003015560808201518160040160006101000a81548160ff0219169083151502179055505050803373ffffffffffffffffffffffffffffffffffffffff167fafd6a2d5177a780973c0a72d3efe7da5070fdaa401887ef746841249ce931e6b85856040516115f4929190613575565b60405180910390a3505050565b60076020528060005260406000206000915090508060000160009054906101000a900473ffffffffffffffffffffffffffffffffffffffff16908060010160009054906101000a900473ffffffffffffffffffffffffffffffffffffffff16908060020154908060030160009054906101000a900473ffffffffffffffffffffffffffffffffffffffff16908060040154908060050160009054906101000a900460ff16905086565b60008173ffffffffffffffffffffffffffffffffffffffff166007600085815260200190815260200160002060000160009054906101000a900473ffffffffffffffffffffffffffffffffffffffff1673ffffffffffffffffffffffffffffffffffffffff160361171e5760019050611723565b600090505b92915050565b60006008600084815260200190815260200160002082815481106117505761174f612d0e565b5b906000526020600020906005020160000160009054906101000a900473ffffffffffffffffffffffffffffffffffffffff1673ffffffffffffffffffffffffffffffffffffffff163373ffffffffffffffffffffffffffffffffffffffff16146117ef576040517f08c379a00000000000000000000000000000000000000000000000000000000081526004016117e6906135ea565b60405180910390fd5b600060086000858152602001908152602001600020838154811061181657611815612d0e565b5b9060005260206000209060050201905060008160040160006101000a81548160ff0219169083151502179055508060020160009054906101000a900473ffffffffffffffffffffffffffffffffffffffff1673ffffffffffffffffffffffffffffffffffffffff1663a9059cbb3383600101546040518363ffffffff1660e01b81526004016118a69291906132b2565b6020604051808303816000875af11580156118c5573d6000803e3d6000fd5b505050506040513d601f19601f820116820180604052508101906118e99190613307565b507fb7375e8ecabc1d6862aa4beb6a0f185c9a4298158181c62c175d99c3df0b1d468160000160009054906101000a900473ffffffffffffffffffffffffffffffffffffffff1685856040516119419392919061360a565b60405180910390a1600191505092915050565b8061195e81610927565b61199d576040517f08c379a00000000000000000000000000000000000000000000000000000000081526004016119949061368d565b60405180910390fd5b3373ffffffffffffffffffffffffffffffffffffffff167f000000000000000000000000000000000000000000000000000000000000000073ffffffffffffffffffffffffffffffffffffffff16636352211e866040518263ffffffff1660e01b8152600401611a0d9190612904565b602060405180830381865afa158015611a2a573d6000803e3d6000fd5b505050506040513d601f19601f82011682018060405250810190611a4e9190612f96565b73ffffffffffffffffffffffffffffffffffffffff1614611aa4576040517f08c379a0000000000000000000000000000000000000000000000000000000008152600401611a9b9061371f565b60405180910390fd5b3073ffffffffffffffffffffffffffffffffffffffff167f000000000000000000000000000000000000000000000000000000000000000073ffffffffffffffffffffffffffffffffffffffff1663081812fc866040518263ffffffff1660e01b8152600401611b149190612904565b602060405180830381865afa158015611b31573d6000803e3d6000fd5b505050506040513d601f19601f82011682018060405250810190611b559190612f96565b73ffffffffffffffffffffffffffffffffffffffff161480611c165750600115157f000000000000000000000000000000000000000000000000000000000000000073ffffffffffffffffffffffffffffffffffffffff1663e985e9c533306040518363ffffffff1660e01b8152600401611bd192919061373f565b602060405180830381865afa158015611bee573d6000803e3d6000fd5b505050506040513d601f19601f82011682018060405250810190611c129190613307565b1515145b611c55576040517f08c379a0000000000000000000000000000000000000000000000000000000008152600401611c4c906137da565b60405180910390fd5b60008311611c98576040517f08c379a0000000000000000000000000000000000000000000000000000000008152600401611c8f90613846565b60405180910390fd5b60036000815480929190611cab90613866565b91905055506040518060c001604052803373ffffffffffffffffffffffffffffffffffffffff168152602001600073ffffffffffffffffffffffffffffffffffffffff1681526020018481526020018373ffffffffffffffffffffffffffffffffffffffff1681526020018581526020016000151581525060076000600354815260200190815260200160002060008201518160000160006101000a81548173ffffffffffffffffffffffffffffffffffffffff021916908373ffffffffffffffffffffffffffffffffffffffff16021790555060208201518160010160006101000a81548173ffffffffffffffffffffffffffffffffffffffff021916908373ffffffffffffffffffffffffffffffffffffffff1602179055506040820151816002015560608201518160030160006101000a81548173ffffffffffffffffffffffffffffffffffffffff021916908373ffffffffffffffffffffffffffffffffffffffff1602179055506080820151816004015560a08201518160050160006101000a81548160ff0219169083151502179055509050507f000000000000000000000000000000000000000000000000000000000000000073ffffffffffffffffffffffffffffffffffffffff166323b872dd60076000600354815260200190815260200160002060000160009054906101000a900473ffffffffffffffffffffffffffffffffffffffff1630876040518463ffffffff1660e01b8152600401611ed993929190612e4c565b600060405180830381600087803b158015611ef357600080fd5b505af1158015611f07573d6000803e3d6000fd5b505050508360076000600354815260200190815260200160002060010160009054906101000a900473ffffffffffffffffffffffffffffffffffffffff1673ffffffffffffffffffffffffffffffffffffffff166003547ff9ef093bba73be0c25da467d4175b217229998c0706650c7f8e664686fa6697d336007600060035481526020019081526020016000206002015460076000600354815260200190815260200160002060030160009054906101000a900473ffffffffffffffffffffffffffffffffffffffff16604051611fe1939291906138ae565b60405180910390a450505050565b6008602052816000526040600020818154811061200b57600080fd5b9060005260206000209060050201600091509150508060000160009054906101000a900473ffffffffffffffffffffffffffffffffffffffff16908060010154908060020160009054906101000a900473ffffffffffffffffffffffffffffffffffffffff16908060030154908060040160009054906101000a900460ff16905085565b606060086000838152602001908152602001600020805480602002602001604051908101604052809291908181526020016000905b828210156121d157838290600052602060002090600502016040518060a00160405290816000820160009054906101000a900473ffffffffffffffffffffffffffffffffffffffff1673ffffffffffffffffffffffffffffffffffffffff1673ffffffffffffffffffffffffffffffffffffffff168152602001600182015481526020016002820160009054906101000a900473ffffffffffffffffffffffffffffffffffffffff1673ffffffffffffffffffffffffffffffffffffffff1673ffffffffffffffffffffffffffffffffffffffff168152602001600382015481526020016004820160009054906101000a900460ff161515151581525050815260200190600101906120c4565b505050509050919050565b6121e4612291565b600073ffffffffffffffffffffffffffffffffffffffff168173ffffffffffffffffffffffffffffffffffffffff16036122565760006040517f1e4fbdf700000000000000000000000000000000000000000000000000000000815260040161224d91906128d0565b60405180910390fd5b61225f816124a0565b50565b600061227082600001612600565b9050919050565b60006122868360000183612611565b60001c905092915050565b61229961263c565b73ffffffffffffffffffffffffffffffffffffffff166122b7610da9565b73ffffffffffffffffffffffffffffffffffffffff1614612316576122da61263c565b6040517f118cdaa700000000000000000000000000000000000000000000000000000000815260040161230d91906128d0565b60405180910390fd5b565b600073ffffffffffffffffffffffffffffffffffffffff168173ffffffffffffffffffffffffffffffffffffffff1603612387576040517f08c379a000000000000000000000000000000000000000000000000000000000815260040161237e90613931565b60405180910390fd5b80600660006101000a81548173ffffffffffffffffffffffffffffffffffffffff021916908373ffffffffffffffffffffffffffffffffffffffff16021790555050565b60006123f3836000018373ffffffffffffffffffffffffffffffffffffffff1660001b612644565b905092915050565b600282612408919061305e565b600a61241491906131c5565b8110612455576040517f08c379a000000000000000000000000000000000000000000000000000000000815260040161244c9061399d565b60405180910390fd5b81600481905550806005819055507f528d9479e9f9889a87a3c30c7f7ba537e5e59c4c85a37733b16e57c62df6130282826040516124949291906139bd565b60405180910390a15050565b60008060009054906101000a900473ffffffffffffffffffffffffffffffffffffffff169050816000806101000a81548173ffffffffffffffffffffffffffffffffffffffff021916908373ffffffffffffffffffffffffffffffffffffffff1602179055508173ffffffffffffffffffffffffffffffffffffffff168173ffffffffffffffffffffffffffffffffffffffff167f8be0079c531659141344cd1fd0a4f28419497f9722a3daafe3b4186f6b6457e060405160405180910390a35050565b600061258c836000018373ffffffffffffffffffffffffffffffffffffffff1660001b6126b4565b905092915050565b6000806007600084815260200190815260200160002090506000600554036125c05760009150506125fb565b60026004546125cf919061305e565b600a6125db91906131c5565b81600201546005546125ed9190613210565b6125f79190613281565b9150505b919050565b600081600001805490509050919050565b600082600001828154811061262957612628612d0e565b5b9060005260206000200154905092915050565b600033905090565b600061265083836126b4565b6126a95782600001829080600181540180825580915050600190039060005260206000200160009091909190915055826000018054905083600101600084815260200190815260200160002081905550600190506126ae565b600090505b92915050565b600080836001016000848152602001908152602001600020541415905092915050565b600081519050919050565b600082825260208201905092915050565b6000819050602082019050919050565b600073ffffffffffffffffffffffffffffffffffffffff82169050919050565b600061272e82612703565b9050919050565b61273e81612723565b82525050565b60006127508383612735565b60208301905092915050565b6000602082019050919050565b6000612774826126d7565b61277e81856126e2565b9350612789836126f3565b8060005b838110156127ba5781516127a18882612744565b97506127ac8361275c565b92505060018101905061278d565b5085935050505092915050565b600060208201905081810360008301526127e18184612769565b905092915050565b6000819050919050565b600061280e61280961280484612703565b6127e9565b612703565b9050919050565b6000612820826127f3565b9050919050565b600061283282612815565b9050919050565b61284281612827565b82525050565b600060208201905061285d6000830184612839565b92915050565b600080fd5b61287181612723565b811461287c57600080fd5b50565b60008135905061288e81612868565b92915050565b6000602082840312156128aa576128a9612863565b5b60006128b88482850161287f565b91505092915050565b6128ca81612723565b82525050565b60006020820190506128e560008301846128c1565b92915050565b6000819050919050565b6128fe816128eb565b82525050565b600060208201905061291960008301846128f5565b92915050565b612928816128eb565b811461293357600080fd5b50565b6000813590506129458161291f565b92915050565b60006020828403121561296157612960612863565b5b600061296f84828501612936565b91505092915050565b6000806040838503121561298f5761298e612863565b5b600061299d85828601612936565b92505060206129ae85828601612936565b9150509250929050565b60008115159050919050565b6129cd816129b8565b82525050565b60006020820190506129e860008301846129c4565b92915050565b600080600060608486031215612a0757612a06612863565b5b6000612a1586828701612936565b9350506020612a268682870161287f565b9250506040612a3786828701612936565b9150509250925092565b600060c082019050612a5660008301896128c1565b612a6360208301886128c1565b612a7060408301876128f5565b612a7d60608301866128c1565b612a8a60808301856128f5565b612a9760a08301846129c4565b979650505050505050565b60008060408385031215612ab957612ab8612863565b5b6000612ac785828601612936565b9250506020612ad88582860161287f565b9150509250929050565b600080600060608486031215612afb57612afa612863565b5b6000612b0986828701612936565b9350506020612b1a86828701612936565b9250506040612b2b8682870161287f565b9150509250925092565b600060a082019050612b4a60008301886128c1565b612b5760208301876128f5565b612b6460408301866128c1565b612b7160608301856128f5565b612b7e60808301846129c4565b9695505050505050565b600081519050919050565b600082825260208201905092915050565b6000819050602082019050919050565b612bbd816128eb565b82525050565b612bcc816129b8565b82525050565b60a082016000820151612be86000850182612735565b506020820151612bfb6020850182612bb4565b506040820151612c0e6040850182612735565b506060820151612c216060850182612bb4565b506080820151612c346080850182612bc3565b50505050565b6000612c468383612bd2565b60a08301905092915050565b6000602082019050919050565b6000612c6a82612b88565b612c748185612b93565b9350612c7f83612ba4565b8060005b83811015612cb0578151612c978882612c3a565b9750612ca283612c52565b925050600181019050612c83565b5085935050505092915050565b60006020820190508181036000830152612cd78184612c5f565b905092915050565b7f4e487b7100000000000000000000000000000000000000000000000000000000600052604160045260246000fd5b7f4e487b7100000000000000000000000000000000000000000000000000000000600052603260045260246000fd5b600082825260208201905092915050565b7f54686973204e465420686173206265656e20736f6c6420210000000000000000600082015250565b6000612d84601883612d3d565b9150612d8f82612d4e565b602082019050919050565b60006020820190508181036000830152612db381612d77565b9050919050565b7f596f7520646f6e2774206861766520616e79207065726d697373696f6e20746f60008201527f2063616e63656c00000000000000000000000000000000000000000000000000602082015250565b6000612e16602783612d3d565b9150612e2182612dba565b604082019050919050565b60006020820190508181036000830152612e4581612e09565b9050919050565b6000606082019050612e6160008301866128c1565b612e6e60208301856128c1565b612e7b60408301846128f5565b949350505050565b7f5468697320746f6b656e20697320416464726573732030000000000000000000600082015250565b6000612eb9601783612d3d565b9150612ec482612e83565b602082019050919050565b60006020820190508181036000830152612ee881612eac565b9050919050565b7f5468697320746f6b656e20686173206265656e20737570706f7274656420616c60008201527f7265616479000000000000000000000000000000000000000000000000000000602082015250565b6000612f4b602583612d3d565b9150612f5682612eef565b604082019050919050565b60006020820190508181036000830152612f7a81612f3e565b9050919050565b600081519050612f9081612868565b92915050565b600060208284031215612fac57612fab612863565b5b6000612fba84828501612f81565b91505092915050565b7f596f75206172656e2774206f776e657220210000000000000000000000000000600082015250565b6000612ff9601283612d3d565b915061300482612fc3565b602082019050919050565b6000602082019050818103600083015261302881612fec565b9050919050565b7f4e487b7100000000000000000000000000000000000000000000000000000000600052601160045260246000fd5b6000613069826128eb565b9150613074836128eb565b925082820190508082111561308c5761308b61302f565b5b92915050565b60008160011c9050919050565b6000808291508390505b60018511156130e9578086048111156130c5576130c461302f565b5b60018516156130d45780820291505b80810290506130e285613092565b94506130a9565b94509492505050565b60008261310257600190506131be565b8161311057600090506131be565b816001811461312657600281146131305761315f565b60019150506131be565b60ff8411156131425761314161302f565b5b8360020a9150848211156131595761315861302f565b5b506131be565b5060208310610133831016604e8410600b84101617156131945782820a90508381111561318f5761318e61302f565b5b6131be565b6131a1848484600161309f565b925090508184048111156131b8576131b761302f565b5b81810290505b9392505050565b60006131d0826128eb565b91506131db836128eb565b92506132087fffffffffffffffffffffffffffffffffffffffffffffffffffffffffffffffff84846130f2565b905092915050565b600061321b826128eb565b9150613226836128eb565b9250828202613234816128eb565b9150828204841483151761324b5761324a61302f565b5b5092915050565b7f4e487b7100000000000000000000000000000000000000000000000000000000600052601260045260246000fd5b600061328c826128eb565b9150613297836128eb565b9250826132a7576132a6613252565b5b828204905092915050565b60006040820190506132c760008301856128c1565b6132d460208301846128f5565b9392505050565b6132e4816129b8565b81146132ef57600080fd5b50565b600081519050613301816132db565b92915050565b60006020828403121561331d5761331c612863565b5b600061332b848285016132f2565b91505092915050565b600061333f826128eb565b915061334a836128eb565b92508282039050818111156133625761336161302f565b5b92915050565b7f596f752063616e27742062757920796f7572204e465400000000000000000000600082015250565b600061339e601683612d3d565b91506133a982613368565b602082019050919050565b600060208201905081810360008301526133cd81613391565b9050919050565b7f54686973204e46542069736e277420617661696c61626c65206e6f7700000000600082015250565b600061340a601c83612d3d565b9150613415826133d4565b602082019050919050565b60006020820190508181036000830152613439816133fd565b9050919050565b600060608201905061345560008301866128f5565b61346260208301856128c1565b61346f60408301846128f5565b949350505050565b7f4261642050726963652021000000000000000000000000000000000000000000600082015250565b60006134ad600b83612d3d565b91506134b882613477565b602082019050919050565b600060208201905081810360008301526134dc816134a0565b9050919050565b7f5468697320746f6b656e2069736e277420616c6c6f776564206f6e206d61726b60008201527f6574202100000000000000000000000000000000000000000000000000000000602082015250565b600061353f602483612d3d565b915061354a826134e3565b604082019050919050565b6000602082019050818103600083015261356e81613532565b9050919050565b600060408201905061358a60008301856128f5565b61359760208301846128c1565b9392505050565b7f43616e63656c2052656a65637465642021000000000000000000000000000000600082015250565b60006135d4601183612d3d565b91506135df8261359e565b602082019050919050565b60006020820190508181036000830152613603816135c7565b9050919050565b600060608201905061361f60008301866128c1565b61362c60208301856128f5565b61363960408301846128f5565b949350505050565b7f7468697320746f6b656e2069736e277420737570706f72746564202100000000600082015250565b6000613677601c83612d3d565b915061368282613641565b602082019050919050565b600060208201905081810360008301526136a68161366a565b9050919050565b7f596f7520646f6e2774206861766520616e79207065726d697373696f6e20746f60008201527f2073656c6c2074686973204e4654202100000000000000000000000000000000602082015250565b6000613709603083612d3d565b9150613714826136ad565b604082019050919050565b60006020820190508181036000830152613738816136fc565b9050919050565b600060408201905061375460008301856128c1565b61376160208301846128c1565b9392505050565b7f4d61726b657420646f65736e27742068617320616e79207065726d697373696f60008201527f6e2066726f6d20796f7520746f206d616e6167652074686973204e4654000000602082015250565b60006137c4603d83612d3d565b91506137cf82613768565b604082019050919050565b600060208201905081810360008301526137f3816137b7565b9050919050565b7f5072696365206d7573742062652067726561746572207468616e203000000000600082015250565b6000613830601c83612d3d565b915061383b826137fa565b602082019050919050565b6000602082019050818103600083015261385f81613823565b9050919050565b6000613871826128eb565b91507fffffffffffffffffffffffffffffffffffffffffffffffffffffffffffffffff82036138a3576138a261302f565b5b600182019050919050565b60006060820190506138c360008301866128c1565b6138d060208301856128f5565b6138dd60408301846128c1565b949350505050565b7f666565526563697069656e742069732061646472657373203020210000000000600082015250565b600061391b601b83612d3d565b9150613926826138e5565b602082019050919050565b6000602082019050818103600083015261394a8161390e565b9050919050565b7f4261642066656500000000000000000000000000000000000000000000000000600082015250565b6000613987600783612d3d565b915061399282613951565b602082019050919050565b600060208201905081810360008301526139b68161397a565b9050919050565b60006040820190506139d260008301856128f5565b6139df60208301846128f5565b939250505056fea26469706673582212202e957c25de25743bf255b68ce98336bf83c1d24791049ce100ad1bc2df8aa01664736f6c634300081c0033",
  "linkReferences": {},
  "deployedLinkReferences": {}
}