{
  "_format": "hh-sol-artifact-1",
  "contractName": "Marketplace",
  "sourceName": "contracts/marketplace/Marketplace.sol",
  "abi": [
    {
      "inputs": [
        {
          "internalType": "uint256",
          "name": "_feeByDecimal",
          "type": "uint256"
        },
        {
          "internalType": "uint256",
          "name": "_feeRate",
          "type": "uint256"
        },
        {
          "internalType": "address",
          "name": "_feeRecipient",
          "type": "address"
        },
        {
          "internalType": "address",
          "name": "nftContract",
          "type": "address"
        }
      ],
      "stateMutability": "nonpayable",
      "type": "constructor"
    },
    {
      "inputs": [
        {
          "internalType": "address",
          "name": "owner",
          "type": "address"
        }
      ],
      "name": "OwnableInvalidOwner",
      "type": "error"
    },
    {
      "inputs": [
        {
          "internalType": "address",
          "name": "account",
          "type": "address"
        }
      ],
      "name": "OwnableUnauthorizedAccount",
      "type": "error"
    },
    {
      "anonymous": false,
      "inputs": [
        {
          "indexed": false,
          "internalType": "uint256",
          "name": "feeByDecimal",
          "type": "uint256"
        },
        {
          "indexed": false,
          "internalType": "uint256",
          "name": "feeRate",
          "type": "uint256"
        }
      ],
      "name": "FeeUpdated",
      "type": "event"
    },
    {
      "anonymous": false,
      "inputs": [
        {
          "indexed": true,
          "internalType": "uint256",
          "name": "orderId",
          "type": "uint256"
        },
        {
          "indexed": true,
          "internalType": "address",
          "name": "buyer",
          "type": "address"
        },
        {
          "indexed": false,
          "internalType": "uint256",
          "name": "price",
          "type": "uint256"
        },
        {
          "indexed": false,
          "internalType": "address",
          "name": "tokenTransfer",
          "type": "address"
        },
        {
          "indexed": true,
          "internalType": "uint256",
          "name": "tokenId",
          "type": "uint256"
        }
      ],
      "name": "OrderAdded",
      "type": "event"
    },
    {
      "anonymous": false,
      "inputs": [
        {
          "indexed": true,
          "internalType": "uint256",
          "name": "orderId",
          "type": "uint256"
        }
      ],
      "name": "OrderCancel",
      "type": "event"
    },
    {
      "anonymous": false,
      "inputs": [
        {
          "indexed": true,
          "internalType": "uint256",
          "name": "orderId",
          "type": "uint256"
        },
        {
          "indexed": true,
          "internalType": "address",
          "name": "buyer",
          "type": "address"
        },
        {
          "indexed": false,
          "internalType": "uint256",
          "name": "price",
          "type": "uint256"
        },
        {
          "indexed": false,
          "internalType": "address",
          "name": "tokenTransfer",
          "type": "address"
        },
        {
          "indexed": false,
          "internalType": "uint256",
          "name": "tokenId",
          "type": "uint256"
        },
        {
          "indexed": true,
          "internalType": "address",
          "name": "seller",
          "type": "address"
        }
      ],
      "name": "OrderMatched",
      "type": "event"
    },
    {
      "anonymous": false,
      "inputs": [
        {
          "indexed": true,
          "internalType": "address",
          "name": "previousOwner",
          "type": "address"
        },
        {
          "indexed": true,
          "internalType": "address",
          "name": "newOwner",
          "type": "address"
        }
      ],
      "name": "OwnershipTransferred",
      "type": "event"
    },
    {
      "inputs": [],
      "name": "NFTContract",
      "outputs": [
        {
          "internalType": "contract IERC721",
          "name": "",
          "type": "address"
        }
      ],
      "stateMutability": "view",
      "type": "function"
    },
    {
      "inputs": [
        {
          "internalType": "address",
          "name": "fee",
          "type": "address"
        }
      ],
      "name": "_updateFeeRecipient",
      "outputs": [],
      "stateMutability": "nonpayable",
      "type": "function"
    },
    {
      "inputs": [
        {
          "internalType": "address",
          "name": "newToken",
          "type": "address"
        }
      ],
      "name": "addNewToken",
      "outputs": [],
      "stateMutability": "nonpayable",
      "type": "function"
    },
    {
      "inputs": [
        {
          "internalType": "uint256",
          "name": "tokenId",
          "type": "uint256"
        },
        {
          "internalType": "uint256",
          "name": "price",
          "type": "uint256"
        },
        {
          "internalType": "address",
          "name": "token",
          "type": "address"
        }
      ],
      "name": "addOrder",
      "outputs": [],
      "stateMutability": "nonpayable",
      "type": "function"
    },
    {
      "inputs": [
        {
          "internalType": "uint256",
          "name": "orderId",
          "type": "uint256"
        }
      ],
      "name": "cancelOrder",
      "outputs": [],
      "stateMutability": "nonpayable",
      "type": "function"
    },
    {
      "inputs": [
        {
          "internalType": "uint256",
          "name": "orderId",
          "type": "uint256"
        }
      ],
      "name": "executeOrder",
      "outputs": [],
      "stateMutability": "nonpayable",
      "type": "function"
    },
    {
      "inputs": [],
      "name": "feeByDecimal",
      "outputs": [
        {
          "internalType": "uint256",
          "name": "",
          "type": "uint256"
        }
      ],
      "stateMutability": "view",
      "type": "function"
    },
    {
      "inputs": [],
      "name": "feeRate",
      "outputs": [
        {
          "internalType": "uint256",
          "name": "",
          "type": "uint256"
        }
      ],
      "stateMutability": "view",
      "type": "function"
    },
    {
      "inputs": [],
      "name": "feeRecipient",
      "outputs": [
        {
          "internalType": "address",
          "name": "",
          "type": "address"
        }
      ],
      "stateMutability": "view",
      "type": "function"
    },
    {
      "inputs": [
        {
          "internalType": "uint256",
          "name": "orderId",
          "type": "uint256"
        },
        {
          "internalType": "address",
          "name": "seller",
          "type": "address"
        }
      ],
      "name": "isSeller",
      "outputs": [
        {
          "internalType": "bool",
          "name": "",
          "type": "bool"
        }
      ],
      "stateMutability": "view",
      "type": "function"
    },
    {
      "inputs": [
        {
          "internalType": "address",
          "name": "token",
          "type": "address"
        }
      ],
      "name": "isTokenSupported",
      "outputs": [
        {
          "internalType": "bool",
          "name": "",
          "type": "bool"
        }
      ],
      "stateMutability": "view",
      "type": "function"
    },
    {
      "inputs": [],
      "name": "owner",
      "outputs": [
        {
          "internalType": "address",
          "name": "",
          "type": "address"
        }
      ],
      "stateMutability": "view",
      "type": "function"
    },
    {
      "inputs": [],
      "name": "renounceOwnership",
      "outputs": [],
      "stateMutability": "nonpayable",
      "type": "function"
    },
    {
      "inputs": [
        {
          "internalType": "address",
          "name": "newOwner",
          "type": "address"
        }
      ],
      "name": "transferOwnership",
      "outputs": [],
      "stateMutability": "nonpayable",
      "type": "function"
    },
    {
      "inputs": [
        {
          "internalType": "uint256",
          "name": "_feeByDecimal",
          "type": "uint256"
        },
        {
          "internalType": "uint256",
          "name": "_feeRate",
          "type": "uint256"
        }
      ],
      "name": "updateFeeRate",
      "outputs": [],
      "stateMutability": "nonpayable",
      "type": "function"
    }
  ],
  "bytecode": "0x60a0604052600060035534801561001557600080fd5b50604051612e10380380612e10833981810160405281019061003791906104a9565b33600073ffffffffffffffffffffffffffffffffffffffff168173ffffffffffffffffffffffffffffffffffffffff16036100aa5760006040517f1e4fbdf70000000000000000000000000000000000000000000000000000000081526004016100a1919061051f565b60405180910390fd5b6100b9816101f460201b60201c565b50600073ffffffffffffffffffffffffffffffffffffffff168173ffffffffffffffffffffffffffffffffffffffff1603610129576040517f08c379a0000000000000000000000000000000000000000000000000000000008152600401610120906105bd565b60405180910390fd5b600073ffffffffffffffffffffffffffffffffffffffff168273ffffffffffffffffffffffffffffffffffffffff1603610198576040517f08c379a000000000000000000000000000000000000000000000000000000000815260040161018f90610629565b60405180910390fd5b8073ffffffffffffffffffffffffffffffffffffffff1660808173ffffffffffffffffffffffffffffffffffffffff16815250506101dc84846102b860201b60201c565b6101eb8261035d60201b60201c565b505050506108ce565b60008060009054906101000a900473ffffffffffffffffffffffffffffffffffffffff169050816000806101000a81548173ffffffffffffffffffffffffffffffffffffffff021916908373ffffffffffffffffffffffffffffffffffffffff1602179055508173ffffffffffffffffffffffffffffffffffffffff168173ffffffffffffffffffffffffffffffffffffffff167f8be0079c531659141344cd1fd0a4f28419497f9722a3daafe3b4186f6b6457e060405160405180910390a35050565b6002826102c59190610678565b600a6102d191906107df565b8110610312576040517f08c379a000000000000000000000000000000000000000000000000000000000815260040161030990610876565b60405180910390fd5b81600481905550806005819055507f528d9479e9f9889a87a3c30c7f7ba537e5e59c4c85a37733b16e57c62df6130282826040516103519291906108a5565b60405180910390a15050565b600073ffffffffffffffffffffffffffffffffffffffff168173ffffffffffffffffffffffffffffffffffffffff16036103cc576040517f08c379a00000000000000000000000000000000000000000000000000000000081526004016103c390610629565b60405180910390fd5b80600660006101000a81548173ffffffffffffffffffffffffffffffffffffffff021916908373ffffffffffffffffffffffffffffffffffffffff16021790555050565b600080fd5b6000819050919050565b61042881610415565b811461043357600080fd5b50565b6000815190506104458161041f565b92915050565b600073ffffffffffffffffffffffffffffffffffffffff82169050919050565b60006104768261044b565b9050919050565b6104868161046b565b811461049157600080fd5b50565b6000815190506104a38161047d565b92915050565b600080600080608085870312156104c3576104c2610410565b5b60006104d187828801610436565b94505060206104e287828801610436565b93505060406104f387828801610494565b925050606061050487828801610494565b91505092959194509250565b6105198161046b565b82525050565b60006020820190506105346000830184610510565b92915050565b600082825260208201905092915050565b7f43616e2774206465706c6f7920636f6e7472616374206164647265737320302060008201527f2121212121000000000000000000000000000000000000000000000000000000602082015250565b60006105a760258361053a565b91506105b28261054b565b604082019050919050565b600060208201905081810360008301526105d68161059a565b9050919050565b7f666565526563697069656e742069732061646472657373203020210000000000600082015250565b6000610613601b8361053a565b915061061e826105dd565b602082019050919050565b6000602082019050818103600083015261064281610606565b9050919050565b7f4e487b7100000000000000000000000000000000000000000000000000000000600052601160045260246000fd5b600061068382610415565b915061068e83610415565b92508282019050808211156106a6576106a5610649565b5b92915050565b60008160011c9050919050565b6000808291508390505b6001851115610703578086048111156106df576106de610649565b5b60018516156106ee5780820291505b80810290506106fc856106ac565b94506106c3565b94509492505050565b60008261071c57600190506107d8565b8161072a57600090506107d8565b8160018114610740576002811461074a57610779565b60019150506107d8565b60ff84111561075c5761075b610649565b5b8360020a91508482111561077357610772610649565b5b506107d8565b5060208310610133831016604e8410600b84101617156107ae5782820a9050838111156107a9576107a8610649565b5b6107d8565b6107bb84848460016106b9565b925090508184048111156107d2576107d1610649565b5b81810290505b9392505050565b60006107ea82610415565b91506107f583610415565b92506108227fffffffffffffffffffffffffffffffffffffffffffffffffffffffffffffffff848461070c565b905092915050565b7f4261642066656500000000000000000000000000000000000000000000000000600082015250565b600061086060078361053a565b915061086b8261082a565b602082019050919050565b6000602082019050818103600083015261088f81610853565b9050919050565b61089f81610415565b82525050565b60006040820190506108ba6000830185610896565b6108c76020830184610896565b9392505050565b6080516124fd610913600039600081816102c00152818161046001528181610a9301528181610d2301528181610e2a01528181610ee5015261118a01526124fd6000f3fe608060405234801561001057600080fd5b50600436106100f55760003560e01c8063715018a611610097578063978bbdb911610066578063978bbdb914610238578063be91dc0f14610256578063d5d4433014610286578063f2fde38b146102a2576100f5565b8063715018a6146101c457806375151b63146101ce5780638da5cb5b146101fe57806394f611341461021c576100f5565b80634f75b075116100d35780634f75b07514610152578063514fcac71461017057806364db444a1461018c5780636757ef9c146101a8576100f5565b806331c2273b146100fa57806341654892146101185780634690484014610134575b600080fd5b6101026102be565b60405161010f9190611840565b60405180910390f35b610132600480360381019061012d919061189e565b6102e2565b005b61013c6102f6565b60405161014991906118da565b60405180910390f35b61015a61031c565b604051610167919061190e565b60405180910390f35b61018a60048036038101906101859190611955565b610322565b005b6101a660048036038101906101a1919061189e565b6105bd565b005b6101c260048036038101906101bd9190611982565b61068a565b005b6101cc6106a0565b005b6101e860048036038101906101e3919061189e565b6106b4565b6040516101f591906119dd565b60405180910390f35b6102066106d1565b60405161021391906118da565b60405180910390f35b61023660048036038101906102319190611955565b6106fa565b005b610240610c3c565b60405161024d919061190e565b60405180910390f35b610270600480360381019061026b91906119f8565b610c42565b60405161027d91906119dd565b60405180910390f35b6102a0600480360381019061029b9190611a38565b610cc1565b005b6102bc60048036038101906102b7919061189e565b611331565b005b7f000000000000000000000000000000000000000000000000000000000000000081565b6102ea6113b7565b6102f38161143e565b50565b600660009054906101000a900473ffffffffffffffffffffffffffffffffffffffff1681565b60045481565b6000600760008381526020019081526020016000209050600073ffffffffffffffffffffffffffffffffffffffff168160010160009054906101000a900473ffffffffffffffffffffffffffffffffffffffff1673ffffffffffffffffffffffffffffffffffffffff16146103cc576040517f08c379a00000000000000000000000000000000000000000000000000000000081526004016103c390611ae8565b60405180910390fd5b3373ffffffffffffffffffffffffffffffffffffffff168160000160009054906101000a900473ffffffffffffffffffffffffffffffffffffffff1673ffffffffffffffffffffffffffffffffffffffff161461045e576040517f08c379a000000000000000000000000000000000000000000000000000000000815260040161045590611b7a565b60405180910390fd5b7f000000000000000000000000000000000000000000000000000000000000000073ffffffffffffffffffffffffffffffffffffffff166323b872dd303384600401546040518463ffffffff1660e01b81526004016104bf93929190611b9a565b600060405180830381600087803b1580156104d957600080fd5b505af11580156104ed573d6000803e3d6000fd5b5050505060076000838152602001908152602001600020600080820160006101000a81549073ffffffffffffffffffffffffffffffffffffffff02191690556001820160006101000a81549073ffffffffffffffffffffffffffffffffffffffff021916905560028201600090556003820160006101000a81549073ffffffffffffffffffffffffffffffffffffffff021916905560048201600090555050817fab15e9f4d651ec7d8276a842911d7028683655a4e1d043a54a623c2d36f3b18f60405160405180910390a25050565b6105c56113b7565b600073ffffffffffffffffffffffffffffffffffffffff168173ffffffffffffffffffffffffffffffffffffffff1603610634576040517f08c379a000000000000000000000000000000000000000000000000000000000815260040161062b90611c1d565b60405180910390fd5b6106488160016114f190919063ffffffff16565b610687576040517f08c379a000000000000000000000000000000000000000000000000000000000815260040161067e90611caf565b60405180910390fd5b50565b6106926113b7565b61069c8282611521565b5050565b6106a86113b7565b6106b260006115c6565b565b60006106ca82600161168a90919063ffffffff16565b9050919050565b60008060009054906101000a900473ffffffffffffffffffffffffffffffffffffffff16905090565b600115156107088233610c42565b15150361074a576040517f08c379a000000000000000000000000000000000000000000000000000000000815260040161074190611d1b565b60405180910390fd5b60006007600083815260200190815260200160002060020154116107a3576040517f08c379a000000000000000000000000000000000000000000000000000000000815260040161079a90611d87565b60405180910390fd5b600073ffffffffffffffffffffffffffffffffffffffff166007600083815260200190815260200160002060010160009054906101000a900473ffffffffffffffffffffffffffffffffffffffff1673ffffffffffffffffffffffffffffffffffffffff1614610848576040517f08c379a000000000000000000000000000000000000000000000000000000000815260040161083f90611ae8565b60405180910390fd5b336007600083815260200190815260200160002060010160006101000a81548173ffffffffffffffffffffffffffffffffffffffff021916908373ffffffffffffffffffffffffffffffffffffffff16021790555060006108a8826116ba565b90506007600083815260200190815260200160002060030160009054906101000a900473ffffffffffffffffffffffffffffffffffffffff1673ffffffffffffffffffffffffffffffffffffffff166323b872dd33600660009054906101000a900473ffffffffffffffffffffffffffffffffffffffff16846040518463ffffffff1660e01b815260040161093f93929190611b9a565b6020604051808303816000875af115801561095e573d6000803e3d6000fd5b505050506040513d601f19601f820116820180604052508101906109829190611dd3565b506007600083815260200190815260200160002060030160009054906101000a900473ffffffffffffffffffffffffffffffffffffffff1673ffffffffffffffffffffffffffffffffffffffff166323b872dd336007600086815260200190815260200160002060000160009054906101000a900473ffffffffffffffffffffffffffffffffffffffff16846007600088815260200190815260200160002060020154610a2f9190611e2f565b6040518463ffffffff1660e01b8152600401610a4d93929190611b9a565b6020604051808303816000875af1158015610a6c573d6000803e3d6000fd5b505050506040513d601f19601f82011682018060405250810190610a909190611dd3565b507f000000000000000000000000000000000000000000000000000000000000000073ffffffffffffffffffffffffffffffffffffffff166323b872dd303360076000878152602001908152602001600020600401546040518463ffffffff1660e01b8152600401610b0493929190611b9a565b600060405180830381600087803b158015610b1e57600080fd5b505af1158015610b32573d6000803e3d6000fd5b505050506007600083815260200190815260200160002060000160009054906101000a900473ffffffffffffffffffffffffffffffffffffffff1673ffffffffffffffffffffffffffffffffffffffff163373ffffffffffffffffffffffffffffffffffffffff16837f216f7cf4872bb363d50b4291225c4fe64948a32031171535e10655f86284476760076000878152602001908152602001600020600201546007600088815260200190815260200160002060030160009054906101000a900473ffffffffffffffffffffffffffffffffffffffff166007600089815260200190815260200160002060040154604051610c3093929190611e63565b60405180910390a45050565b60055481565b60008173ffffffffffffffffffffffffffffffffffffffff166007600085815260200190815260200160002060000160009054906101000a900473ffffffffffffffffffffffffffffffffffffffff1673ffffffffffffffffffffffffffffffffffffffff1603610cb65760019050610cbb565b600090505b92915050565b80610ccb816106b4565b610d0a576040517f08c379a0000000000000000000000000000000000000000000000000000000008152600401610d0190611ee6565b60405180910390fd5b3373ffffffffffffffffffffffffffffffffffffffff167f000000000000000000000000000000000000000000000000000000000000000073ffffffffffffffffffffffffffffffffffffffff16636352211e866040518263ffffffff1660e01b8152600401610d7a919061190e565b602060405180830381865afa158015610d97573d6000803e3d6000fd5b505050506040513d601f19601f82011682018060405250810190610dbb9190611f1b565b73ffffffffffffffffffffffffffffffffffffffff1614610e11576040517f08c379a0000000000000000000000000000000000000000000000000000000008152600401610e0890611fba565b60405180910390fd5b3073ffffffffffffffffffffffffffffffffffffffff167f000000000000000000000000000000000000000000000000000000000000000073ffffffffffffffffffffffffffffffffffffffff1663081812fc866040518263ffffffff1660e01b8152600401610e81919061190e565b602060405180830381865afa158015610e9e573d6000803e3d6000fd5b505050506040513d601f19601f82011682018060405250810190610ec29190611f1b565b73ffffffffffffffffffffffffffffffffffffffff161480610f835750600115157f000000000000000000000000000000000000000000000000000000000000000073ffffffffffffffffffffffffffffffffffffffff1663e985e9c533306040518363ffffffff1660e01b8152600401610f3e929190611fda565b602060405180830381865afa158015610f5b573d6000803e3d6000fd5b505050506040513d601f19601f82011682018060405250810190610f7f9190611dd3565b1515145b610fc2576040517f08c379a0000000000000000000000000000000000000000000000000000000008152600401610fb990612075565b60405180910390fd5b60008311611005576040517f08c379a0000000000000000000000000000000000000000000000000000000008152600401610ffc906120e1565b60405180910390fd5b6003600081548092919061101890612101565b91905055506040518060a001604052803373ffffffffffffffffffffffffffffffffffffffff168152602001600073ffffffffffffffffffffffffffffffffffffffff1681526020018481526020018373ffffffffffffffffffffffffffffffffffffffff1681526020018581525060076000600354815260200190815260200160002060008201518160000160006101000a81548173ffffffffffffffffffffffffffffffffffffffff021916908373ffffffffffffffffffffffffffffffffffffffff16021790555060208201518160010160006101000a81548173ffffffffffffffffffffffffffffffffffffffff021916908373ffffffffffffffffffffffffffffffffffffffff1602179055506040820151816002015560608201518160030160006101000a81548173ffffffffffffffffffffffffffffffffffffffff021916908373ffffffffffffffffffffffffffffffffffffffff160217905550608082015181600401559050507f000000000000000000000000000000000000000000000000000000000000000073ffffffffffffffffffffffffffffffffffffffff166323b872dd60076000600354815260200190815260200160002060000160009054906101000a900473ffffffffffffffffffffffffffffffffffffffff1630876040518463ffffffff1660e01b815260040161121d93929190611b9a565b600060405180830381600087803b15801561123757600080fd5b505af115801561124b573d6000803e3d6000fd5b505050508360076000600354815260200190815260200160002060010160009054906101000a900473ffffffffffffffffffffffffffffffffffffffff1673ffffffffffffffffffffffffffffffffffffffff166003547f2a40b778ad2a0e665f93ad917831cd03068b829743c6f6a350518360e2dd97df6007600060035481526020019081526020016000206002015460076000600354815260200190815260200160002060030160009054906101000a900473ffffffffffffffffffffffffffffffffffffffff16604051611323929190612149565b60405180910390a450505050565b6113396113b7565b600073ffffffffffffffffffffffffffffffffffffffff168173ffffffffffffffffffffffffffffffffffffffff16036113ab5760006040517f1e4fbdf70000000000000000000000000000000000000000000000000000000081526004016113a291906118da565b60405180910390fd5b6113b4816115c6565b50565b6113bf611726565b73ffffffffffffffffffffffffffffffffffffffff166113dd6106d1565b73ffffffffffffffffffffffffffffffffffffffff161461143c57611400611726565b6040517f118cdaa700000000000000000000000000000000000000000000000000000000815260040161143391906118da565b60405180910390fd5b565b600073ffffffffffffffffffffffffffffffffffffffff168173ffffffffffffffffffffffffffffffffffffffff16036114ad576040517f08c379a00000000000000000000000000000000000000000000000000000000081526004016114a4906121be565b60405180910390fd5b80600660006101000a81548173ffffffffffffffffffffffffffffffffffffffff021916908373ffffffffffffffffffffffffffffffffffffffff16021790555050565b6000611519836000018373ffffffffffffffffffffffffffffffffffffffff1660001b61172e565b905092915050565b60028261152e91906121de565b600a61153a9190612345565b811061157b576040517f08c379a0000000000000000000000000000000000000000000000000000000008152600401611572906123dc565b60405180910390fd5b81600481905550806005819055507f528d9479e9f9889a87a3c30c7f7ba537e5e59c4c85a37733b16e57c62df6130282826040516115ba9291906123fc565b60405180910390a15050565b60008060009054906101000a900473ffffffffffffffffffffffffffffffffffffffff169050816000806101000a81548173ffffffffffffffffffffffffffffffffffffffff021916908373ffffffffffffffffffffffffffffffffffffffff1602179055508173ffffffffffffffffffffffffffffffffffffffff168173ffffffffffffffffffffffffffffffffffffffff167f8be0079c531659141344cd1fd0a4f28419497f9722a3daafe3b4186f6b6457e060405160405180910390a35050565b60006116b2836000018373ffffffffffffffffffffffffffffffffffffffff1660001b61179e565b905092915050565b6000806007600084815260200190815260200160002090506000600554036116e6576000915050611721565b60026004546116f591906121de565b600a6117019190612345565b81600201546005546117139190612425565b61171d9190612496565b9150505b919050565b600033905090565b600061173a838361179e565b611793578260000182908060018154018082558091505060019003906000526020600020016000909190919091505582600001805490508360010160008481526020019081526020016000208190555060019050611798565b600090505b92915050565b600080836001016000848152602001908152602001600020541415905092915050565b600073ffffffffffffffffffffffffffffffffffffffff82169050919050565b6000819050919050565b60006118066118016117fc846117c1565b6117e1565b6117c1565b9050919050565b6000611818826117eb565b9050919050565b600061182a8261180d565b9050919050565b61183a8161181f565b82525050565b60006020820190506118556000830184611831565b92915050565b600080fd5b600061186b826117c1565b9050919050565b61187b81611860565b811461188657600080fd5b50565b60008135905061189881611872565b92915050565b6000602082840312156118b4576118b361185b565b5b60006118c284828501611889565b91505092915050565b6118d481611860565b82525050565b60006020820190506118ef60008301846118cb565b92915050565b6000819050919050565b611908816118f5565b82525050565b600060208201905061192360008301846118ff565b92915050565b611932816118f5565b811461193d57600080fd5b50565b60008135905061194f81611929565b92915050565b60006020828403121561196b5761196a61185b565b5b600061197984828501611940565b91505092915050565b600080604083850312156119995761199861185b565b5b60006119a785828601611940565b92505060206119b885828601611940565b9150509250929050565b60008115159050919050565b6119d7816119c2565b82525050565b60006020820190506119f260008301846119ce565b92915050565b60008060408385031215611a0f57611a0e61185b565b5b6000611a1d85828601611940565b9250506020611a2e85828601611889565b9150509250929050565b600080600060608486031215611a5157611a5061185b565b5b6000611a5f86828701611940565b9350506020611a7086828701611940565b9250506040611a8186828701611889565b9150509250925092565b600082825260208201905092915050565b7f54686973204e465420686173206265656e20736f6c6420210000000000000000600082015250565b6000611ad2601883611a8b565b9150611add82611a9c565b602082019050919050565b60006020820190508181036000830152611b0181611ac5565b9050919050565b7f596f7520646f6e2774206861766520616e79207065726d697373696f6e20746f60008201527f2063616e63656c00000000000000000000000000000000000000000000000000602082015250565b6000611b64602783611a8b565b9150611b6f82611b08565b604082019050919050565b60006020820190508181036000830152611b9381611b57565b9050919050565b6000606082019050611baf60008301866118cb565b611bbc60208301856118cb565b611bc960408301846118ff565b949350505050565b7f5468697320746f6b656e20697320416464726573732030000000000000000000600082015250565b6000611c07601783611a8b565b9150611c1282611bd1565b602082019050919050565b60006020820190508181036000830152611c3681611bfa565b9050919050565b7f5468697320746f6b656e20686173206265656e20737570706f7274656420616c60008201527f7265616479000000000000000000000000000000000000000000000000000000602082015250565b6000611c99602583611a8b565b9150611ca482611c3d565b604082019050919050565b60006020820190508181036000830152611cc881611c8c565b9050919050565b7f596f752063616e27742062757920796f7572204e465400000000000000000000600082015250565b6000611d05601683611a8b565b9150611d1082611ccf565b602082019050919050565b60006020820190508181036000830152611d3481611cf8565b9050919050565b7f54686973204e46542069736e277420617661696c61626c65206e6f7700000000600082015250565b6000611d71601c83611a8b565b9150611d7c82611d3b565b602082019050919050565b60006020820190508181036000830152611da081611d64565b9050919050565b611db0816119c2565b8114611dbb57600080fd5b50565b600081519050611dcd81611da7565b92915050565b600060208284031215611de957611de861185b565b5b6000611df784828501611dbe565b91505092915050565b7f4e487b7100000000000000000000000000000000000000000000000000000000600052601160045260246000fd5b6000611e3a826118f5565b9150611e45836118f5565b9250828203905081811115611e5d57611e5c611e00565b5b92915050565b6000606082019050611e7860008301866118ff565b611e8560208301856118cb565b611e9260408301846118ff565b949350505050565b7f7468697320746f6b656e2069736e277420737570706f72746564202100000000600082015250565b6000611ed0601c83611a8b565b9150611edb82611e9a565b602082019050919050565b60006020820190508181036000830152611eff81611ec3565b9050919050565b600081519050611f1581611872565b92915050565b600060208284031215611f3157611f3061185b565b5b6000611f3f84828501611f06565b91505092915050565b7f596f7520646f6e2774206861766520616e79207065726d697373696f6e20746f60008201527f2073656c6c2074686973204e4654202100000000000000000000000000000000602082015250565b6000611fa4603083611a8b565b9150611faf82611f48565b604082019050919050565b60006020820190508181036000830152611fd381611f97565b9050919050565b6000604082019050611fef60008301856118cb565b611ffc60208301846118cb565b9392505050565b7f4d61726b657420646f65736e27742068617320616e79207065726d697373696f60008201527f6e2066726f6d20796f7520746f206d616e6167652074686973204e4654000000602082015250565b600061205f603d83611a8b565b915061206a82612003565b604082019050919050565b6000602082019050818103600083015261208e81612052565b9050919050565b7f5072696365206d7573742062652067726561746572207468616e203000000000600082015250565b60006120cb601c83611a8b565b91506120d682612095565b602082019050919050565b600060208201905081810360008301526120fa816120be565b9050919050565b600061210c826118f5565b91507fffffffffffffffffffffffffffffffffffffffffffffffffffffffffffffffff820361213e5761213d611e00565b5b600182019050919050565b600060408201905061215e60008301856118ff565b61216b60208301846118cb565b9392505050565b7f666565526563697069656e742069732061646472657373203020210000000000600082015250565b60006121a8601b83611a8b565b91506121b382612172565b602082019050919050565b600060208201905081810360008301526121d78161219b565b9050919050565b60006121e9826118f5565b91506121f4836118f5565b925082820190508082111561220c5761220b611e00565b5b92915050565b60008160011c9050919050565b6000808291508390505b60018511156122695780860481111561224557612244611e00565b5b60018516156122545780820291505b808102905061226285612212565b9450612229565b94509492505050565b600082612282576001905061233e565b81612290576000905061233e565b81600181146122a657600281146122b0576122df565b600191505061233e565b60ff8411156122c2576122c1611e00565b5b8360020a9150848211156122d9576122d8611e00565b5b5061233e565b5060208310610133831016604e8410600b84101617156123145782820a90508381111561230f5761230e611e00565b5b61233e565b612321848484600161221f565b9250905081840481111561233857612337611e00565b5b81810290505b9392505050565b6000612350826118f5565b915061235b836118f5565b92506123887fffffffffffffffffffffffffffffffffffffffffffffffffffffffffffffffff8484612272565b905092915050565b7f4261642066656500000000000000000000000000000000000000000000000000600082015250565b60006123c6600783611a8b565b91506123d182612390565b602082019050919050565b600060208201905081810360008301526123f5816123b9565b9050919050565b600060408201905061241160008301856118ff565b61241e60208301846118ff565b9392505050565b6000612430826118f5565b915061243b836118f5565b9250828202612449816118f5565b915082820484148315176124605761245f611e00565b5b5092915050565b7f4e487b7100000000000000000000000000000000000000000000000000000000600052601260045260246000fd5b60006124a1826118f5565b91506124ac836118f5565b9250826124bc576124bb612467565b5b82820490509291505056fea2646970667358221220d0d89d87ae6a6072e55f6fe0e70ca37ef1ed06fa19973d2e239004287f1f24f564736f6c634300081c0033",
  "linkReferences": {},
  "deployedLinkReferences": {}
}