{
  "_format": "hh-sol-artifact-1",
  "contractName": "Reserve",
  "sourceName": "contracts/reserve/Reserve.sol",
  "abi": [
    {
      "inputs": [
        {
          "internalType": "address",
          "name": "_token",
          "type": "address"
        }
      ],
      "stateMutability": "nonpayable",
      "type": "constructor"
    },
    {
      "inputs": [
        {
          "internalType": "address",
          "name": "owner",
          "type": "address"
        }
      ],
      "name": "OwnableInvalidOwner",
      "type": "error"
    },
    {
      "inputs": [
        {
          "internalType": "address",
          "name": "account",
          "type": "address"
        }
      ],
      "name": "OwnableUnauthorizedAccount",
      "type": "error"
    },
    {
      "anonymous": false,
      "inputs": [
        {
          "indexed": true,
          "internalType": "address",
          "name": "previousOwner",
          "type": "address"
        },
        {
          "indexed": true,
          "internalType": "address",
          "name": "newOwner",
          "type": "address"
        }
      ],
      "name": "OwnershipTransferred",
      "type": "event"
    },
    {
      "inputs": [],
      "name": "owner",
      "outputs": [
        {
          "internalType": "address",
          "name": "",
          "type": "address"
        }
      ],
      "stateMutability": "view",
      "type": "function"
    },
    {
      "inputs": [],
      "name": "renounceOwnership",
      "outputs": [],
      "stateMutability": "nonpayable",
      "type": "function"
    },
    {
      "inputs": [
        {
          "internalType": "address",
          "name": "newOwner",
          "type": "address"
        }
      ],
      "name": "transferOwnership",
      "outputs": [],
      "stateMutability": "nonpayable",
      "type": "function"
    },
    {
      "inputs": [
        {
          "internalType": "address",
          "name": "withdrawAddress",
          "type": "address"
        },
        {
          "internalType": "uint256",
          "name": "value",
          "type": "uint256"
        }
      ],
      "name": "withdrawTo",
      "outputs": [],
      "stateMutability": "nonpayable",
      "type": "function"
    }
  ],
  "bytecode": "0x60a060405234801561001057600080fd5b50604051610bad380380610bad8339818101604052810190610032919061022b565b33600073ffffffffffffffffffffffffffffffffffffffff168173ffffffffffffffffffffffffffffffffffffffff16036100a55760006040517f1e4fbdf700000000000000000000000000000000000000000000000000000000815260040161009c9190610267565b60405180910390fd5b6100b48161010460201b60201c565b508073ffffffffffffffffffffffffffffffffffffffff1660808173ffffffffffffffffffffffffffffffffffffffff168152505062dd7c00426100f891906102bb565b600181905550506102ef565b60008060009054906101000a900473ffffffffffffffffffffffffffffffffffffffff169050816000806101000a81548173ffffffffffffffffffffffffffffffffffffffff021916908373ffffffffffffffffffffffffffffffffffffffff1602179055508173ffffffffffffffffffffffffffffffffffffffff168173ffffffffffffffffffffffffffffffffffffffff167f8be0079c531659141344cd1fd0a4f28419497f9722a3daafe3b4186f6b6457e060405160405180910390a35050565b600080fd5b600073ffffffffffffffffffffffffffffffffffffffff82169050919050565b60006101f8826101cd565b9050919050565b610208816101ed565b811461021357600080fd5b50565b600081519050610225816101ff565b92915050565b600060208284031215610241576102406101c8565b5b600061024f84828501610216565b91505092915050565b610261816101ed565b82525050565b600060208201905061027c6000830184610258565b92915050565b6000819050919050565b7f4e487b7100000000000000000000000000000000000000000000000000000000600052601160045260246000fd5b60006102c682610282565b91506102d183610282565b92508282019050808211156102e9576102e861028c565b5b92915050565b60805161089c61031160003960008181610170015261024b015261089c6000f3fe608060405234801561001057600080fd5b506004361061004c5760003560e01c8063205c287814610051578063715018a61461006d5780638da5cb5b14610077578063f2fde38b14610095575b600080fd5b61006b6004803603810190610066919061059b565b6100b1565b005b6100756102ec565b005b61007f610300565b60405161008c91906105ea565b60405180910390f35b6100af60048036038101906100aa9190610605565b610329565b005b6100b96103af565b6001544210156100fe576040517f08c379a00000000000000000000000000000000000000000000000000000000081526004016100f59061068f565b60405180910390fd5b600073ffffffffffffffffffffffffffffffffffffffff168273ffffffffffffffffffffffffffffffffffffffff160361016d576040517f08c379a0000000000000000000000000000000000000000000000000000000008152600401610164906106fb565b60405180910390fd5b807f000000000000000000000000000000000000000000000000000000000000000073ffffffffffffffffffffffffffffffffffffffff166370a08231306040518263ffffffff1660e01b81526004016101c791906105ea565b602060405180830381865afa1580156101e4573d6000803e3d6000fd5b505050506040513d601f19601f820116820180604052508101906102089190610730565b1015610249576040517f08c379a0000000000000000000000000000000000000000000000000000000008152600401610240906107a9565b60405180910390fd5b7f000000000000000000000000000000000000000000000000000000000000000073ffffffffffffffffffffffffffffffffffffffff1663a9059cbb83836040518363ffffffff1660e01b81526004016102a49291906107d8565b6020604051808303816000875af11580156102c3573d6000803e3d6000fd5b505050506040513d601f19601f820116820180604052508101906102e79190610839565b505050565b6102f46103af565b6102fe6000610436565b565b60008060009054906101000a900473ffffffffffffffffffffffffffffffffffffffff16905090565b6103316103af565b600073ffffffffffffffffffffffffffffffffffffffff168173ffffffffffffffffffffffffffffffffffffffff16036103a35760006040517f1e4fbdf700000000000000000000000000000000000000000000000000000000815260040161039a91906105ea565b60405180910390fd5b6103ac81610436565b50565b6103b76104fa565b73ffffffffffffffffffffffffffffffffffffffff166103d5610300565b73ffffffffffffffffffffffffffffffffffffffff1614610434576103f86104fa565b6040517f118cdaa700000000000000000000000000000000000000000000000000000000815260040161042b91906105ea565b60405180910390fd5b565b60008060009054906101000a900473ffffffffffffffffffffffffffffffffffffffff169050816000806101000a81548173ffffffffffffffffffffffffffffffffffffffff021916908373ffffffffffffffffffffffffffffffffffffffff1602179055508173ffffffffffffffffffffffffffffffffffffffff168173ffffffffffffffffffffffffffffffffffffffff167f8be0079c531659141344cd1fd0a4f28419497f9722a3daafe3b4186f6b6457e060405160405180910390a35050565b600033905090565b600080fd5b600073ffffffffffffffffffffffffffffffffffffffff82169050919050565b600061053282610507565b9050919050565b61054281610527565b811461054d57600080fd5b50565b60008135905061055f81610539565b92915050565b6000819050919050565b61057881610565565b811461058357600080fd5b50565b6000813590506105958161056f565b92915050565b600080604083850312156105b2576105b1610502565b5b60006105c085828601610550565b92505060206105d185828601610586565b9150509250929050565b6105e481610527565b82525050565b60006020820190506105ff60008301846105db565b92915050565b60006020828403121561061b5761061a610502565b5b600061062984828501610550565b91505092915050565b600082825260208201905092915050565b7f43616e206e6f7420747261646500000000000000000000000000000000000000600082015250565b6000610679600d83610632565b915061068482610643565b602082019050919050565b600060208201905081810360008301526106a88161066c565b9050919050565b7f43616e277420776974686472617720746f206164647265737328302900000000600082015250565b60006106e5601c83610632565b91506106f0826106af565b602082019050919050565b60006020820190508181036000830152610714816106d8565b9050919050565b60008151905061072a8161056f565b92915050565b60006020828403121561074657610745610502565b5b60006107548482850161071b565b91505092915050565b7f45786365656420616d6f756e7420746f20776974686472617700000000000000600082015250565b6000610793601983610632565b915061079e8261075d565b602082019050919050565b600060208201905081810360008301526107c281610786565b9050919050565b6107d281610565565b82525050565b60006040820190506107ed60008301856105db565b6107fa60208301846107c9565b9392505050565b60008115159050919050565b61081681610801565b811461082157600080fd5b50565b6000815190506108338161080d565b92915050565b60006020828403121561084f5761084e610502565b5b600061085d84828501610824565b9150509291505056fea26469706673582212203289995de88b21479aeb034ec27cb668a8487040932c7c3decdb3c5e6a9fa6af64736f6c634300081c0033",
  "linkReferences": {},
  "deployedLinkReferences": {}
}