{
  "_format": "hh-sol-artifact-1",
  "contractName": "KYS",
  "sourceName": "contracts/Token/KYS.sol",
  "abi": [
    {
      "inputs": [],
      "stateMutability": "nonpayable",
      "type": "constructor"
    },
    {
      "inputs": [],
      "name": "AccessControlBadConfirmation",
      "type": "error"
    },
    {
      "inputs": [
        {
          "internalType": "address",
          "name": "account",
          "type": "address"
        },
        {
          "internalType": "bytes32",
          "name": "neededRole",
          "type": "bytes32"
        }
      ],
      "name": "AccessControlUnauthorizedAccount",
      "type": "error"
    },
    {
      "inputs": [
        {
          "internalType": "address",
          "name": "spender",
          "type": "address"
        },
        {
          "internalType": "uint256",
          "name": "allowance",
          "type": "uint256"
        },
        {
          "internalType": "uint256",
          "name": "needed",
          "type": "uint256"
        }
      ],
      "name": "ERC20InsufficientAllowance",
      "type": "error"
    },
    {
      "inputs": [
        {
          "internalType": "address",
          "name": "sender",
          "type": "address"
        },
        {
          "internalType": "uint256",
          "name": "balance",
          "type": "uint256"
        },
        {
          "internalType": "uint256",
          "name": "needed",
          "type": "uint256"
        }
      ],
      "name": "ERC20InsufficientBalance",
      "type": "error"
    },
    {
      "inputs": [
        {
          "internalType": "address",
          "name": "approver",
          "type": "address"
        }
      ],
      "name": "ERC20InvalidApprover",
      "type": "error"
    },
    {
      "inputs": [
        {
          "internalType": "address",
          "name": "receiver",
          "type": "address"
        }
      ],
      "name": "ERC20InvalidReceiver",
      "type": "error"
    },
    {
      "inputs": [
        {
          "internalType": "address",
          "name": "sender",
          "type": "address"
        }
      ],
      "name": "ERC20InvalidSender",
      "type": "error"
    },
    {
      "inputs": [
        {
          "internalType": "address",
          "name": "spender",
          "type": "address"
        }
      ],
      "name": "ERC20InvalidSpender",
      "type": "error"
    },
    {
      "inputs": [],
      "name": "EnforcedPause",
      "type": "error"
    },
    {
      "inputs": [],
      "name": "ExpectedPause",
      "type": "error"
    },
    {
      "anonymous": false,
      "inputs": [
        {
          "indexed": true,
          "internalType": "address",
          "name": "owner",
          "type": "address"
        },
        {
          "indexed": true,
          "internalType": "address",
          "name": "spender",
          "type": "address"
        },
        {
          "indexed": false,
          "internalType": "uint256",
          "name": "value",
          "type": "uint256"
        }
      ],
      "name": "Approval",
      "type": "event"
    },
    {
      "anonymous": false,
      "inputs": [
        {
          "indexed": false,
          "internalType": "address",
          "name": "account",
          "type": "address"
        }
      ],
      "name": "Paused",
      "type": "event"
    },
    {
      "anonymous": false,
      "inputs": [
        {
          "indexed": true,
          "internalType": "bytes32",
          "name": "role",
          "type": "bytes32"
        },
        {
          "indexed": true,
          "internalType": "bytes32",
          "name": "previousAdminRole",
          "type": "bytes32"
        },
        {
          "indexed": true,
          "internalType": "bytes32",
          "name": "newAdminRole",
          "type": "bytes32"
        }
      ],
      "name": "RoleAdminChanged",
      "type": "event"
    },
    {
      "anonymous": false,
      "inputs": [
        {
          "indexed": true,
          "internalType": "bytes32",
          "name": "role",
          "type": "bytes32"
        },
        {
          "indexed": true,
          "internalType": "address",
          "name": "account",
          "type": "address"
        },
        {
          "indexed": true,
          "internalType": "address",
          "name": "sender",
          "type": "address"
        }
      ],
      "name": "RoleGranted",
      "type": "event"
    },
    {
      "anonymous": false,
      "inputs": [
        {
          "indexed": true,
          "internalType": "bytes32",
          "name": "role",
          "type": "bytes32"
        },
        {
          "indexed": true,
          "internalType": "address",
          "name": "account",
          "type": "address"
        },
        {
          "indexed": true,
          "internalType": "address",
          "name": "sender",
          "type": "address"
        }
      ],
      "name": "RoleRevoked",
      "type": "event"
    },
    {
      "anonymous": false,
      "inputs": [
        {
          "indexed": true,
          "internalType": "address",
          "name": "from",
          "type": "address"
        },
        {
          "indexed": true,
          "internalType": "address",
          "name": "to",
          "type": "address"
        },
        {
          "indexed": false,
          "internalType": "uint256",
          "name": "value",
          "type": "uint256"
        }
      ],
      "name": "Transfer",
      "type": "event"
    },
    {
      "anonymous": false,
      "inputs": [
        {
          "indexed": false,
          "internalType": "address",
          "name": "account",
          "type": "address"
        }
      ],
      "name": "Unpaused",
      "type": "event"
    },
    {
      "anonymous": false,
      "inputs": [
        {
          "indexed": false,
          "internalType": "address",
          "name": "BannedAddress",
          "type": "address"
        }
      ],
      "name": "addedOnBlacklist",
      "type": "event"
    },
    {
      "anonymous": false,
      "inputs": [
        {
          "indexed": false,
          "internalType": "address",
          "name": "UnbannedAddress",
          "type": "address"
        }
      ],
      "name": "removedBlacklist",
      "type": "event"
    },
    {
      "inputs": [],
      "name": "DEFAULT_ADMIN_ROLE",
      "outputs": [
        {
          "internalType": "bytes32",
          "name": "",
          "type": "bytes32"
        }
      ],
      "stateMutability": "view",
      "type": "function"
    },
    {
      "inputs": [],
      "name": "MINTER_ROLE",
      "outputs": [
        {
          "internalType": "bytes32",
          "name": "",
          "type": "bytes32"
        }
      ],
      "stateMutability": "view",
      "type": "function"
    },
    {
      "inputs": [],
      "name": "PAUSER_ROLE",
      "outputs": [
        {
          "internalType": "bytes32",
          "name": "",
          "type": "bytes32"
        }
      ],
      "stateMutability": "view",
      "type": "function"
    },
    {
      "inputs": [
        {
          "internalType": "address",
          "name": "prohibit",
          "type": "address"
        }
      ],
      "name": "addToBlackList",
      "outputs": [],
      "stateMutability": "nonpayable",
      "type": "function"
    },
    {
      "inputs": [
        {
          "internalType": "address",
          "name": "owner",
          "type": "address"
        },
        {
          "internalType": "address",
          "name": "spender",
          "type": "address"
        }
      ],
      "name": "allowance",
      "outputs": [
        {
          "internalType": "uint256",
          "name": "",
          "type": "uint256"
        }
      ],
      "stateMutability": "view",
      "type": "function"
    },
    {
      "inputs": [
        {
          "internalType": "address",
          "name": "spender",
          "type": "address"
        },
        {
          "internalType": "uint256",
          "name": "value",
          "type": "uint256"
        }
      ],
      "name": "approve",
      "outputs": [
        {
          "internalType": "bool",
          "name": "",
          "type": "bool"
        }
      ],
      "stateMutability": "nonpayable",
      "type": "function"
    },
    {
      "inputs": [
        {
          "internalType": "address",
          "name": "account",
          "type": "address"
        }
      ],
      "name": "balanceOf",
      "outputs": [
        {
          "internalType": "uint256",
          "name": "",
          "type": "uint256"
        }
      ],
      "stateMutability": "view",
      "type": "function"
    },
    {
      "inputs": [],
      "name": "decimals",
      "outputs": [
        {
          "internalType": "uint8",
          "name": "",
          "type": "uint8"
        }
      ],
      "stateMutability": "view",
      "type": "function"
    },
    {
      "inputs": [
        {
          "internalType": "bytes32",
          "name": "role",
          "type": "bytes32"
        }
      ],
      "name": "getRoleAdmin",
      "outputs": [
        {
          "internalType": "bytes32",
          "name": "",
          "type": "bytes32"
        }
      ],
      "stateMutability": "view",
      "type": "function"
    },
    {
      "inputs": [
        {
          "internalType": "bytes32",
          "name": "role",
          "type": "bytes32"
        },
        {
          "internalType": "address",
          "name": "account",
          "type": "address"
        }
      ],
      "name": "grantRole",
      "outputs": [],
      "stateMutability": "nonpayable",
      "type": "function"
    },
    {
      "inputs": [
        {
          "internalType": "bytes32",
          "name": "role",
          "type": "bytes32"
        },
        {
          "internalType": "address",
          "name": "account",
          "type": "address"
        }
      ],
      "name": "hasRole",
      "outputs": [
        {
          "internalType": "bool",
          "name": "",
          "type": "bool"
        }
      ],
      "stateMutability": "view",
      "type": "function"
    },
    {
      "inputs": [],
      "name": "name",
      "outputs": [
        {
          "internalType": "string",
          "name": "",
          "type": "string"
        }
      ],
      "stateMutability": "view",
      "type": "function"
    },
    {
      "inputs": [],
      "name": "pause",
      "outputs": [],
      "stateMutability": "nonpayable",
      "type": "function"
    },
    {
      "inputs": [],
      "name": "paused",
      "outputs": [
        {
          "internalType": "bool",
          "name": "",
          "type": "bool"
        }
      ],
      "stateMutability": "view",
      "type": "function"
    },
    {
      "inputs": [
        {
          "internalType": "address",
          "name": "prohibit",
          "type": "address"
        }
      ],
      "name": "removeToBlackList",
      "outputs": [],
      "stateMutability": "nonpayable",
      "type": "function"
    },
    {
      "inputs": [
        {
          "internalType": "bytes32",
          "name": "role",
          "type": "bytes32"
        },
        {
          "internalType": "address",
          "name": "callerConfirmation",
          "type": "address"
        }
      ],
      "name": "renounceRole",
      "outputs": [],
      "stateMutability": "nonpayable",
      "type": "function"
    },
    {
      "inputs": [
        {
          "internalType": "bytes32",
          "name": "role",
          "type": "bytes32"
        },
        {
          "internalType": "address",
          "name": "account",
          "type": "address"
        }
      ],
      "name": "revokeRole",
      "outputs": [],
      "stateMutability": "nonpayable",
      "type": "function"
    },
    {
      "inputs": [
        {
          "internalType": "bytes4",
          "name": "interfaceId",
          "type": "bytes4"
        }
      ],
      "name": "supportsInterface",
      "outputs": [
        {
          "internalType": "bool",
          "name": "",
          "type": "bool"
        }
      ],
      "stateMutability": "view",
      "type": "function"
    },
    {
      "inputs": [],
      "name": "symbol",
      "outputs": [
        {
          "internalType": "string",
          "name": "",
          "type": "string"
        }
      ],
      "stateMutability": "view",
      "type": "function"
    },
    {
      "inputs": [],
      "name": "totalSupply",
      "outputs": [
        {
          "internalType": "uint256",
          "name": "",
          "type": "uint256"
        }
      ],
      "stateMutability": "view",
      "type": "function"
    },
    {
      "inputs": [
        {
          "internalType": "address",
          "name": "to",
          "type": "address"
        },
        {
          "internalType": "uint256",
          "name": "value",
          "type": "uint256"
        }
      ],
      "name": "transfer",
      "outputs": [
        {
          "internalType": "bool",
          "name": "",
          "type": "bool"
        }
      ],
      "stateMutability": "nonpayable",
      "type": "function"
    },
    {
      "inputs": [
        {
          "internalType": "address",
          "name": "from",
          "type": "address"
        },
        {
          "internalType": "address",
          "name": "to",
          "type": "address"
        },
        {
          "internalType": "uint256",
          "name": "value",
          "type": "uint256"
        }
      ],
      "name": "transferFrom",
      "outputs": [
        {
          "internalType": "bool",
          "name": "",
          "type": "bool"
        }
      ],
      "stateMutability": "nonpayable",
      "type": "function"
    },
    {
      "inputs": [],
      "name": "unpause",
      "outputs": [],
      "stateMutability": "nonpayable",
      "type": "function"
    }
  ],
  "bytecode": "0x608060405234801561001057600080fd5b506040518060400160405280600581526020017f4b7973766b0000000000000000000000000000000000000000000000000000008152506040518060400160405280600381526020017f4b59530000000000000000000000000000000000000000000000000000000000815250816003908161008c9190610798565b50806004908161009c9190610798565b5050506100b26000801b3361012160201b60201c565b506100e37f65d7a28e3265b37a6474929f336521b332c1681b933f6cb9f3376673440d862a3361012160201b60201c565b5061011c336100f661021f60201b60201c565b600a61010291906109d9565b633b9aca006101119190610a24565b61022860201b60201c565b610b57565b600061013383836102b060201b60201c565b6102145760016006600085815260200190815260200160002060000160008473ffffffffffffffffffffffffffffffffffffffff1673ffffffffffffffffffffffffffffffffffffffff16815260200190815260200160002060006101000a81548160ff0219169083151502179055506101b161031b60201b60201c565b73ffffffffffffffffffffffffffffffffffffffff168273ffffffffffffffffffffffffffffffffffffffff16847f2f8788117e7eff1d82e926ec794901d17c78024a50270940304540a733656f0d60405160405180910390a460019050610219565b600090505b92915050565b60006012905090565b600073ffffffffffffffffffffffffffffffffffffffff168273ffffffffffffffffffffffffffffffffffffffff160361029a5760006040517fec442f050000000000000000000000000000000000000000000000000000000081526004016102919190610aa7565b60405180910390fd5b6102ac6000838361032360201b60201c565b5050565b60006006600084815260200190815260200160002060000160008373ffffffffffffffffffffffffffffffffffffffff1673ffffffffffffffffffffffffffffffffffffffff16815260200190815260200160002060009054906101000a900460ff16905092915050565b600033905090565b600073ffffffffffffffffffffffffffffffffffffffff168373ffffffffffffffffffffffffffffffffffffffff16036103755780600260008282546103699190610ac2565b92505081905550610448565b60008060008573ffffffffffffffffffffffffffffffffffffffff1673ffffffffffffffffffffffffffffffffffffffff16815260200190815260200160002054905081811015610401578381836040517fe450d38c0000000000000000000000000000000000000000000000000000000081526004016103f893929190610b05565b60405180910390fd5b8181036000808673ffffffffffffffffffffffffffffffffffffffff1673ffffffffffffffffffffffffffffffffffffffff16815260200190815260200160002081905550505b600073ffffffffffffffffffffffffffffffffffffffff168273ffffffffffffffffffffffffffffffffffffffff160361049157806002600082825403925050819055506104de565b806000808473ffffffffffffffffffffffffffffffffffffffff1673ffffffffffffffffffffffffffffffffffffffff168152602001908152602001600020600082825401925050819055505b8173ffffffffffffffffffffffffffffffffffffffff168373ffffffffffffffffffffffffffffffffffffffff167fddf252ad1be2c89b69c2b068fc378daa952ba7f163c4a11628f55a4df523b3ef8360405161053b9190610b3c565b60405180910390a3505050565b600081519050919050565b7f4e487b7100000000000000000000000000000000000000000000000000000000600052604160045260246000fd5b7f4e487b7100000000000000000000000000000000000000000000000000000000600052602260045260246000fd5b600060028204905060018216806105c957607f821691505b6020821081036105dc576105db610582565b5b50919050565b60008190508160005260206000209050919050565b60006020601f8301049050919050565b600082821b905092915050565b6000600883026106447fffffffffffffffffffffffffffffffffffffffffffffffffffffffffffffffff82610607565b61064e8683610607565b95508019841693508086168417925050509392505050565b6000819050919050565b6000819050919050565b600061069561069061068b84610666565b610670565b610666565b9050919050565b6000819050919050565b6106af8361067a565b6106c36106bb8261069c565b848454610614565b825550505050565b600090565b6106d86106cb565b6106e38184846106a6565b505050565b5b81811015610707576106fc6000826106d0565b6001810190506106e9565b5050565b601f82111561074c5761071d816105e2565b610726846105f7565b81016020851015610735578190505b610749610741856105f7565b8301826106e8565b50505b505050565b600082821c905092915050565b600061076f60001984600802610751565b1980831691505092915050565b6000610788838361075e565b9150826002028217905092915050565b6107a182610548565b67ffffffffffffffff8111156107ba576107b9610553565b5b6107c482546105b1565b6107cf82828561070b565b600060209050601f83116001811461080257600084156107f0578287015190505b6107fa858261077c565b865550610862565b601f198416610810866105e2565b60005b8281101561083857848901518255600182019150602085019450602081019050610813565b868310156108555784890151610851601f89168261075e565b8355505b6001600288020188555050505b505050505050565b7f4e487b7100000000000000000000000000000000000000000000000000000000600052601160045260246000fd5b60008160011c9050919050565b6000808291508390505b60018511156108f0578086048111156108cc576108cb61086a565b5b60018516156108db5780820291505b80810290506108e985610899565b94506108b0565b94509492505050565b60008261090957600190506109c5565b8161091757600090506109c5565b816001811461092d576002811461093757610966565b60019150506109c5565b60ff8411156109495761094861086a565b5b8360020a9150848211156109605761095f61086a565b5b506109c5565b5060208310610133831016604e8410600b841016171561099b5782820a9050838111156109965761099561086a565b5b6109c5565b6109a884848460016108a6565b925090508184048111156109bf576109be61086a565b5b81810290505b9392505050565b600060ff82169050919050565b60006109e482610666565b91506109ef836109cc565b9250610a1c7fffffffffffffffffffffffffffffffffffffffffffffffffffffffffffffffff84846108f9565b905092915050565b6000610a2f82610666565b9150610a3a83610666565b9250828202610a4881610666565b91508282048414831517610a5f57610a5e61086a565b5b5092915050565b600073ffffffffffffffffffffffffffffffffffffffff82169050919050565b6000610a9182610a66565b9050919050565b610aa181610a86565b82525050565b6000602082019050610abc6000830184610a98565b92915050565b6000610acd82610666565b9150610ad883610666565b9250828201905080821115610af057610aef61086a565b5b92915050565b610aff81610666565b82525050565b6000606082019050610b1a6000830186610a98565b610b276020830185610af6565b610b346040830184610af6565b949350505050565b6000602082019050610b516000830184610af6565b92915050565b611efd80610b666000396000f3fe608060405234801561001057600080fd5b506004361061014d5760003560e01c80634b7b6c8d116100c3578063a217fddf1161007c578063a217fddf1461038c578063a9059cbb146103aa578063d5391393146103da578063d547741f146103f8578063dd62ed3e14610414578063e63ab1e9146104445761014d565b80634b7b6c8d146102ca5780635c975abb146102e657806370a08231146103045780638456cb591461033457806391d148541461033e57806395d89b411461036e5761014d565b8063248a9ca311610115578063248a9ca31461021e5780632f2ff15d1461024e578063313ce5671461026a57806336568abe146102885780633f4ba83a146102a4578063417c73a7146102ae5761014d565b806301ffc9a71461015257806306fdde0314610182578063095ea7b3146101a057806318160ddd146101d057806323b872dd146101ee575b600080fd5b61016c60048036038101906101679190611781565b610462565b60405161017991906117c9565b60405180910390f35b61018a6104dc565b6040516101979190611874565b60405180910390f35b6101ba60048036038101906101b5919061192a565b61056e565b6040516101c791906117c9565b60405180910390f35b6101d8610591565b6040516101e59190611979565b60405180910390f35b61020860048036038101906102039190611994565b61059b565b60405161021591906117c9565b60405180910390f35b61023860048036038101906102339190611a1d565b6105ca565b6040516102459190611a59565b60405180910390f35b61026860048036038101906102639190611a74565b6105ea565b005b61027261060c565b60405161027f9190611ad0565b60405180910390f35b6102a2600480360381019061029d9190611a74565b610615565b005b6102ac610690565b005b6102c860048036038101906102c39190611aeb565b6106c5565b005b6102e460048036038101906102df9190611aeb565b610866565b005b6102ee610999565b6040516102fb91906117c9565b60405180910390f35b61031e60048036038101906103199190611aeb565b6109b0565b60405161032b9190611979565b60405180910390f35b61033c6109f8565b005b61035860048036038101906103539190611a74565b610a2d565b60405161036591906117c9565b60405180910390f35b610376610a98565b6040516103839190611874565b60405180910390f35b610394610b2a565b6040516103a19190611a59565b60405180910390f35b6103c460048036038101906103bf919061192a565b610b31565b6040516103d191906117c9565b60405180910390f35b6103e2610c76565b6040516103ef9190611a59565b60405180910390f35b610412600480360381019061040d9190611a74565b610c9a565b005b61042e60048036038101906104299190611b18565b610cbc565b60405161043b9190611979565b60405180910390f35b61044c610d43565b6040516104599190611a59565b60405180910390f35b60007f7965db0b000000000000000000000000000000000000000000000000000000007bffffffffffffffffffffffffffffffffffffffffffffffffffffffff1916827bffffffffffffffffffffffffffffffffffffffffffffffffffffffff191614806104d557506104d482610d67565b5b9050919050565b6060600380546104eb90611b87565b80601f016020809104026020016040519081016040528092919081815260200182805461051790611b87565b80156105645780601f1061053957610100808354040283529160200191610564565b820191906000526020600020905b81548152906001019060200180831161054757829003601f168201915b5050505050905090565b600080610579610dd1565b9050610586818585610dd9565b600191505092915050565b6000600254905090565b6000806105a6610dd1565b90506105b3858285610deb565b6105be858585610e80565b60019150509392505050565b600060066000838152602001908152602001600020600101549050919050565b6105f3826105ca565b6105fc81610f74565b6106068383610f88565b50505050565b60006012905090565b61061d610dd1565b73ffffffffffffffffffffffffffffffffffffffff168173ffffffffffffffffffffffffffffffffffffffff1614610681576040517f6697b23200000000000000000000000000000000000000000000000000000000815260040160405180910390fd5b61068b828261107a565b505050565b7f65d7a28e3265b37a6474929f336521b332c1681b933f6cb9f3376673440d862a6106ba81610f74565b6106c261116d565b50565b6000801b6106d281610f74565b3373ffffffffffffffffffffffffffffffffffffffff168273ffffffffffffffffffffffffffffffffffffffff1603610740576040517f08c379a000000000000000000000000000000000000000000000000000000000815260040161073790611c2a565b60405180910390fd5b60011515600760008473ffffffffffffffffffffffffffffffffffffffff1673ffffffffffffffffffffffffffffffffffffffff16815260200190815260200160002060009054906101000a900460ff161515036107d3576040517f08c379a00000000000000000000000000000000000000000000000000000000081526004016107ca90611cbc565b60405180910390fd5b6001600760008473ffffffffffffffffffffffffffffffffffffffff1673ffffffffffffffffffffffffffffffffffffffff16815260200190815260200160002060006101000a81548160ff0219169083151502179055507f998b3334a1ad81a6e7aab46d4dc8ee8a37b914c36425ef4c6ec07806f9eaa52a8260405161085a9190611ceb565b60405180910390a15050565b6000801b61087381610f74565b60001515600760008473ffffffffffffffffffffffffffffffffffffffff1673ffffffffffffffffffffffffffffffffffffffff16815260200190815260200160002060009054906101000a900460ff16151503610906576040517f08c379a00000000000000000000000000000000000000000000000000000000081526004016108fd90611d78565b60405180910390fd5b6000600760008473ffffffffffffffffffffffffffffffffffffffff1673ffffffffffffffffffffffffffffffffffffffff16815260200190815260200160002060006101000a81548160ff0219169083151502179055507f66e930b30ec1160b44cc7399577423ee97399b46360a099f41ada983000b5eed8260405161098d9190611ceb565b60405180910390a15050565b6000600560009054906101000a900460ff16905090565b60008060008373ffffffffffffffffffffffffffffffffffffffff1673ffffffffffffffffffffffffffffffffffffffff168152602001908152602001600020549050919050565b7f65d7a28e3265b37a6474929f336521b332c1681b933f6cb9f3376673440d862a610a2281610f74565b610a2a6111d0565b50565b60006006600084815260200190815260200160002060000160008373ffffffffffffffffffffffffffffffffffffffff1673ffffffffffffffffffffffffffffffffffffffff16815260200190815260200160002060009054906101000a900460ff16905092915050565b606060048054610aa790611b87565b80601f0160208091040260200160405190810160405280929190818152602001828054610ad390611b87565b8015610b205780601f10610af557610100808354040283529160200191610b20565b820191906000526020600020905b815481529060010190602001808311610b0357829003601f168201915b5050505050905090565b6000801b81565b6000610b3b611233565b60011515600760003373ffffffffffffffffffffffffffffffffffffffff1673ffffffffffffffffffffffffffffffffffffffff16815260200190815260200160002060009054906101000a900460ff16151503610bce576040517f08c379a0000000000000000000000000000000000000000000000000000000008152600401610bc590611de4565b60405180910390fd5b60011515600760008573ffffffffffffffffffffffffffffffffffffffff1673ffffffffffffffffffffffffffffffffffffffff16815260200190815260200160002060009054906101000a900460ff16151503610c61576040517f08c379a0000000000000000000000000000000000000000000000000000000008152600401610c5890611de4565b60405180910390fd5b610c6b8383611274565b506001905092915050565b7f9f2df0fed2c77648de5860a4cc508cd0818c85b8b8a1ab4ceeef8d981c8956a681565b610ca3826105ca565b610cac81610f74565b610cb6838361107a565b50505050565b6000600160008473ffffffffffffffffffffffffffffffffffffffff1673ffffffffffffffffffffffffffffffffffffffff16815260200190815260200160002060008373ffffffffffffffffffffffffffffffffffffffff1673ffffffffffffffffffffffffffffffffffffffff16815260200190815260200160002054905092915050565b7f65d7a28e3265b37a6474929f336521b332c1681b933f6cb9f3376673440d862a81565b60007f01ffc9a7000000000000000000000000000000000000000000000000000000007bffffffffffffffffffffffffffffffffffffffffffffffffffffffff1916827bffffffffffffffffffffffffffffffffffffffffffffffffffffffff1916149050919050565b600033905090565b610de68383836001611297565b505050565b6000610df78484610cbc565b90507fffffffffffffffffffffffffffffffffffffffffffffffffffffffffffffffff811015610e7a5781811015610e6a578281836040517ffb8f41b2000000000000000000000000000000000000000000000000000000008152600401610e6193929190611e04565b60405180910390fd5b610e7984848484036000611297565b5b50505050565b600073ffffffffffffffffffffffffffffffffffffffff168373ffffffffffffffffffffffffffffffffffffffff1603610ef25760006040517f96c6fd1e000000000000000000000000000000000000000000000000000000008152600401610ee99190611ceb565b60405180910390fd5b600073ffffffffffffffffffffffffffffffffffffffff168273ffffffffffffffffffffffffffffffffffffffff1603610f645760006040517fec442f05000000000000000000000000000000000000000000000000000000008152600401610f5b9190611ceb565b60405180910390fd5b610f6f83838361146e565b505050565b610f8581610f80610dd1565b611693565b50565b6000610f948383610a2d565b61106f5760016006600085815260200190815260200160002060000160008473ffffffffffffffffffffffffffffffffffffffff1673ffffffffffffffffffffffffffffffffffffffff16815260200190815260200160002060006101000a81548160ff02191690831515021790555061100c610dd1565b73ffffffffffffffffffffffffffffffffffffffff168273ffffffffffffffffffffffffffffffffffffffff16847f2f8788117e7eff1d82e926ec794901d17c78024a50270940304540a733656f0d60405160405180910390a460019050611074565b600090505b92915050565b60006110868383610a2d565b156111625760006006600085815260200190815260200160002060000160008473ffffffffffffffffffffffffffffffffffffffff1673ffffffffffffffffffffffffffffffffffffffff16815260200190815260200160002060006101000a81548160ff0219169083151502179055506110ff610dd1565b73ffffffffffffffffffffffffffffffffffffffff168273ffffffffffffffffffffffffffffffffffffffff16847ff6391f5c32d9c69d2a47ea670b442974b53935d1edc7fd64eb21e047a839171b60405160405180910390a460019050611167565b600090505b92915050565b6111756116e4565b6000600560006101000a81548160ff0219169083151502179055507f5db9ee0a495bf2e6ff9c91a7834c1ba4fdd244a5e8aa4e537bd38aeae4b073aa6111b9610dd1565b6040516111c69190611ceb565b60405180910390a1565b6111d8611233565b6001600560006101000a81548160ff0219169083151502179055507f62e78cea01bee320cd4e420270b5ea74000d11b0c9f74754ebdbfc544b05a25861121c610dd1565b6040516112299190611ceb565b60405180910390a1565b61123b610999565b15611272576040517fd93c066500000000000000000000000000000000000000000000000000000000815260040160405180910390fd5b565b60008061127f610dd1565b905061128c818585610e80565b600191505092915050565b600073ffffffffffffffffffffffffffffffffffffffff168473ffffffffffffffffffffffffffffffffffffffff16036113095760006040517fe602df050000000000000000000000000000000000000000000000000000000081526004016113009190611ceb565b60405180910390fd5b600073ffffffffffffffffffffffffffffffffffffffff168373ffffffffffffffffffffffffffffffffffffffff160361137b5760006040517f94280d620000000000000000000000000000000000000000000000000000000081526004016113729190611ceb565b60405180910390fd5b81600160008673ffffffffffffffffffffffffffffffffffffffff1673ffffffffffffffffffffffffffffffffffffffff16815260200190815260200160002060008573ffffffffffffffffffffffffffffffffffffffff1673ffffffffffffffffffffffffffffffffffffffff168152602001908152602001600020819055508015611468578273ffffffffffffffffffffffffffffffffffffffff168473ffffffffffffffffffffffffffffffffffffffff167f8c5be1e5ebec7d5bd14f71427d1e84f3dd0314c0f7b2291e5b200ac8c7c3b9258460405161145f9190611979565b60405180910390a35b50505050565b600073ffffffffffffffffffffffffffffffffffffffff168373ffffffffffffffffffffffffffffffffffffffff16036114c05780600260008282546114b49190611e6a565b92505081905550611593565b60008060008573ffffffffffffffffffffffffffffffffffffffff1673ffffffffffffffffffffffffffffffffffffffff1681526020019081526020016000205490508181101561154c578381836040517fe450d38c00000000000000000000000000000000000000000000000000000000815260040161154393929190611e04565b60405180910390fd5b8181036000808673ffffffffffffffffffffffffffffffffffffffff1673ffffffffffffffffffffffffffffffffffffffff16815260200190815260200160002081905550505b600073ffffffffffffffffffffffffffffffffffffffff168273ffffffffffffffffffffffffffffffffffffffff16036115dc5780600260008282540392505081905550611629565b806000808473ffffffffffffffffffffffffffffffffffffffff1673ffffffffffffffffffffffffffffffffffffffff168152602001908152602001600020600082825401925050819055505b8173ffffffffffffffffffffffffffffffffffffffff168373ffffffffffffffffffffffffffffffffffffffff167fddf252ad1be2c89b69c2b068fc378daa952ba7f163c4a11628f55a4df523b3ef836040516116869190611979565b60405180910390a3505050565b61169d8282610a2d565b6116e05780826040517fe2517d3f0000000000000000000000000000000000000000000000000000000081526004016116d7929190611e9e565b60405180910390fd5b5050565b6116ec610999565b611722576040517f8dfc202b00000000000000000000000000000000000000000000000000000000815260040160405180910390fd5b565b600080fd5b60007fffffffff0000000000000000000000000000000000000000000000000000000082169050919050565b61175e81611729565b811461176957600080fd5b50565b60008135905061177b81611755565b92915050565b60006020828403121561179757611796611724565b5b60006117a58482850161176c565b91505092915050565b60008115159050919050565b6117c3816117ae565b82525050565b60006020820190506117de60008301846117ba565b92915050565b600081519050919050565b600082825260208201905092915050565b60005b8381101561181e578082015181840152602081019050611803565b60008484015250505050565b6000601f19601f8301169050919050565b6000611846826117e4565b61185081856117ef565b9350611860818560208601611800565b6118698161182a565b840191505092915050565b6000602082019050818103600083015261188e818461183b565b905092915050565b600073ffffffffffffffffffffffffffffffffffffffff82169050919050565b60006118c182611896565b9050919050565b6118d1816118b6565b81146118dc57600080fd5b50565b6000813590506118ee816118c8565b92915050565b6000819050919050565b611907816118f4565b811461191257600080fd5b50565b600081359050611924816118fe565b92915050565b6000806040838503121561194157611940611724565b5b600061194f858286016118df565b925050602061196085828601611915565b9150509250929050565b611973816118f4565b82525050565b600060208201905061198e600083018461196a565b92915050565b6000806000606084860312156119ad576119ac611724565b5b60006119bb868287016118df565b93505060206119cc868287016118df565b92505060406119dd86828701611915565b9150509250925092565b6000819050919050565b6119fa816119e7565b8114611a0557600080fd5b50565b600081359050611a17816119f1565b92915050565b600060208284031215611a3357611a32611724565b5b6000611a4184828501611a08565b91505092915050565b611a53816119e7565b82525050565b6000602082019050611a6e6000830184611a4a565b92915050565b60008060408385031215611a8b57611a8a611724565b5b6000611a9985828601611a08565b9250506020611aaa858286016118df565b9150509250929050565b600060ff82169050919050565b611aca81611ab4565b82525050565b6000602082019050611ae56000830184611ac1565b92915050565b600060208284031215611b0157611b00611724565b5b6000611b0f848285016118df565b91505092915050565b60008060408385031215611b2f57611b2e611724565b5b6000611b3d858286016118df565b9250506020611b4e858286016118df565b9150509250929050565b7f4e487b7100000000000000000000000000000000000000000000000000000000600052602260045260246000fd5b60006002820490506001821680611b9f57607f821691505b602082108103611bb257611bb1611b58565b5b50919050565b7f796f752063616e2774206164642061646d696e20746f2074686520626c61636b60008201527f6c69737420210000000000000000000000000000000000000000000000000000602082015250565b6000611c146026836117ef565b9150611c1f82611bb8565b604082019050919050565b60006020820190508181036000830152611c4381611c07565b9050919050565b7f54686973206164647265737320697320616c7265616479206f6e20746865206260008201527f6c61636b6c697374202100000000000000000000000000000000000000000000602082015250565b6000611ca6602a836117ef565b9150611cb182611c4a565b604082019050919050565b60006020820190508181036000830152611cd581611c99565b9050919050565b611ce5816118b6565b82525050565b6000602082019050611d006000830184611cdc565b92915050565b7f5468697320616464726573732069736e2774206f6e2074686520626c61636b6c60008201527f6973742021000000000000000000000000000000000000000000000000000000602082015250565b6000611d626025836117ef565b9150611d6d82611d06565b604082019050919050565b60006020820190508181036000830152611d9181611d55565b9050919050565b7f546869732061646472657373206973206f6e20426c61636b6c69737400000000600082015250565b6000611dce601c836117ef565b9150611dd982611d98565b602082019050919050565b60006020820190508181036000830152611dfd81611dc1565b9050919050565b6000606082019050611e196000830186611cdc565b611e26602083018561196a565b611e33604083018461196a565b949350505050565b7f4e487b7100000000000000000000000000000000000000000000000000000000600052601160045260246000fd5b6000611e75826118f4565b9150611e80836118f4565b9250828201905080821115611e9857611e97611e3b565b5b92915050565b6000604082019050611eb36000830185611cdc565b611ec06020830184611a4a565b939250505056fea26469706673582212203cc4bbf6dfa76cd5ba30499f15bd5dc58bb555cf5ffc1f4bad1f2c2a8b9f47bd64736f6c634300081c0033",
  "linkReferences": {},
  "deployedLinkReferences": {}
}