{
  "_format": "hh-sol-artifact-1",
  "contractName": "RItem",
  "sourceName": "contracts/NFT",
  "abi": [
    {
      "inputs": [],
      "stateMutability": "nonpayable",
      "type": "constructor"
    },
    {
      "inputs": [
        {
          "internalType": "address",
          "name": "sender",
          "type": "address"
        },
        {
          "internalType": "uint256",
          "name": "tokenId",
          "type": "uint256"
        },
        {
          "internalType": "address",
          "name": "owner",
          "type": "address"
        }
      ],
      "name": "ERC721IncorrectOwner",
      "type": "error"
    },
    {
      "inputs": [
        {
          "internalType": "address",
          "name": "operator",
          "type": "address"
        },
        {
          "internalType": "uint256",
          "name": "tokenId",
          "type": "uint256"
        }
      ],
      "name": "ERC721InsufficientApproval",
      "type": "error"
    },
    {
      "inputs": [
        {
          "internalType": "address",
          "name": "approver",
          "type": "address"
        }
      ],
      "name": "ERC721InvalidApprover",
      "type": "error"
    },
    {
      "inputs": [
        {
          "internalType": "address",
          "name": "operator",
          "type": "address"
        }
      ],
      "name": "ERC721InvalidOperator",
      "type": "error"
    },
    {
      "inputs": [
        {
          "internalType": "address",
          "name": "owner",
          "type": "address"
        }
      ],
      "name": "ERC721InvalidOwner",
      "type": "error"
    },
    {
      "inputs": [
        {
          "internalType": "address",
          "name": "receiver",
          "type": "address"
        }
      ],
      "name": "ERC721InvalidReceiver",
      "type": "error"
    },
    {
      "inputs": [
        {
          "internalType": "address",
          "name": "sender",
          "type": "address"
        }
      ],
      "name": "ERC721InvalidSender",
      "type": "error"
    },
    {
      "inputs": [
        {
          "internalType": "uint256",
          "name": "tokenId",
          "type": "uint256"
        }
      ],
      "name": "ERC721NonexistentToken",
      "type": "error"
    },
    {
      "inputs": [
        {
          "internalType": "address",
          "name": "owner",
          "type": "address"
        }
      ],
      "name": "OwnableInvalidOwner",
      "type": "error"
    },
    {
      "inputs": [
        {
          "internalType": "address",
          "name": "account",
          "type": "address"
        }
      ],
      "name": "OwnableUnauthorizedAccount",
      "type": "error"
    },
    {
      "anonymous": false,
      "inputs": [
        {
          "indexed": true,
          "internalType": "address",
          "name": "owner",
          "type": "address"
        },
        {
          "indexed": true,
          "internalType": "address",
          "name": "approved",
          "type": "address"
        },
        {
          "indexed": true,
          "internalType": "uint256",
          "name": "tokenId",
          "type": "uint256"
        }
      ],
      "name": "Approval",
      "type": "event"
    },
    {
      "anonymous": false,
      "inputs": [
        {
          "indexed": true,
          "internalType": "address",
          "name": "owner",
          "type": "address"
        },
        {
          "indexed": true,
          "internalType": "address",
          "name": "operator",
          "type": "address"
        },
        {
          "indexed": false,
          "internalType": "bool",
          "name": "approved",
          "type": "bool"
        }
      ],
      "name": "ApprovalForAll",
      "type": "event"
    },
    {
      "anonymous": false,
      "inputs": [
        {
          "indexed": false,
          "internalType": "uint256",
          "name": "_fromTokenId",
          "type": "uint256"
        },
        {
          "indexed": false,
          "internalType": "uint256",
          "name": "_toTokenId",
          "type": "uint256"
        }
      ],
      "name": "BatchMetadataUpdate",
      "type": "event"
    },
    {
      "anonymous": false,
      "inputs": [
        {
          "indexed": false,
          "internalType": "uint256",
          "name": "_tokenId",
          "type": "uint256"
        }
      ],
      "name": "MetadataUpdate",
      "type": "event"
    },
    {
      "anonymous": false,
      "inputs": [
        {
          "indexed": true,
          "internalType": "address",
          "name": "previousOwner",
          "type": "address"
        },
        {
          "indexed": true,
          "internalType": "address",
          "name": "newOwner",
          "type": "address"
        }
      ],
      "name": "OwnershipTransferred",
      "type": "event"
    },
    {
      "anonymous": false,
      "inputs": [
        {
          "indexed": true,
          "internalType": "address",
          "name": "from",
          "type": "address"
        },
        {
          "indexed": true,
          "internalType": "address",
          "name": "to",
          "type": "address"
        },
        {
          "indexed": true,
          "internalType": "uint256",
          "name": "tokenId",
          "type": "uint256"
        }
      ],
      "name": "Transfer",
      "type": "event"
    },
    {
      "inputs": [
        {
          "internalType": "string",
          "name": "token",
          "type": "string"
        }
      ],
      "name": "_updateBaseURI",
      "outputs": [],
      "stateMutability": "nonpayable",
      "type": "function"
    },
    {
      "inputs": [
        {
          "internalType": "address",
          "name": "to",
          "type": "address"
        },
        {
          "internalType": "uint256",
          "name": "tokenId",
          "type": "uint256"
        }
      ],
      "name": "approve",
      "outputs": [],
      "stateMutability": "nonpayable",
      "type": "function"
    },
    {
      "inputs": [
        {
          "internalType": "address",
          "name": "owner",
          "type": "address"
        }
      ],
      "name": "balanceOf",
      "outputs": [
        {
          "internalType": "uint256",
          "name": "",
          "type": "uint256"
        }
      ],
      "stateMutability": "view",
      "type": "function"
    },
    {
      "inputs": [
        {
          "internalType": "uint256",
          "name": "tokenId",
          "type": "uint256"
        }
      ],
      "name": "getApproved",
      "outputs": [
        {
          "internalType": "address",
          "name": "",
          "type": "address"
        }
      ],
      "stateMutability": "view",
      "type": "function"
    },
    {
      "inputs": [
        {
          "internalType": "address",
          "name": "owner",
          "type": "address"
        },
        {
          "internalType": "address",
          "name": "operator",
          "type": "address"
        }
      ],
      "name": "isApprovedForAll",
      "outputs": [
        {
          "internalType": "bool",
          "name": "",
          "type": "bool"
        }
      ],
      "stateMutability": "view",
      "type": "function"
    },
    {
      "inputs": [
        {
          "internalType": "address",
          "name": "to",
          "type": "address"
        },
        {
          "internalType": "string",
          "name": "_uri",
          "type": "string"
        }
      ],
      "name": "mintWithURI",
      "outputs": [
        {
          "internalType": "uint256",
          "name": "id",
          "type": "uint256"
        }
      ],
      "stateMutability": "nonpayable",
      "type": "function"
    },
    {
      "inputs": [],
      "name": "name",
      "outputs": [
        {
          "internalType": "string",
          "name": "",
          "type": "string"
        }
      ],
      "stateMutability": "view",
      "type": "function"
    },
    {
      "inputs": [],
      "name": "owner",
      "outputs": [
        {
          "internalType": "address",
          "name": "",
          "type": "address"
        }
      ],
      "stateMutability": "view",
      "type": "function"
    },
    {
      "inputs": [
        {
          "internalType": "uint256",
          "name": "tokenId",
          "type": "uint256"
        }
      ],
      "name": "ownerOf",
      "outputs": [
        {
          "internalType": "address",
          "name": "",
          "type": "address"
        }
      ],
      "stateMutability": "view",
      "type": "function"
    },
    {
      "inputs": [],
      "name": "renounceOwnership",
      "outputs": [],
      "stateMutability": "nonpayable",
      "type": "function"
    },
    {
      "inputs": [
        {
          "internalType": "address",
          "name": "from",
          "type": "address"
        },
        {
          "internalType": "address",
          "name": "to",
          "type": "address"
        },
        {
          "internalType": "uint256",
          "name": "tokenId",
          "type": "uint256"
        }
      ],
      "name": "safeTransferFrom",
      "outputs": [],
      "stateMutability": "nonpayable",
      "type": "function"
    },
    {
      "inputs": [
        {
          "internalType": "address",
          "name": "from",
          "type": "address"
        },
        {
          "internalType": "address",
          "name": "to",
          "type": "address"
        },
        {
          "internalType": "uint256",
          "name": "tokenId",
          "type": "uint256"
        },
        {
          "internalType": "bytes",
          "name": "data",
          "type": "bytes"
        }
      ],
      "name": "safeTransferFrom",
      "outputs": [],
      "stateMutability": "nonpayable",
      "type": "function"
    },
    {
      "inputs": [
        {
          "internalType": "address",
          "name": "operator",
          "type": "address"
        },
        {
          "internalType": "bool",
          "name": "approved",
          "type": "bool"
        }
      ],
      "name": "setApprovalForAll",
      "outputs": [],
      "stateMutability": "nonpayable",
      "type": "function"
    },
    {
      "inputs": [
        {
          "internalType": "bytes4",
          "name": "interfaceId",
          "type": "bytes4"
        }
      ],
      "name": "supportsInterface",
      "outputs": [
        {
          "internalType": "bool",
          "name": "",
          "type": "bool"
        }
      ],
      "stateMutability": "view",
      "type": "function"
    },
    {
      "inputs": [],
      "name": "symbol",
      "outputs": [
        {
          "internalType": "string",
          "name": "",
          "type": "string"
        }
      ],
      "stateMutability": "view",
      "type": "function"
    },
    {
      "inputs": [
        {
          "internalType": "uint256",
          "name": "tokenId",
          "type": "uint256"
        }
      ],
      "name": "tokenURI",
      "outputs": [
        {
          "internalType": "string",
          "name": "",
          "type": "string"
        }
      ],
      "stateMutability": "view",
      "type": "function"
    },
    {
      "inputs": [
        {
          "internalType": "address",
          "name": "from",
          "type": "address"
        },
        {
          "internalType": "address",
          "name": "to",
          "type": "address"
        },
        {
          "internalType": "uint256",
          "name": "tokenId",
          "type": "uint256"
        }
      ],
      "name": "transferFrom",
      "outputs": [],
      "stateMutability": "nonpayable",
      "type": "function"
    },
    {
      "inputs": [
        {
          "internalType": "address",
          "name": "newOwner",
          "type": "address"
        }
      ],
      "name": "transferOwnership",
      "outputs": [],
      "stateMutability": "nonpayable",
      "type": "function"
    }
  ],
  "bytecode": "0x6080604052600060085534801561001557600080fd5b50336040518060400160405280601181526020017f436f6f6b696573204578636c75736976650000000000000000000000000000008152506040518060400160405280600281526020017f434500000000000000000000000000000000000000000000000000000000000081525081600090816100929190610442565b5080600190816100a29190610442565b505050600073ffffffffffffffffffffffffffffffffffffffff168173ffffffffffffffffffffffffffffffffffffffff16036101175760006040517f1e4fbdf700000000000000000000000000000000000000000000000000000000815260040161010e9190610555565b60405180910390fd5b6101268161012c60201b60201c565b50610570565b6000600660009054906101000a900473ffffffffffffffffffffffffffffffffffffffff16905081600660006101000a81548173ffffffffffffffffffffffffffffffffffffffff021916908373ffffffffffffffffffffffffffffffffffffffff1602179055508173ffffffffffffffffffffffffffffffffffffffff168173ffffffffffffffffffffffffffffffffffffffff167f8be0079c531659141344cd1fd0a4f28419497f9722a3daafe3b4186f6b6457e060405160405180910390a35050565b600081519050919050565b7f4e487b7100000000000000000000000000000000000000000000000000000000600052604160045260246000fd5b7f4e487b7100000000000000000000000000000000000000000000000000000000600052602260045260246000fd5b6000600282049050600182168061027357607f821691505b6020821081036102865761028561022c565b5b50919050565b60008190508160005260206000209050919050565b60006020601f8301049050919050565b600082821b905092915050565b6000600883026102ee7fffffffffffffffffffffffffffffffffffffffffffffffffffffffffffffffff826102b1565b6102f886836102b1565b95508019841693508086168417925050509392505050565b6000819050919050565b6000819050919050565b600061033f61033a61033584610310565b61031a565b610310565b9050919050565b6000819050919050565b61035983610324565b61036d61036582610346565b8484546102be565b825550505050565b600090565b610382610375565b61038d818484610350565b505050565b5b818110156103b1576103a660008261037a565b600181019050610393565b5050565b601f8211156103f6576103c78161028c565b6103d0846102a1565b810160208510156103df578190505b6103f36103eb856102a1565b830182610392565b50505b505050565b600082821c905092915050565b6000610419600019846008026103fb565b1980831691505092915050565b60006104328383610408565b9150826002028217905092915050565b61044b826101f2565b67ffffffffffffffff811115610464576104636101fd565b5b61046e825461025b565b6104798282856103b5565b600060209050601f8311600181146104ac576000841561049a578287015190505b6104a48582610426565b86555061050c565b601f1984166104ba8661028c565b60005b828110156104e2578489015182556001820191506020850194506020810190506104bd565b868310156104ff57848901516104fb601f891682610408565b8355505b6001600288020188555050505b505050505050565b600073ffffffffffffffffffffffffffffffffffffffff82169050919050565b600061053f82610514565b9050919050565b61054f81610534565b82525050565b600060208201905061056a6000830184610546565b92915050565b61276b8061057f6000396000f3fe608060405234801561001057600080fd5b50600436106101165760003560e01c8063715018a6116100a2578063a22cb46511610071578063a22cb465146102df578063b88d4fde146102fb578063c87b56dd14610317578063e985e9c514610347578063f2fde38b1461037757610116565b8063715018a61461027d5780638da5cb5b1461028757806395d89b41146102a557806399831924146102c357610116565b80630e980602116100e95780630e980602146101b557806323b872dd146101e557806342842e0e146102015780636352211e1461021d57806370a082311461024d57610116565b806301ffc9a71461011b57806306fdde031461014b578063081812fc14610169578063095ea7b314610199575b600080fd5b61013560048036038101906101309190611b7a565b610393565b6040516101429190611bc2565b60405180910390f35b6101536103a5565b6040516101609190611c6d565b60405180910390f35b610183600480360381019061017e9190611cc5565b610437565b6040516101909190611d33565b60405180910390f35b6101b360048036038101906101ae9190611d7a565b610453565b005b6101cf60048036038101906101ca9190611eef565b610469565b6040516101dc9190611f5a565b60405180910390f35b6101ff60048036038101906101fa9190611f75565b6104b0565b005b61021b60048036038101906102169190611f75565b6105b2565b005b61023760048036038101906102329190611cc5565b6105d2565b6040516102449190611d33565b60405180910390f35b61026760048036038101906102629190611fc8565b6105e4565b6040516102749190611f5a565b60405180910390f35b61028561069e565b005b61028f6106b2565b60405161029c9190611d33565b60405180910390f35b6102ad6106dc565b6040516102ba9190611c6d565b60405180910390f35b6102dd60048036038101906102d89190611ff5565b61076e565b005b6102f960048036038101906102f4919061206a565b610789565b005b6103156004803603810190610310919061214b565b61079f565b005b610331600480360381019061032c9190611cc5565b6107c4565b60405161033e9190611c6d565b60405180910390f35b610361600480360381019061035c91906121ce565b6107d6565b60405161036e9190611bc2565b60405180910390f35b610391600480360381019061038c9190611fc8565b61086a565b005b600061039e826108f0565b9050919050565b6060600080546103b49061223d565b80601f01602080910402602001604051908101604052809291908181526020018280546103e09061223d565b801561042d5780601f106104025761010080835404028352916020019161042d565b820191906000526020600020905b81548152906001019060200180831161041057829003601f168201915b5050505050905090565b600061044282610951565b5061044c826109d9565b9050919050565b6104658282610460610a16565b610a1e565b5050565b6000610473610a30565b600860008154809291906104869061229d565b91905055506000600854905061049c8482610ab7565b6104a68184610bb0565b8091505092915050565b600073ffffffffffffffffffffffffffffffffffffffff168273ffffffffffffffffffffffffffffffffffffffff16036105225760006040517f64a0ae920000000000000000000000000000000000000000000000000000000081526004016105199190611d33565b60405180910390fd5b60006105368383610531610a16565b610c0c565b90508373ffffffffffffffffffffffffffffffffffffffff168173ffffffffffffffffffffffffffffffffffffffff16146105ac578382826040517f64283d7b0000000000000000000000000000000000000000000000000000000081526004016105a3939291906122e5565b60405180910390fd5b50505050565b6105cd8383836040518060200160405280600081525061079f565b505050565b60006105dd82610951565b9050919050565b60008073ffffffffffffffffffffffffffffffffffffffff168273ffffffffffffffffffffffffffffffffffffffff16036106575760006040517f89c62b6400000000000000000000000000000000000000000000000000000000815260040161064e9190611d33565b60405180910390fd5b600360008373ffffffffffffffffffffffffffffffffffffffff1673ffffffffffffffffffffffffffffffffffffffff168152602001908152602001600020549050919050565b6106a6610a30565b6106b06000610e26565b565b6000600660009054906101000a900473ffffffffffffffffffffffffffffffffffffffff16905090565b6060600180546106eb9061223d565b80601f01602080910402602001604051908101604052809291908181526020018280546107179061223d565b80156107645780601f1061073957610100808354040283529160200191610764565b820191906000526020600020905b81548152906001019060200180831161074757829003601f168201915b5050505050905090565b610776610a30565b806009908161078591906124c8565b5050565b61079b610794610a16565b8383610eec565b5050565b6107aa8484846104b0565b6107be6107b5610a16565b8585858561105b565b50505050565b60606107cf8261120c565b9050919050565b6000600560008473ffffffffffffffffffffffffffffffffffffffff1673ffffffffffffffffffffffffffffffffffffffff16815260200190815260200160002060008373ffffffffffffffffffffffffffffffffffffffff1673ffffffffffffffffffffffffffffffffffffffff16815260200190815260200160002060009054906101000a900460ff16905092915050565b610872610a30565b600073ffffffffffffffffffffffffffffffffffffffff168173ffffffffffffffffffffffffffffffffffffffff16036108e45760006040517f1e4fbdf70000000000000000000000000000000000000000000000000000000081526004016108db9190611d33565b60405180910390fd5b6108ed81610e26565b50565b6000634906490660e01b7bffffffffffffffffffffffffffffffffffffffffffffffffffffffff1916827bffffffffffffffffffffffffffffffffffffffffffffffffffffffff1916148061094a57506109498261131f565b5b9050919050565b60008061095d83611401565b9050600073ffffffffffffffffffffffffffffffffffffffff168173ffffffffffffffffffffffffffffffffffffffff16036109d057826040517f7e2732890000000000000000000000000000000000000000000000000000000081526004016109c79190611f5a565b60405180910390fd5b80915050919050565b60006004600083815260200190815260200160002060009054906101000a900473ffffffffffffffffffffffffffffffffffffffff169050919050565b600033905090565b610a2b838383600161143e565b505050565b610a38610a16565b73ffffffffffffffffffffffffffffffffffffffff16610a566106b2565b73ffffffffffffffffffffffffffffffffffffffff1614610ab557610a79610a16565b6040517f118cdaa7000000000000000000000000000000000000000000000000000000008152600401610aac9190611d33565b60405180910390fd5b565b600073ffffffffffffffffffffffffffffffffffffffff168273ffffffffffffffffffffffffffffffffffffffff1603610b295760006040517f64a0ae92000000000000000000000000000000000000000000000000000000008152600401610b209190611d33565b60405180910390fd5b6000610b3783836000610c0c565b9050600073ffffffffffffffffffffffffffffffffffffffff168173ffffffffffffffffffffffffffffffffffffffff1614610bab5760006040517f73c6ac6e000000000000000000000000000000000000000000000000000000008152600401610ba29190611d33565b60405180910390fd5b505050565b80600760008481526020019081526020016000209081610bd091906124c8565b507ff8e1a15aba9398e019f0b49df1a4fde98ee17ae345cb5f6b5e2c27f5033e8ce782604051610c009190611f5a565b60405180910390a15050565b600080610c1884611401565b9050600073ffffffffffffffffffffffffffffffffffffffff168373ffffffffffffffffffffffffffffffffffffffff1614610c5a57610c59818486611603565b5b600073ffffffffffffffffffffffffffffffffffffffff168173ffffffffffffffffffffffffffffffffffffffff1614610ceb57610c9c60008560008061143e565b6001600360008373ffffffffffffffffffffffffffffffffffffffff1673ffffffffffffffffffffffffffffffffffffffff168152602001908152602001600020600082825403925050819055505b600073ffffffffffffffffffffffffffffffffffffffff168573ffffffffffffffffffffffffffffffffffffffff1614610d6e576001600360008773ffffffffffffffffffffffffffffffffffffffff1673ffffffffffffffffffffffffffffffffffffffff168152602001908152602001600020600082825401925050819055505b846002600086815260200190815260200160002060006101000a81548173ffffffffffffffffffffffffffffffffffffffff021916908373ffffffffffffffffffffffffffffffffffffffff160217905550838573ffffffffffffffffffffffffffffffffffffffff168273ffffffffffffffffffffffffffffffffffffffff167fddf252ad1be2c89b69c2b068fc378daa952ba7f163c4a11628f55a4df523b3ef60405160405180910390a4809150509392505050565b6000600660009054906101000a900473ffffffffffffffffffffffffffffffffffffffff16905081600660006101000a81548173ffffffffffffffffffffffffffffffffffffffff021916908373ffffffffffffffffffffffffffffffffffffffff1602179055508173ffffffffffffffffffffffffffffffffffffffff168173ffffffffffffffffffffffffffffffffffffffff167f8be0079c531659141344cd1fd0a4f28419497f9722a3daafe3b4186f6b6457e060405160405180910390a35050565b600073ffffffffffffffffffffffffffffffffffffffff168273ffffffffffffffffffffffffffffffffffffffff1603610f5d57816040517f5b08ba18000000000000000000000000000000000000000000000000000000008152600401610f549190611d33565b60405180910390fd5b80600560008573ffffffffffffffffffffffffffffffffffffffff1673ffffffffffffffffffffffffffffffffffffffff16815260200190815260200160002060008473ffffffffffffffffffffffffffffffffffffffff1673ffffffffffffffffffffffffffffffffffffffff16815260200190815260200160002060006101000a81548160ff0219169083151502179055508173ffffffffffffffffffffffffffffffffffffffff168373ffffffffffffffffffffffffffffffffffffffff167f17307eab39ab6107e8899845ad3d59bd9653f200f220920489ca2b5937696c318360405161104e9190611bc2565b60405180910390a3505050565b60008373ffffffffffffffffffffffffffffffffffffffff163b1115611205578273ffffffffffffffffffffffffffffffffffffffff1663150b7a02868685856040518563ffffffff1660e01b81526004016110ba94939291906125ef565b6020604051808303816000875af19250505080156110f657506040513d601f19601f820116820180604052508101906110f39190612650565b60015b61117a573d8060008114611126576040519150601f19603f3d011682016040523d82523d6000602084013e61112b565b606091505b50600081510361117257836040517f64a0ae920000000000000000000000000000000000000000000000000000000081526004016111699190611d33565b60405180910390fd5b805160208201fd5b63150b7a0260e01b7bffffffffffffffffffffffffffffffffffffffffffffffffffffffff1916817bffffffffffffffffffffffffffffffffffffffffffffffffffffffff19161461120357836040517f64a0ae920000000000000000000000000000000000000000000000000000000081526004016111fa9190611d33565b60405180910390fd5b505b5050505050565b606061121782610951565b5060006007600084815260200190815260200160002080546112389061223d565b80601f01602080910402602001604051908101604052809291908181526020018280546112649061223d565b80156112b15780601f10611286576101008083540402835291602001916112b1565b820191906000526020600020905b81548152906001019060200180831161129457829003601f168201915b5050505050905060006112c26116c7565b905060008151036112d757819250505061131a565b60008251111561130c5780826040516020016112f49291906126b9565b6040516020818303038152906040529250505061131a565b61131584611759565b925050505b919050565b60007f80ac58cd000000000000000000000000000000000000000000000000000000007bffffffffffffffffffffffffffffffffffffffffffffffffffffffff1916827bffffffffffffffffffffffffffffffffffffffffffffffffffffffff191614806113ea57507f5b5e139f000000000000000000000000000000000000000000000000000000007bffffffffffffffffffffffffffffffffffffffffffffffffffffffff1916827bffffffffffffffffffffffffffffffffffffffffffffffffffffffff1916145b806113fa57506113f9826117c2565b5b9050919050565b60006002600083815260200190815260200160002060009054906101000a900473ffffffffffffffffffffffffffffffffffffffff169050919050565b80806114775750600073ffffffffffffffffffffffffffffffffffffffff168273ffffffffffffffffffffffffffffffffffffffff1614155b156115ab57600061148784610951565b9050600073ffffffffffffffffffffffffffffffffffffffff168373ffffffffffffffffffffffffffffffffffffffff16141580156114f257508273ffffffffffffffffffffffffffffffffffffffff168173ffffffffffffffffffffffffffffffffffffffff1614155b8015611505575061150381846107d6565b155b1561154757826040517fa9fbf51f00000000000000000000000000000000000000000000000000000000815260040161153e9190611d33565b60405180910390fd5b81156115a957838573ffffffffffffffffffffffffffffffffffffffff168273ffffffffffffffffffffffffffffffffffffffff167f8c5be1e5ebec7d5bd14f71427d1e84f3dd0314c0f7b2291e5b200ac8c7c3b92560405160405180910390a45b505b836004600085815260200190815260200160002060006101000a81548173ffffffffffffffffffffffffffffffffffffffff021916908373ffffffffffffffffffffffffffffffffffffffff16021790555050505050565b61160e83838361182c565b6116c257600073ffffffffffffffffffffffffffffffffffffffff168373ffffffffffffffffffffffffffffffffffffffff160361168357806040517f7e27328900000000000000000000000000000000000000000000000000000000815260040161167a9190611f5a565b60405180910390fd5b81816040517f177e802f0000000000000000000000000000000000000000000000000000000081526004016116b99291906126dd565b60405180910390fd5b505050565b6060600980546116d69061223d565b80601f01602080910402602001604051908101604052809291908181526020018280546117029061223d565b801561174f5780601f106117245761010080835404028352916020019161174f565b820191906000526020600020905b81548152906001019060200180831161173257829003601f168201915b5050505050905090565b606061176482610951565b50600061176f6116c7565b9050600081511161178f57604051806020016040528060008152506117ba565b80611799846118ed565b6040516020016117aa9291906126b9565b6040516020818303038152906040525b915050919050565b60007f01ffc9a7000000000000000000000000000000000000000000000000000000007bffffffffffffffffffffffffffffffffffffffffffffffffffffffff1916827bffffffffffffffffffffffffffffffffffffffffffffffffffffffff1916149050919050565b60008073ffffffffffffffffffffffffffffffffffffffff168373ffffffffffffffffffffffffffffffffffffffff16141580156118e457508273ffffffffffffffffffffffffffffffffffffffff168473ffffffffffffffffffffffffffffffffffffffff1614806118a557506118a484846107d6565b5b806118e357508273ffffffffffffffffffffffffffffffffffffffff166118cb836109d9565b73ffffffffffffffffffffffffffffffffffffffff16145b5b90509392505050565b6060600060016118fc846119bb565b01905060008167ffffffffffffffff81111561191b5761191a611dc4565b5b6040519080825280601f01601f19166020018201604052801561194d5781602001600182028036833780820191505090505b509050600082602083010190505b6001156119b0578080600190039150507f3031323334353637383961626364656600000000000000000000000000000000600a86061a8153600a85816119a4576119a3612706565b5b0494506000850361195b575b819350505050919050565b600080600090507a184f03e93ff9f4daa797ed6e38ed64bf6a1f0100000000000000008310611a19577a184f03e93ff9f4daa797ed6e38ed64bf6a1f0100000000000000008381611a0f57611a0e612706565b5b0492506040810190505b6d04ee2d6d415b85acef81000000008310611a56576d04ee2d6d415b85acef81000000008381611a4c57611a4b612706565b5b0492506020810190505b662386f26fc100008310611a8557662386f26fc100008381611a7b57611a7a612706565b5b0492506010810190505b6305f5e1008310611aae576305f5e1008381611aa457611aa3612706565b5b0492506008810190505b6127108310611ad3576127108381611ac957611ac8612706565b5b0492506004810190505b60648310611af65760648381611aec57611aeb612706565b5b0492506002810190505b600a8310611b05576001810190505b80915050919050565b6000604051905090565b600080fd5b600080fd5b60007fffffffff0000000000000000000000000000000000000000000000000000000082169050919050565b611b5781611b22565b8114611b6257600080fd5b50565b600081359050611b7481611b4e565b92915050565b600060208284031215611b9057611b8f611b18565b5b6000611b9e84828501611b65565b91505092915050565b60008115159050919050565b611bbc81611ba7565b82525050565b6000602082019050611bd76000830184611bb3565b92915050565b600081519050919050565b600082825260208201905092915050565b60005b83811015611c17578082015181840152602081019050611bfc565b60008484015250505050565b6000601f19601f8301169050919050565b6000611c3f82611bdd565b611c498185611be8565b9350611c59818560208601611bf9565b611c6281611c23565b840191505092915050565b60006020820190508181036000830152611c878184611c34565b905092915050565b6000819050919050565b611ca281611c8f565b8114611cad57600080fd5b50565b600081359050611cbf81611c99565b92915050565b600060208284031215611cdb57611cda611b18565b5b6000611ce984828501611cb0565b91505092915050565b600073ffffffffffffffffffffffffffffffffffffffff82169050919050565b6000611d1d82611cf2565b9050919050565b611d2d81611d12565b82525050565b6000602082019050611d486000830184611d24565b92915050565b611d5781611d12565b8114611d6257600080fd5b50565b600081359050611d7481611d4e565b92915050565b60008060408385031215611d9157611d90611b18565b5b6000611d9f85828601611d65565b9250506020611db085828601611cb0565b9150509250929050565b600080fd5b600080fd5b7f4e487b7100000000000000000000000000000000000000000000000000000000600052604160045260246000fd5b611dfc82611c23565b810181811067ffffffffffffffff82111715611e1b57611e1a611dc4565b5b80604052505050565b6000611e2e611b0e565b9050611e3a8282611df3565b919050565b600067ffffffffffffffff821115611e5a57611e59611dc4565b5b611e6382611c23565b9050602081019050919050565b82818337600083830152505050565b6000611e92611e8d84611e3f565b611e24565b905082815260208101848484011115611eae57611ead611dbf565b5b611eb9848285611e70565b509392505050565b600082601f830112611ed657611ed5611dba565b5b8135611ee6848260208601611e7f565b91505092915050565b60008060408385031215611f0657611f05611b18565b5b6000611f1485828601611d65565b925050602083013567ffffffffffffffff811115611f3557611f34611b1d565b5b611f4185828601611ec1565b9150509250929050565b611f5481611c8f565b82525050565b6000602082019050611f6f6000830184611f4b565b92915050565b600080600060608486031215611f8e57611f8d611b18565b5b6000611f9c86828701611d65565b9350506020611fad86828701611d65565b9250506040611fbe86828701611cb0565b9150509250925092565b600060208284031215611fde57611fdd611b18565b5b6000611fec84828501611d65565b91505092915050565b60006020828403121561200b5761200a611b18565b5b600082013567ffffffffffffffff81111561202957612028611b1d565b5b61203584828501611ec1565b91505092915050565b61204781611ba7565b811461205257600080fd5b50565b6000813590506120648161203e565b92915050565b6000806040838503121561208157612080611b18565b5b600061208f85828601611d65565b92505060206120a085828601612055565b9150509250929050565b600067ffffffffffffffff8211156120c5576120c4611dc4565b5b6120ce82611c23565b9050602081019050919050565b60006120ee6120e9846120aa565b611e24565b90508281526020810184848401111561210a57612109611dbf565b5b612115848285611e70565b509392505050565b600082601f83011261213257612131611dba565b5b81356121428482602086016120db565b91505092915050565b6000806000806080858703121561216557612164611b18565b5b600061217387828801611d65565b945050602061218487828801611d65565b935050604061219587828801611cb0565b925050606085013567ffffffffffffffff8111156121b6576121b5611b1d565b5b6121c28782880161211d565b91505092959194509250565b600080604083850312156121e5576121e4611b18565b5b60006121f385828601611d65565b925050602061220485828601611d65565b9150509250929050565b7f4e487b7100000000000000000000000000000000000000000000000000000000600052602260045260246000fd5b6000600282049050600182168061225557607f821691505b6020821081036122685761226761220e565b5b50919050565b7f4e487b7100000000000000000000000000000000000000000000000000000000600052601160045260246000fd5b60006122a882611c8f565b91507fffffffffffffffffffffffffffffffffffffffffffffffffffffffffffffffff82036122da576122d961226e565b5b600182019050919050565b60006060820190506122fa6000830186611d24565b6123076020830185611f4b565b6123146040830184611d24565b949350505050565b60008190508160005260206000209050919050565b60006020601f8301049050919050565b600082821b905092915050565b60006008830261237e7fffffffffffffffffffffffffffffffffffffffffffffffffffffffffffffffff82612341565b6123888683612341565b95508019841693508086168417925050509392505050565b6000819050919050565b60006123c56123c06123bb84611c8f565b6123a0565b611c8f565b9050919050565b6000819050919050565b6123df836123aa565b6123f36123eb826123cc565b84845461234e565b825550505050565b600090565b6124086123fb565b6124138184846123d6565b505050565b5b818110156124375761242c600082612400565b600181019050612419565b5050565b601f82111561247c5761244d8161231c565b61245684612331565b81016020851015612465578190505b61247961247185612331565b830182612418565b50505b505050565b600082821c905092915050565b600061249f60001984600802612481565b1980831691505092915050565b60006124b8838361248e565b9150826002028217905092915050565b6124d182611bdd565b67ffffffffffffffff8111156124ea576124e9611dc4565b5b6124f4825461223d565b6124ff82828561243b565b600060209050601f8311600181146125325760008415612520578287015190505b61252a85826124ac565b865550612592565b601f1984166125408661231c565b60005b8281101561256857848901518255600182019150602085019450602081019050612543565b868310156125855784890151612581601f89168261248e565b8355505b6001600288020188555050505b505050505050565b600081519050919050565b600082825260208201905092915050565b60006125c18261259a565b6125cb81856125a5565b93506125db818560208601611bf9565b6125e481611c23565b840191505092915050565b60006080820190506126046000830187611d24565b6126116020830186611d24565b61261e6040830185611f4b565b818103606083015261263081846125b6565b905095945050505050565b60008151905061264a81611b4e565b92915050565b60006020828403121561266657612665611b18565b5b60006126748482850161263b565b91505092915050565b600081905092915050565b600061269382611bdd565b61269d818561267d565b93506126ad818560208601611bf9565b80840191505092915050565b60006126c58285612688565b91506126d18284612688565b91508190509392505050565b60006040820190506126f26000830185611d24565b6126ff6020830184611f4b565b9392505050565b7f4e487b7100000000000000000000000000000000000000000000000000000000600052601260045260246000fdfea26469706673582212200203310d1b02b9aad30896904a4faeee89b18101e5df6012f31792697eddafac64736f6c634300081c0033",
  "linkReferences": {},
  "deployedLinkReferences": {}
}