{
  "_format": "hh-sol-artifact-1",
  "contractName": "RItem",
  "sourceName": "contracts/NFT/RItem.sol",
  "abi": [
    {
      "inputs": [],
      "stateMutability": "nonpayable",
      "type": "constructor"
    },
    {
      "inputs": [
        {
          "internalType": "address",
          "name": "sender",
          "type": "address"
        },
        {
          "internalType": "uint256",
          "name": "tokenId",
          "type": "uint256"
        },
        {
          "internalType": "address",
          "name": "owner",
          "type": "address"
        }
      ],
      "name": "ERC721IncorrectOwner",
      "type": "error"
    },
    {
      "inputs": [
        {
          "internalType": "address",
          "name": "operator",
          "type": "address"
        },
        {
          "internalType": "uint256",
          "name": "tokenId",
          "type": "uint256"
        }
      ],
      "name": "ERC721InsufficientApproval",
      "type": "error"
    },
    {
      "inputs": [
        {
          "internalType": "address",
          "name": "approver",
          "type": "address"
        }
      ],
      "name": "ERC721InvalidApprover",
      "type": "error"
    },
    {
      "inputs": [
        {
          "internalType": "address",
          "name": "operator",
          "type": "address"
        }
      ],
      "name": "ERC721InvalidOperator",
      "type": "error"
    },
    {
      "inputs": [
        {
          "internalType": "address",
          "name": "owner",
          "type": "address"
        }
      ],
      "name": "ERC721InvalidOwner",
      "type": "error"
    },
    {
      "inputs": [
        {
          "internalType": "address",
          "name": "receiver",
          "type": "address"
        }
      ],
      "name": "ERC721InvalidReceiver",
      "type": "error"
    },
    {
      "inputs": [
        {
          "internalType": "address",
          "name": "sender",
          "type": "address"
        }
      ],
      "name": "ERC721InvalidSender",
      "type": "error"
    },
    {
      "inputs": [
        {
          "internalType": "uint256",
          "name": "tokenId",
          "type": "uint256"
        }
      ],
      "name": "ERC721NonexistentToken",
      "type": "error"
    },
    {
      "inputs": [
        {
          "internalType": "address",
          "name": "owner",
          "type": "address"
        }
      ],
      "name": "OwnableInvalidOwner",
      "type": "error"
    },
    {
      "inputs": [
        {
          "internalType": "address",
          "name": "account",
          "type": "address"
        }
      ],
      "name": "OwnableUnauthorizedAccount",
      "type": "error"
    },
    {
      "anonymous": false,
      "inputs": [
        {
          "indexed": true,
          "internalType": "address",
          "name": "owner",
          "type": "address"
        },
        {
          "indexed": true,
          "internalType": "address",
          "name": "approved",
          "type": "address"
        },
        {
          "indexed": true,
          "internalType": "uint256",
          "name": "tokenId",
          "type": "uint256"
        }
      ],
      "name": "Approval",
      "type": "event"
    },
    {
      "anonymous": false,
      "inputs": [
        {
          "indexed": true,
          "internalType": "address",
          "name": "owner",
          "type": "address"
        },
        {
          "indexed": true,
          "internalType": "address",
          "name": "operator",
          "type": "address"
        },
        {
          "indexed": false,
          "internalType": "bool",
          "name": "approved",
          "type": "bool"
        }
      ],
      "name": "ApprovalForAll",
      "type": "event"
    },
    {
      "anonymous": false,
      "inputs": [
        {
          "indexed": false,
          "internalType": "uint256",
          "name": "_fromTokenId",
          "type": "uint256"
        },
        {
          "indexed": false,
          "internalType": "uint256",
          "name": "_toTokenId",
          "type": "uint256"
        }
      ],
      "name": "BatchMetadataUpdate",
      "type": "event"
    },
    {
      "anonymous": false,
      "inputs": [
        {
          "indexed": false,
          "internalType": "uint256",
          "name": "_tokenId",
          "type": "uint256"
        }
      ],
      "name": "MetadataUpdate",
      "type": "event"
    },
    {
      "anonymous": false,
      "inputs": [
        {
          "indexed": true,
          "internalType": "uint256",
          "name": "tokenId",
          "type": "uint256"
        },
        {
          "indexed": true,
          "internalType": "address",
          "name": "owner",
          "type": "address"
        },
        {
          "indexed": false,
          "internalType": "address",
          "name": "voidAddress",
          "type": "address"
        }
      ],
      "name": "NFTBurn",
      "type": "event"
    },
    {
      "anonymous": false,
      "inputs": [
        {
          "indexed": true,
          "internalType": "address",
          "name": "previousOwner",
          "type": "address"
        },
        {
          "indexed": true,
          "internalType": "address",
          "name": "newOwner",
          "type": "address"
        }
      ],
      "name": "OwnershipTransferred",
      "type": "event"
    },
    {
      "anonymous": false,
      "inputs": [
        {
          "indexed": true,
          "internalType": "address",
          "name": "from",
          "type": "address"
        },
        {
          "indexed": true,
          "internalType": "address",
          "name": "to",
          "type": "address"
        },
        {
          "indexed": true,
          "internalType": "uint256",
          "name": "tokenId",
          "type": "uint256"
        }
      ],
      "name": "Transfer",
      "type": "event"
    },
    {
      "inputs": [
        {
          "internalType": "string",
          "name": "token",
          "type": "string"
        }
      ],
      "name": "_updateBaseURI",
      "outputs": [],
      "stateMutability": "nonpayable",
      "type": "function"
    },
    {
      "inputs": [
        {
          "internalType": "address",
          "name": "to",
          "type": "address"
        },
        {
          "internalType": "uint256",
          "name": "tokenId",
          "type": "uint256"
        }
      ],
      "name": "approve",
      "outputs": [],
      "stateMutability": "nonpayable",
      "type": "function"
    },
    {
      "inputs": [
        {
          "internalType": "address",
          "name": "owner",
          "type": "address"
        }
      ],
      "name": "balanceOf",
      "outputs": [
        {
          "internalType": "uint256",
          "name": "",
          "type": "uint256"
        }
      ],
      "stateMutability": "view",
      "type": "function"
    },
    {
      "inputs": [
        {
          "internalType": "uint256",
          "name": "tokenId",
          "type": "uint256"
        }
      ],
      "name": "burn",
      "outputs": [],
      "stateMutability": "nonpayable",
      "type": "function"
    },
    {
      "inputs": [
        {
          "internalType": "uint256",
          "name": "tokenId",
          "type": "uint256"
        }
      ],
      "name": "getApproved",
      "outputs": [
        {
          "internalType": "address",
          "name": "",
          "type": "address"
        }
      ],
      "stateMutability": "view",
      "type": "function"
    },
    {
      "inputs": [],
      "name": "getBaseURI",
      "outputs": [
        {
          "internalType": "string",
          "name": "",
          "type": "string"
        }
      ],
      "stateMutability": "view",
      "type": "function"
    },
    {
      "inputs": [
        {
          "internalType": "address",
          "name": "owner",
          "type": "address"
        },
        {
          "internalType": "address",
          "name": "operator",
          "type": "address"
        }
      ],
      "name": "isApprovedForAll",
      "outputs": [
        {
          "internalType": "bool",
          "name": "",
          "type": "bool"
        }
      ],
      "stateMutability": "view",
      "type": "function"
    },
    {
      "inputs": [
        {
          "internalType": "address",
          "name": "to",
          "type": "address"
        },
        {
          "internalType": "string",
          "name": "_uri",
          "type": "string"
        }
      ],
      "name": "mintWithURI",
      "outputs": [
        {
          "internalType": "uint256",
          "name": "id",
          "type": "uint256"
        }
      ],
      "stateMutability": "nonpayable",
      "type": "function"
    },
    {
      "inputs": [],
      "name": "name",
      "outputs": [
        {
          "internalType": "string",
          "name": "",
          "type": "string"
        }
      ],
      "stateMutability": "view",
      "type": "function"
    },
    {
      "inputs": [],
      "name": "owner",
      "outputs": [
        {
          "internalType": "address",
          "name": "",
          "type": "address"
        }
      ],
      "stateMutability": "view",
      "type": "function"
    },
    {
      "inputs": [
        {
          "internalType": "uint256",
          "name": "tokenId",
          "type": "uint256"
        }
      ],
      "name": "ownerOf",
      "outputs": [
        {
          "internalType": "address",
          "name": "",
          "type": "address"
        }
      ],
      "stateMutability": "view",
      "type": "function"
    },
    {
      "inputs": [],
      "name": "renounceOwnership",
      "outputs": [],
      "stateMutability": "nonpayable",
      "type": "function"
    },
    {
      "inputs": [
        {
          "internalType": "address",
          "name": "from",
          "type": "address"
        },
        {
          "internalType": "address",
          "name": "to",
          "type": "address"
        },
        {
          "internalType": "uint256",
          "name": "tokenId",
          "type": "uint256"
        }
      ],
      "name": "safeTransferFrom",
      "outputs": [],
      "stateMutability": "nonpayable",
      "type": "function"
    },
    {
      "inputs": [
        {
          "internalType": "address",
          "name": "from",
          "type": "address"
        },
        {
          "internalType": "address",
          "name": "to",
          "type": "address"
        },
        {
          "internalType": "uint256",
          "name": "tokenId",
          "type": "uint256"
        },
        {
          "internalType": "bytes",
          "name": "data",
          "type": "bytes"
        }
      ],
      "name": "safeTransferFrom",
      "outputs": [],
      "stateMutability": "nonpayable",
      "type": "function"
    },
    {
      "inputs": [
        {
          "internalType": "address",
          "name": "operator",
          "type": "address"
        },
        {
          "internalType": "bool",
          "name": "approved",
          "type": "bool"
        }
      ],
      "name": "setApprovalForAll",
      "outputs": [],
      "stateMutability": "nonpayable",
      "type": "function"
    },
    {
      "inputs": [
        {
          "internalType": "bytes4",
          "name": "interfaceId",
          "type": "bytes4"
        }
      ],
      "name": "supportsInterface",
      "outputs": [
        {
          "internalType": "bool",
          "name": "",
          "type": "bool"
        }
      ],
      "stateMutability": "view",
      "type": "function"
    },
    {
      "inputs": [],
      "name": "symbol",
      "outputs": [
        {
          "internalType": "string",
          "name": "",
          "type": "string"
        }
      ],
      "stateMutability": "view",
      "type": "function"
    },
    {
      "inputs": [
        {
          "internalType": "uint256",
          "name": "tokenId",
          "type": "uint256"
        }
      ],
      "name": "tokenURI",
      "outputs": [
        {
          "internalType": "string",
          "name": "",
          "type": "string"
        }
      ],
      "stateMutability": "view",
      "type": "function"
    },
    {
      "inputs": [
        {
          "internalType": "address",
          "name": "from",
          "type": "address"
        },
        {
          "internalType": "address",
          "name": "to",
          "type": "address"
        },
        {
          "internalType": "uint256",
          "name": "tokenId",
          "type": "uint256"
        }
      ],
      "name": "transferFrom",
      "outputs": [],
      "stateMutability": "nonpayable",
      "type": "function"
    },
    {
      "inputs": [
        {
          "internalType": "address",
          "name": "newOwner",
          "type": "address"
        }
      ],
      "name": "transferOwnership",
      "outputs": [],
      "stateMutability": "nonpayable",
      "type": "function"
    }
  ],
  "bytecode": "0x6080604052600060085534801561001557600080fd5b50336040518060400160405280601181526020017f436f6f6b696573204578636c75736976650000000000000000000000000000008152506040518060400160405280600281526020017f434500000000000000000000000000000000000000000000000000000000000081525081600090816100929190610442565b5080600190816100a29190610442565b505050600073ffffffffffffffffffffffffffffffffffffffff168173ffffffffffffffffffffffffffffffffffffffff16036101175760006040517f1e4fbdf700000000000000000000000000000000000000000000000000000000815260040161010e9190610555565b60405180910390fd5b6101268161012c60201b60201c565b50610570565b6000600660009054906101000a900473ffffffffffffffffffffffffffffffffffffffff16905081600660006101000a81548173ffffffffffffffffffffffffffffffffffffffff021916908373ffffffffffffffffffffffffffffffffffffffff1602179055508173ffffffffffffffffffffffffffffffffffffffff168173ffffffffffffffffffffffffffffffffffffffff167f8be0079c531659141344cd1fd0a4f28419497f9722a3daafe3b4186f6b6457e060405160405180910390a35050565b600081519050919050565b7f4e487b7100000000000000000000000000000000000000000000000000000000600052604160045260246000fd5b7f4e487b7100000000000000000000000000000000000000000000000000000000600052602260045260246000fd5b6000600282049050600182168061027357607f821691505b6020821081036102865761028561022c565b5b50919050565b60008190508160005260206000209050919050565b60006020601f8301049050919050565b600082821b905092915050565b6000600883026102ee7fffffffffffffffffffffffffffffffffffffffffffffffffffffffffffffffff826102b1565b6102f886836102b1565b95508019841693508086168417925050509392505050565b6000819050919050565b6000819050919050565b600061033f61033a61033584610310565b61031a565b610310565b9050919050565b6000819050919050565b61035983610324565b61036d61036582610346565b8484546102be565b825550505050565b600090565b610382610375565b61038d818484610350565b505050565b5b818110156103b1576103a660008261037a565b600181019050610393565b5050565b601f8211156103f6576103c78161028c565b6103d0846102a1565b810160208510156103df578190505b6103f36103eb856102a1565b830182610392565b50505b505050565b600082821c905092915050565b6000610419600019846008026103fb565b1980831691505092915050565b60006104328383610408565b9150826002028217905092915050565b61044b826101f2565b67ffffffffffffffff811115610464576104636101fd565b5b61046e825461025b565b6104798282856103b5565b600060209050601f8311600181146104ac576000841561049a578287015190505b6104a48582610426565b86555061050c565b601f1984166104ba8661028c565b60005b828110156104e2578489015182556001820191506020850194506020810190506104bd565b868310156104ff57848901516104fb601f891682610408565b8355505b6001600288020188555050505b505050505050565b600073ffffffffffffffffffffffffffffffffffffffff82169050919050565b600061053f82610514565b9050919050565b61054f81610534565b82525050565b600060208201905061056a6000830184610546565b92915050565b6129438061057f6000396000f3fe608060405234801561001057600080fd5b506004361061012c5760003560e01c8063714c5398116100ad578063a22cb46511610071578063a22cb4651461032f578063b88d4fde1461034b578063c87b56dd14610367578063e985e9c514610397578063f2fde38b146103c75761012c565b8063714c5398146102af578063715018a6146102cd5780638da5cb5b146102d757806395d89b41146102f557806399831924146103135761012c565b806323b872dd116100f457806323b872dd146101fb57806342842e0e1461021757806342966c68146102335780636352211e1461024f57806370a082311461027f5761012c565b806301ffc9a71461013157806306fdde0314610161578063081812fc1461017f578063095ea7b3146101af5780630e980602146101cb575b600080fd5b61014b60048036038101906101469190611d52565b6103e3565b6040516101589190611d9a565b60405180910390f35b6101696103f5565b6040516101769190611e45565b60405180910390f35b61019960048036038101906101949190611e9d565b610487565b6040516101a69190611f0b565b60405180910390f35b6101c960048036038101906101c49190611f52565b6104a3565b005b6101e560048036038101906101e091906120c7565b6104b9565b6040516101f29190612132565b60405180910390f35b6102156004803603810190610210919061214d565b610500565b005b610231600480360381019061022c919061214d565b610602565b005b61024d60048036038101906102489190611e9d565b610622565b005b61026960048036038101906102649190611e9d565b610692565b6040516102769190611f0b565b60405180910390f35b610299600480360381019061029491906121a0565b6106a4565b6040516102a69190612132565b60405180910390f35b6102b761075e565b6040516102c49190611e45565b60405180910390f35b6102d56107f0565b005b6102df610804565b6040516102ec9190611f0b565b60405180910390f35b6102fd61082e565b60405161030a9190611e45565b60405180910390f35b61032d600480360381019061032891906121cd565b6108c0565b005b61034960048036038101906103449190612242565b6108db565b005b61036560048036038101906103609190612323565b6108f1565b005b610381600480360381019061037c9190611e9d565b610916565b60405161038e9190611e45565b60405180910390f35b6103b160048036038101906103ac91906123a6565b610928565b6040516103be9190611d9a565b60405180910390f35b6103e160048036038101906103dc91906121a0565b6109bc565b005b60006103ee82610a42565b9050919050565b60606000805461040490612415565b80601f016020809104026020016040519081016040528092919081815260200182805461043090612415565b801561047d5780601f106104525761010080835404028352916020019161047d565b820191906000526020600020905b81548152906001019060200180831161046057829003601f168201915b5050505050905090565b600061049282610aa3565b5061049c82610b2b565b9050919050565b6104b582826104b0610b68565b610b70565b5050565b60006104c3610b82565b600860008154809291906104d690612475565b9190505550600060085490506104ec8482610c09565b6104f68184610d02565b8091505092915050565b600073ffffffffffffffffffffffffffffffffffffffff168273ffffffffffffffffffffffffffffffffffffffff16036105725760006040517f64a0ae920000000000000000000000000000000000000000000000000000000081526004016105699190611f0b565b60405180910390fd5b60006105868383610581610b68565b610d5e565b90508373ffffffffffffffffffffffffffffffffffffffff168173ffffffffffffffffffffffffffffffffffffffff16146105fc578382826040517f64283d7b0000000000000000000000000000000000000000000000000000000081526004016105f3939291906124bd565b60405180910390fd5b50505050565b61061d838383604051806020016040528060008152506108f1565b505050565b61062a610b82565b61063381610f78565b80600073ffffffffffffffffffffffffffffffffffffffff163373ffffffffffffffffffffffffffffffffffffffff167fddf252ad1be2c89b69c2b068fc378daa952ba7f163c4a11628f55a4df523b3ef60405160405180910390a450565b600061069d82610aa3565b9050919050565b60008073ffffffffffffffffffffffffffffffffffffffff168273ffffffffffffffffffffffffffffffffffffffff16036107175760006040517f89c62b6400000000000000000000000000000000000000000000000000000000815260040161070e9190611f0b565b60405180910390fd5b600360008373ffffffffffffffffffffffffffffffffffffffff1673ffffffffffffffffffffffffffffffffffffffff168152602001908152602001600020549050919050565b60606009805461076d90612415565b80601f016020809104026020016040519081016040528092919081815260200182805461079990612415565b80156107e65780601f106107bb576101008083540402835291602001916107e6565b820191906000526020600020905b8154815290600101906020018083116107c957829003601f168201915b5050505050905090565b6107f8610b82565b6108026000610ffe565b565b6000600660009054906101000a900473ffffffffffffffffffffffffffffffffffffffff16905090565b60606001805461083d90612415565b80601f016020809104026020016040519081016040528092919081815260200182805461086990612415565b80156108b65780601f1061088b576101008083540402835291602001916108b6565b820191906000526020600020905b81548152906001019060200180831161089957829003601f168201915b5050505050905090565b6108c8610b82565b80600990816108d791906126a0565b5050565b6108ed6108e6610b68565b83836110c4565b5050565b6108fc848484610500565b610910610907610b68565b85858585611233565b50505050565b6060610921826113e4565b9050919050565b6000600560008473ffffffffffffffffffffffffffffffffffffffff1673ffffffffffffffffffffffffffffffffffffffff16815260200190815260200160002060008373ffffffffffffffffffffffffffffffffffffffff1673ffffffffffffffffffffffffffffffffffffffff16815260200190815260200160002060009054906101000a900460ff16905092915050565b6109c4610b82565b600073ffffffffffffffffffffffffffffffffffffffff168173ffffffffffffffffffffffffffffffffffffffff1603610a365760006040517f1e4fbdf7000000000000000000000000000000000000000000000000000000008152600401610a2d9190611f0b565b60405180910390fd5b610a3f81610ffe565b50565b6000634906490660e01b7bffffffffffffffffffffffffffffffffffffffffffffffffffffffff1916827bffffffffffffffffffffffffffffffffffffffffffffffffffffffff19161480610a9c5750610a9b826114f7565b5b9050919050565b600080610aaf836115d9565b9050600073ffffffffffffffffffffffffffffffffffffffff168173ffffffffffffffffffffffffffffffffffffffff1603610b2257826040517f7e273289000000000000000000000000000000000000000000000000000000008152600401610b199190612132565b60405180910390fd5b80915050919050565b60006004600083815260200190815260200160002060009054906101000a900473ffffffffffffffffffffffffffffffffffffffff169050919050565b600033905090565b610b7d8383836001611616565b505050565b610b8a610b68565b73ffffffffffffffffffffffffffffffffffffffff16610ba8610804565b73ffffffffffffffffffffffffffffffffffffffff1614610c0757610bcb610b68565b6040517f118cdaa7000000000000000000000000000000000000000000000000000000008152600401610bfe9190611f0b565b60405180910390fd5b565b600073ffffffffffffffffffffffffffffffffffffffff168273ffffffffffffffffffffffffffffffffffffffff1603610c7b5760006040517f64a0ae92000000000000000000000000000000000000000000000000000000008152600401610c729190611f0b565b60405180910390fd5b6000610c8983836000610d5e565b9050600073ffffffffffffffffffffffffffffffffffffffff168173ffffffffffffffffffffffffffffffffffffffff1614610cfd5760006040517f73c6ac6e000000000000000000000000000000000000000000000000000000008152600401610cf49190611f0b565b60405180910390fd5b505050565b80600760008481526020019081526020016000209081610d2291906126a0565b507ff8e1a15aba9398e019f0b49df1a4fde98ee17ae345cb5f6b5e2c27f5033e8ce782604051610d529190612132565b60405180910390a15050565b600080610d6a846115d9565b9050600073ffffffffffffffffffffffffffffffffffffffff168373ffffffffffffffffffffffffffffffffffffffff1614610dac57610dab8184866117db565b5b600073ffffffffffffffffffffffffffffffffffffffff168173ffffffffffffffffffffffffffffffffffffffff1614610e3d57610dee600085600080611616565b6001600360008373ffffffffffffffffffffffffffffffffffffffff1673ffffffffffffffffffffffffffffffffffffffff168152602001908152602001600020600082825403925050819055505b600073ffffffffffffffffffffffffffffffffffffffff168573ffffffffffffffffffffffffffffffffffffffff1614610ec0576001600360008773ffffffffffffffffffffffffffffffffffffffff1673ffffffffffffffffffffffffffffffffffffffff168152602001908152602001600020600082825401925050819055505b846002600086815260200190815260200160002060006101000a81548173ffffffffffffffffffffffffffffffffffffffff021916908373ffffffffffffffffffffffffffffffffffffffff160217905550838573ffffffffffffffffffffffffffffffffffffffff168273ffffffffffffffffffffffffffffffffffffffff167fddf252ad1be2c89b69c2b068fc378daa952ba7f163c4a11628f55a4df523b3ef60405160405180910390a4809150509392505050565b6000610f876000836000610d5e565b9050600073ffffffffffffffffffffffffffffffffffffffff168173ffffffffffffffffffffffffffffffffffffffff1603610ffa57816040517f7e273289000000000000000000000000000000000000000000000000000000008152600401610ff19190612132565b60405180910390fd5b5050565b6000600660009054906101000a900473ffffffffffffffffffffffffffffffffffffffff16905081600660006101000a81548173ffffffffffffffffffffffffffffffffffffffff021916908373ffffffffffffffffffffffffffffffffffffffff1602179055508173ffffffffffffffffffffffffffffffffffffffff168173ffffffffffffffffffffffffffffffffffffffff167f8be0079c531659141344cd1fd0a4f28419497f9722a3daafe3b4186f6b6457e060405160405180910390a35050565b600073ffffffffffffffffffffffffffffffffffffffff168273ffffffffffffffffffffffffffffffffffffffff160361113557816040517f5b08ba1800000000000000000000000000000000000000000000000000000000815260040161112c9190611f0b565b60405180910390fd5b80600560008573ffffffffffffffffffffffffffffffffffffffff1673ffffffffffffffffffffffffffffffffffffffff16815260200190815260200160002060008473ffffffffffffffffffffffffffffffffffffffff1673ffffffffffffffffffffffffffffffffffffffff16815260200190815260200160002060006101000a81548160ff0219169083151502179055508173ffffffffffffffffffffffffffffffffffffffff168373ffffffffffffffffffffffffffffffffffffffff167f17307eab39ab6107e8899845ad3d59bd9653f200f220920489ca2b5937696c31836040516112269190611d9a565b60405180910390a3505050565b60008373ffffffffffffffffffffffffffffffffffffffff163b11156113dd578273ffffffffffffffffffffffffffffffffffffffff1663150b7a02868685856040518563ffffffff1660e01b815260040161129294939291906127c7565b6020604051808303816000875af19250505080156112ce57506040513d601f19601f820116820180604052508101906112cb9190612828565b60015b611352573d80600081146112fe576040519150601f19603f3d011682016040523d82523d6000602084013e611303565b606091505b50600081510361134a57836040517f64a0ae920000000000000000000000000000000000000000000000000000000081526004016113419190611f0b565b60405180910390fd5b805160208201fd5b63150b7a0260e01b7bffffffffffffffffffffffffffffffffffffffffffffffffffffffff1916817bffffffffffffffffffffffffffffffffffffffffffffffffffffffff1916146113db57836040517f64a0ae920000000000000000000000000000000000000000000000000000000081526004016113d29190611f0b565b60405180910390fd5b505b5050505050565b60606113ef82610aa3565b50600060076000848152602001908152602001600020805461141090612415565b80601f016020809104026020016040519081016040528092919081815260200182805461143c90612415565b80156114895780601f1061145e57610100808354040283529160200191611489565b820191906000526020600020905b81548152906001019060200180831161146c57829003601f168201915b50505050509050600061149a61189f565b905060008151036114af5781925050506114f2565b6000825111156114e45780826040516020016114cc929190612891565b604051602081830303815290604052925050506114f2565b6114ed84611931565b925050505b919050565b60007f80ac58cd000000000000000000000000000000000000000000000000000000007bffffffffffffffffffffffffffffffffffffffffffffffffffffffff1916827bffffffffffffffffffffffffffffffffffffffffffffffffffffffff191614806115c257507f5b5e139f000000000000000000000000000000000000000000000000000000007bffffffffffffffffffffffffffffffffffffffffffffffffffffffff1916827bffffffffffffffffffffffffffffffffffffffffffffffffffffffff1916145b806115d257506115d18261199a565b5b9050919050565b60006002600083815260200190815260200160002060009054906101000a900473ffffffffffffffffffffffffffffffffffffffff169050919050565b808061164f5750600073ffffffffffffffffffffffffffffffffffffffff168273ffffffffffffffffffffffffffffffffffffffff1614155b1561178357600061165f84610aa3565b9050600073ffffffffffffffffffffffffffffffffffffffff168373ffffffffffffffffffffffffffffffffffffffff16141580156116ca57508273ffffffffffffffffffffffffffffffffffffffff168173ffffffffffffffffffffffffffffffffffffffff1614155b80156116dd57506116db8184610928565b155b1561171f57826040517fa9fbf51f0000000000000000000000000000000000000000000000000000000081526004016117169190611f0b565b60405180910390fd5b811561178157838573ffffffffffffffffffffffffffffffffffffffff168273ffffffffffffffffffffffffffffffffffffffff167f8c5be1e5ebec7d5bd14f71427d1e84f3dd0314c0f7b2291e5b200ac8c7c3b92560405160405180910390a45b505b836004600085815260200190815260200160002060006101000a81548173ffffffffffffffffffffffffffffffffffffffff021916908373ffffffffffffffffffffffffffffffffffffffff16021790555050505050565b6117e6838383611a04565b61189a57600073ffffffffffffffffffffffffffffffffffffffff168373ffffffffffffffffffffffffffffffffffffffff160361185b57806040517f7e2732890000000000000000000000000000000000000000000000000000000081526004016118529190612132565b60405180910390fd5b81816040517f177e802f0000000000000000000000000000000000000000000000000000000081526004016118919291906128b5565b60405180910390fd5b505050565b6060600980546118ae90612415565b80601f01602080910402602001604051908101604052809291908181526020018280546118da90612415565b80156119275780601f106118fc57610100808354040283529160200191611927565b820191906000526020600020905b81548152906001019060200180831161190a57829003601f168201915b5050505050905090565b606061193c82610aa3565b50600061194761189f565b905060008151116119675760405180602001604052806000815250611992565b8061197184611ac5565b604051602001611982929190612891565b6040516020818303038152906040525b915050919050565b60007f01ffc9a7000000000000000000000000000000000000000000000000000000007bffffffffffffffffffffffffffffffffffffffffffffffffffffffff1916827bffffffffffffffffffffffffffffffffffffffffffffffffffffffff1916149050919050565b60008073ffffffffffffffffffffffffffffffffffffffff168373ffffffffffffffffffffffffffffffffffffffff1614158015611abc57508273ffffffffffffffffffffffffffffffffffffffff168473ffffffffffffffffffffffffffffffffffffffff161480611a7d5750611a7c8484610928565b5b80611abb57508273ffffffffffffffffffffffffffffffffffffffff16611aa383610b2b565b73ffffffffffffffffffffffffffffffffffffffff16145b5b90509392505050565b606060006001611ad484611b93565b01905060008167ffffffffffffffff811115611af357611af2611f9c565b5b6040519080825280601f01601f191660200182016040528015611b255781602001600182028036833780820191505090505b509050600082602083010190505b600115611b88578080600190039150507f3031323334353637383961626364656600000000000000000000000000000000600a86061a8153600a8581611b7c57611b7b6128de565b5b04945060008503611b33575b819350505050919050565b600080600090507a184f03e93ff9f4daa797ed6e38ed64bf6a1f0100000000000000008310611bf1577a184f03e93ff9f4daa797ed6e38ed64bf6a1f0100000000000000008381611be757611be66128de565b5b0492506040810190505b6d04ee2d6d415b85acef81000000008310611c2e576d04ee2d6d415b85acef81000000008381611c2457611c236128de565b5b0492506020810190505b662386f26fc100008310611c5d57662386f26fc100008381611c5357611c526128de565b5b0492506010810190505b6305f5e1008310611c86576305f5e1008381611c7c57611c7b6128de565b5b0492506008810190505b6127108310611cab576127108381611ca157611ca06128de565b5b0492506004810190505b60648310611cce5760648381611cc457611cc36128de565b5b0492506002810190505b600a8310611cdd576001810190505b80915050919050565b6000604051905090565b600080fd5b600080fd5b60007fffffffff0000000000000000000000000000000000000000000000000000000082169050919050565b611d2f81611cfa565b8114611d3a57600080fd5b50565b600081359050611d4c81611d26565b92915050565b600060208284031215611d6857611d67611cf0565b5b6000611d7684828501611d3d565b91505092915050565b60008115159050919050565b611d9481611d7f565b82525050565b6000602082019050611daf6000830184611d8b565b92915050565b600081519050919050565b600082825260208201905092915050565b60005b83811015611def578082015181840152602081019050611dd4565b60008484015250505050565b6000601f19601f8301169050919050565b6000611e1782611db5565b611e218185611dc0565b9350611e31818560208601611dd1565b611e3a81611dfb565b840191505092915050565b60006020820190508181036000830152611e5f8184611e0c565b905092915050565b6000819050919050565b611e7a81611e67565b8114611e8557600080fd5b50565b600081359050611e9781611e71565b92915050565b600060208284031215611eb357611eb2611cf0565b5b6000611ec184828501611e88565b91505092915050565b600073ffffffffffffffffffffffffffffffffffffffff82169050919050565b6000611ef582611eca565b9050919050565b611f0581611eea565b82525050565b6000602082019050611f206000830184611efc565b92915050565b611f2f81611eea565b8114611f3a57600080fd5b50565b600081359050611f4c81611f26565b92915050565b60008060408385031215611f6957611f68611cf0565b5b6000611f7785828601611f3d565b9250506020611f8885828601611e88565b9150509250929050565b600080fd5b600080fd5b7f4e487b7100000000000000000000000000000000000000000000000000000000600052604160045260246000fd5b611fd482611dfb565b810181811067ffffffffffffffff82111715611ff357611ff2611f9c565b5b80604052505050565b6000612006611ce6565b90506120128282611fcb565b919050565b600067ffffffffffffffff82111561203257612031611f9c565b5b61203b82611dfb565b9050602081019050919050565b82818337600083830152505050565b600061206a61206584612017565b611ffc565b90508281526020810184848401111561208657612085611f97565b5b612091848285612048565b509392505050565b600082601f8301126120ae576120ad611f92565b5b81356120be848260208601612057565b91505092915050565b600080604083850312156120de576120dd611cf0565b5b60006120ec85828601611f3d565b925050602083013567ffffffffffffffff81111561210d5761210c611cf5565b5b61211985828601612099565b9150509250929050565b61212c81611e67565b82525050565b60006020820190506121476000830184612123565b92915050565b60008060006060848603121561216657612165611cf0565b5b600061217486828701611f3d565b935050602061218586828701611f3d565b925050604061219686828701611e88565b9150509250925092565b6000602082840312156121b6576121b5611cf0565b5b60006121c484828501611f3d565b91505092915050565b6000602082840312156121e3576121e2611cf0565b5b600082013567ffffffffffffffff81111561220157612200611cf5565b5b61220d84828501612099565b91505092915050565b61221f81611d7f565b811461222a57600080fd5b50565b60008135905061223c81612216565b92915050565b6000806040838503121561225957612258611cf0565b5b600061226785828601611f3d565b92505060206122788582860161222d565b9150509250929050565b600067ffffffffffffffff82111561229d5761229c611f9c565b5b6122a682611dfb565b9050602081019050919050565b60006122c66122c184612282565b611ffc565b9050828152602081018484840111156122e2576122e1611f97565b5b6122ed848285612048565b509392505050565b600082601f83011261230a57612309611f92565b5b813561231a8482602086016122b3565b91505092915050565b6000806000806080858703121561233d5761233c611cf0565b5b600061234b87828801611f3d565b945050602061235c87828801611f3d565b935050604061236d87828801611e88565b925050606085013567ffffffffffffffff81111561238e5761238d611cf5565b5b61239a878288016122f5565b91505092959194509250565b600080604083850312156123bd576123bc611cf0565b5b60006123cb85828601611f3d565b92505060206123dc85828601611f3d565b9150509250929050565b7f4e487b7100000000000000000000000000000000000000000000000000000000600052602260045260246000fd5b6000600282049050600182168061242d57607f821691505b6020821081036124405761243f6123e6565b5b50919050565b7f4e487b7100000000000000000000000000000000000000000000000000000000600052601160045260246000fd5b600061248082611e67565b91507fffffffffffffffffffffffffffffffffffffffffffffffffffffffffffffffff82036124b2576124b1612446565b5b600182019050919050565b60006060820190506124d26000830186611efc565b6124df6020830185612123565b6124ec6040830184611efc565b949350505050565b60008190508160005260206000209050919050565b60006020601f8301049050919050565b600082821b905092915050565b6000600883026125567fffffffffffffffffffffffffffffffffffffffffffffffffffffffffffffffff82612519565b6125608683612519565b95508019841693508086168417925050509392505050565b6000819050919050565b600061259d61259861259384611e67565b612578565b611e67565b9050919050565b6000819050919050565b6125b783612582565b6125cb6125c3826125a4565b848454612526565b825550505050565b600090565b6125e06125d3565b6125eb8184846125ae565b505050565b5b8181101561260f576126046000826125d8565b6001810190506125f1565b5050565b601f82111561265457612625816124f4565b61262e84612509565b8101602085101561263d578190505b61265161264985612509565b8301826125f0565b50505b505050565b600082821c905092915050565b600061267760001984600802612659565b1980831691505092915050565b60006126908383612666565b9150826002028217905092915050565b6126a982611db5565b67ffffffffffffffff8111156126c2576126c1611f9c565b5b6126cc8254612415565b6126d7828285612613565b600060209050601f83116001811461270a57600084156126f8578287015190505b6127028582612684565b86555061276a565b601f198416612718866124f4565b60005b828110156127405784890151825560018201915060208501945060208101905061271b565b8683101561275d5784890151612759601f891682612666565b8355505b6001600288020188555050505b505050505050565b600081519050919050565b600082825260208201905092915050565b600061279982612772565b6127a3818561277d565b93506127b3818560208601611dd1565b6127bc81611dfb565b840191505092915050565b60006080820190506127dc6000830187611efc565b6127e96020830186611efc565b6127f66040830185612123565b8181036060830152612808818461278e565b905095945050505050565b60008151905061282281611d26565b92915050565b60006020828403121561283e5761283d611cf0565b5b600061284c84828501612813565b91505092915050565b600081905092915050565b600061286b82611db5565b6128758185612855565b9350612885818560208601611dd1565b80840191505092915050565b600061289d8285612860565b91506128a98284612860565b91508190509392505050565b60006040820190506128ca6000830185611efc565b6128d76020830184612123565b9392505050565b7f4e487b7100000000000000000000000000000000000000000000000000000000600052601260045260246000fdfea2646970667358221220db9eea441492c1a0ff7a1a5832acdf9b9a22b00eb84db0492a778ab27340c45b64736f6c634300081c0033",
  "linkReferences": {},
  "deployedLinkReferences": {}
}