{
  "_format": "hh-sol-artifact-1",
  "contractName": "TokenSale",
  "sourceName": "contracts/TokenSale/TokenSale.sol",
  "abi": [
    {
      "inputs": [
        {
          "internalType": "address",
          "name": "_tokenAddress",
          "type": "address"
        }
      ],
      "stateMutability": "nonpayable",
      "type": "constructor"
    },
    {
      "inputs": [],
      "name": "buy",
      "outputs": [],
      "stateMutability": "payable",
      "type": "function"
    },
    {
      "inputs": [
        {
          "internalType": "address",
          "name": "",
          "type": "address"
        }
      ],
      "name": "contributions",
      "outputs": [
        {
          "internalType": "uint256",
          "name": "",
          "type": "uint256"
        }
      ],
      "stateMutability": "view",
      "type": "function"
    },
    {
      "inputs": [],
      "name": "investorHardCap",
      "outputs": [
        {
          "internalType": "uint256",
          "name": "",
          "type": "uint256"
        }
      ],
      "stateMutability": "view",
      "type": "function"
    },
    {
      "inputs": [],
      "name": "investorMinCap",
      "outputs": [
        {
          "internalType": "uint256",
          "name": "",
          "type": "uint256"
        }
      ],
      "stateMutability": "view",
      "type": "function"
    },
    {
      "inputs": [],
      "name": "rate",
      "outputs": [
        {
          "internalType": "uint256",
          "name": "",
          "type": "uint256"
        }
      ],
      "stateMutability": "view",
      "type": "function"
    },
    {
      "inputs": [],
      "name": "token",
      "outputs": [
        {
          "internalType": "contract IERC20",
          "name": "",
          "type": "address"
        }
      ],
      "stateMutability": "view",
      "type": "function"
    }
  ],
  "bytecode": "0x608060405266470de4df820000600055678ac7230489e80000600155600a60025534801561002c57600080fd5b5060405161099f38038061099f833981810160405281019061004e91906100f8565b80600460006101000a81548173ffffffffffffffffffffffffffffffffffffffff021916908373ffffffffffffffffffffffffffffffffffffffff16021790555050610125565b600080fd5b600073ffffffffffffffffffffffffffffffffffffffff82169050919050565b60006100c58261009a565b9050919050565b6100d5816100ba565b81146100e057600080fd5b50565b6000815190506100f2816100cc565b92915050565b60006020828403121561010e5761010d610095565b5b600061011c848285016100e3565b91505092915050565b61086b806101346000396000f3fe6080604052600436106100555760003560e01c80632c4e722e1461005a57806342e94c9014610085578063a6f2ae3a146100c2578063b25d7f54146100cc578063ed5db874146100f7578063fc0c546a14610122575b600080fd5b34801561006657600080fd5b5061006f61014d565b60405161007c9190610471565b60405180910390f35b34801561009157600080fd5b506100ac60048036038101906100a791906104ef565b610153565b6040516100b99190610471565b60405180910390f35b6100ca61016b565b005b3480156100d857600080fd5b506100e1610426565b6040516100ee9190610471565b60405180910390f35b34801561010357600080fd5b5061010c61042c565b6040516101199190610471565b60405180910390f35b34801561012e57600080fd5b50610137610432565b604051610144919061057b565b60405180910390f35b60025481565b60036020528060005260406000206000915090505481565b60006002543461017b91906105c5565b905060005434116101c1576040517f08c379a00000000000000000000000000000000000000000000000000000000081526004016101b890610664565b60405180910390fd5b60015481600360003373ffffffffffffffffffffffffffffffffffffffff1673ffffffffffffffffffffffffffffffffffffffff1681526020019081526020016000205461020f9190610684565b1061024f576040517f08c379a000000000000000000000000000000000000000000000000000000000815260040161024690610704565b60405180910390fd5b80600460009054906101000a900473ffffffffffffffffffffffffffffffffffffffff1673ffffffffffffffffffffffffffffffffffffffff166370a08231306040518263ffffffff1660e01b81526004016102ab9190610733565b602060405180830381865afa1580156102c8573d6000803e3d6000fd5b505050506040513d601f19601f820116820180604052508101906102ec919061077a565b1161032c576040517f08c379a000000000000000000000000000000000000000000000000000000000815260040161032390610704565b60405180910390fd5b80600360003373ffffffffffffffffffffffffffffffffffffffff1673ffffffffffffffffffffffffffffffffffffffff168152602001908152602001600020600082825461037b9190610684565b92505081905550600460009054906101000a900473ffffffffffffffffffffffffffffffffffffffff1673ffffffffffffffffffffffffffffffffffffffff1663a9059cbb33836040518363ffffffff1660e01b81526004016103df9291906107a7565b6020604051808303816000875af11580156103fe573d6000803e3d6000fd5b505050506040513d601f19601f820116820180604052508101906104229190610808565b5050565b60005481565b60015481565b600460009054906101000a900473ffffffffffffffffffffffffffffffffffffffff1681565b6000819050919050565b61046b81610458565b82525050565b60006020820190506104866000830184610462565b92915050565b600080fd5b600073ffffffffffffffffffffffffffffffffffffffff82169050919050565b60006104bc82610491565b9050919050565b6104cc816104b1565b81146104d757600080fd5b50565b6000813590506104e9816104c3565b92915050565b6000602082840312156105055761050461048c565b5b6000610513848285016104da565b91505092915050565b6000819050919050565b600061054161053c61053784610491565b61051c565b610491565b9050919050565b600061055382610526565b9050919050565b600061056582610548565b9050919050565b6105758161055a565b82525050565b6000602082019050610590600083018461056c565b92915050565b7f4e487b7100000000000000000000000000000000000000000000000000000000600052601160045260246000fd5b60006105d082610458565b91506105db83610458565b92508282026105e981610458565b91508282048414831517610600576105ff610596565b5b5092915050565b600082825260208201905092915050565b7f546f6b656e53616c653a206e6f742072656163686564206d696e206361700000600082015250565b600061064e601e83610607565b915061065982610618565b602082019050919050565b6000602082019050818103600083015261067d81610641565b9050919050565b600061068f82610458565b915061069a83610458565b92508282019050808211156106b2576106b1610596565b5b92915050565b7f546f6b656e53616c653a20657863656564732068617264206361700000000000600082015250565b60006106ee601b83610607565b91506106f9826106b8565b602082019050919050565b6000602082019050818103600083015261071d816106e1565b9050919050565b61072d816104b1565b82525050565b60006020820190506107486000830184610724565b92915050565b61075781610458565b811461076257600080fd5b50565b6000815190506107748161074e565b92915050565b6000602082840312156107905761078f61048c565b5b600061079e84828501610765565b91505092915050565b60006040820190506107bc6000830185610724565b6107c96020830184610462565b9392505050565b60008115159050919050565b6107e5816107d0565b81146107f057600080fd5b50565b600081519050610802816107dc565b92915050565b60006020828403121561081e5761081d61048c565b5b600061082c848285016107f3565b9150509291505056fea2646970667358221220acaf6fbdd1c4ce659c229cb763c09537850290123123cb5a7e85b9b00f47b68064736f6c634300081c0033",
  "linkReferences": {},
  "deployedLinkReferences": {}
}